:020000040002F8
:10600000985B0020C1630200C9630200CB630200F9
:10601000CD630200CF630200D163020000000000E4
:10602000000000000000000000000000D363020038
:10603000D563020000000000D7630200D9630200AC
:1060400039670200DB630200396B0200DB63020088
:10605000DB630200DB63020071650200DB630200A8
:10606000DB630200DB630200DB630200DB63020030
:10607000DB630200DB630200DB630200DB63020020
:10608000DB63020091670200DB630200DB63020056
:1060900015680200DB63020019680200DB6302007E
:1060A000DB630200DB630200DB630200DB630200F0
:1060B000DB630200DB630200000000000000000060
:1060C000DB630200DB630200DB630200DB630200D0
:1060D000DB630200DB630200DB6302000000000000
:1060E00000000000000000000000000000000000B0
:1060F00000000000000000000000000000000000A0
:10610000000000000000000000000000000000008F
:10611000000000000000000000000000000000007F
:10612000000000000000000000000000000000006F
:10613000000000000000000000000000000000005F
:10614000000000000000000000000000000000004F
:10615000000000000000000000000000000000003F
:10616000000000000000000000000000000000002F
:10617000000000000000000000000000000000001F
:10618000000000000000000000000000000000000F
:1061900000000000000000000000000000000000FF
:1061A00000000000000000000000000000000000EF
:1061B00000000000000000000000000000000000DF
:1061C00000000000000000000000000000000000CF
:1061D00000000000000000000000000000000000BF
:1061E00000000000000000000000000000000000AF
:1061F000000000000000000000000000000000009F
:10620000DFF80CD000F076F900480047918D0200CD
:10621000985B002030B450E8012F93B2C489234426
:106220008489A34228BF1B1B0489A34202BFBFF37A
:106230002F8F002007E0C3EA020340E80134002C5E
:10624000E9D14FF001000A6030BC704750E8012FDF
:10625000C2EA024240E801210029F7D1704730B478
:1062600050E8022F1FFAA2F3C488A34202BFBFF373
:106270002F8F00200DE0C48923448489A34228BFC6
:106280001B1BC2EA034340E80234002CE8D14FF064
:1062900001000A6030BC704750E8022FC2EA224277
:1062A00040E802210029F7D17047034653E8022F46
:1062B000D988B2EB324F4FF0000017BF92B241EADB
:1062C000014142EA014104E05A68B2EB324F08BF93
:1062D000012043E80212002AE8D1704730B4044696
:1062E00054E8000F0D4644E80053002BF8D1156028
:1062F00030BC704730B4044654E8000F40EA010552
:1063000044E80053002BF7D1156030BC704730B41F
:10631000044654E8000F00EA010544E80053002B4E
:10632000F7D1156030BC704730B4044654E8000F14
:1063300080EA010544E80053002BF7D1156030BC1A
:10634000704730B4044654E8000F00EB010544E800
:106350000053002BF7D1156030BC704730B40446B1
:1063600054E8000FA0EB010544E80053002BF7D1DF
:10637000156030BC704770B404464FF0000054E81C
:10638000006F0D68AE4207BF44E80023012044E8D7
:1063900000630E60002B1CBF0020F0E770BC70474C
:1063A00030B4044654E8000F88422CBF451A054615
:1063B00044E80053002BF5D1156030BC7047000055
:1063C0000648804706480047FEE7FEE7FEE7FEE78F
:1063D000FEE7FEE7FEE7FEE7FEE7FEE71D680200D8
:1063E000016202002DE9F05F0546002092469B46BF
:1063F00088460646814640241BE0284641464746DB
:10640000224600F067F853465A46C01A914110D30D
:1064100011461846224600F016F82D1A67EB0108BF
:106420004F4622460120002100F00DF817EB00092D
:106430004E41201EA4F10104DFDC484631462A46C5
:106440004346BDE8F09F202A04DB203A00FA02F11F
:10645000002070479140C2F1200320FA03F3194352
:10646000904070470048704720C5020040EA010391
:106470009B0703D009E008C9121F08C0042AFAD2FA
:1064800003E011F8013B00F8013B521EF9D27047BE
:10649000D2B201E000F8012B491EFBD27047002266
:1064A000F6E710B513460A4604461946FFF7F0FF13
:1064B000204610BD421C10F8011B0029FBD1801A98
:1064C0007047034611F8012B00F8012B002AF9D17F
:1064D00018467047202A04DB203A21FA02F00021F6
:1064E000704721FA02F3D040C2F1200291400843E4
:1064F00019467047064C074D06E0E06840F001037E
:1065000094E8070098471034AC42F6D3FFF77CFEBE
:1065100094CC0200B4CC020070B58C1810F8015B6A
:1065200015F0070301D110F8013B2A1106D110F82C
:10653000012B03E010F8016B01F8016B5B1EF9D130
:106540002B0705D40023521E0DD401F8013BFAE7B6
:1065500010F8013BCB1A921C03E013F8015B01F821
:10656000015B521EF9D5A142D8D3002070BD0000B6
:106570002DE9F04700268AB0DFF85091B0464FF47D
:106580008075012437460696284603F0CDFA38B1C7
:10659000D9F80403204203D0284603F0BBFA26436F
:1065A0002D1D64007F1CADB2082FEDD34FF4BE74D7
:1065B000204603F0B9FA48B1204603F0ABFA46F0A2
:1065C000004606AA0121002003F090FA404D16F083
:1065D000FF0F15D00127002437420DD009EB8401AD
:1065E000D1F81005D1F81015C0F3042055F8242077
:1065F000C1F3014102B190477F00641C082CEBD32A
:10660000002E5FDA4FF0FF30CDF8108054E02819EB
:1066100010F8507F90F9000027F0C008401C3BD0D4
:1066200007A9404602F058FE10B34FEA97194046BA
:1066300001F016FF55F820701FB1B9F1030F03D018
:1066400006E0B9F1030F27D104A9404602F04CFE41
:106650004FF0A04101EB8800D0F8000706A9C0F375
:10666000014A404602F038FE18B1BAF1020F03D0D9
:1066700012E0BAF1030F0FD1B9F1030F08D1BAF14B
:10668000020F1DD00221404603F014FA761CF6B228
:1066900017B149464046B847641C042CB7D3002EB6
:1066A00010D06A460121002003F020FA06990098D4
:1066B000884207D006900498002634460790A6E743
:1066C0000321E0E70AB0BDE8F08700000060004069
:1066D0003C31002000F01F02012191404009800060
:1066E00000F1E020C0F88012704700F01F02012185
:1066F00091404009800000F1E020C0F8001170478F
:1067000000F01F02012191404009800000F1E020CB
:10671000C0F8001270474907090E002806DA00F099
:106720000F0000F1E02080F8141D704700F1E02018
:1067300080F800147047000070B54FF48076304642
:1067400002F016FF114CB50560B1304602F017FF9C
:106750000120C5F80803607920B901206071216823
:10676000002088474FF48276304602F001FF00286F
:106770000AD0304602F003FF0220C5F80803216862
:10678000BDE870400120084770BD0000F82A0020D5
:1067900007480021C0F84011C0F84411C0F8481162
:1067A000C0F84C11C0F80011C0F8041105F022B96E
:1067B0000010014000F0C6B970B50E46144900EB58
:1067C000400001EBC0051446E86A183520B10128E5
:1067D0000FD0022805D113E0284600F0E7F9A042C7
:1067E00001D2002411E022463146284600F016FA74
:1067F0000BE0284600F0DAF9A042F4D20446F2E7B2
:106800003146284600F0DDF90446204670BD000000
:106810001039002005F03CB803F00CBFF0B5B548C6
:106820000023021D0178101D01254FF08054062918
:106830000BD11678360708D10678C6F30316032E57
:1068400006D0042E04D0052E02D0062907D00EE073
:10685000B4F82463A84FC6F304263E6002E016781D
:10686000360704D10678C6F30316032E02D0062994
:1068700004D00FE0A24FA14E7E670EE016783607D7
:1068800008D10678C6F30316032E06D0042E04D0D2
:10689000052E02D0062907D00EE0D4F84462994FA5
:1068A000C6F342363E6002E01678360704D1067819
:1068B000C6F30316032E02D0062906D011E0924E2D
:1068C000376827F0807737600EE01678360708D1F2
:1068D0000678C6F30316032E06D0042E04D0052E28
:1068E00002D006290AD011E04FF08046C6F80C31DC
:1068F000C6F81031834E361F336002E01678360733
:1069000004D10678C6F30316032E02D0062905D05B
:106910000CE07C4F032664373E600AE016783607A9
:1069200004D10678C6F30316032E02D006290DD033
:1069300014E0764F05263E60744E78363560734E0F
:10694000083633603F263F1D3E6002E0167836076A
:1069500004D10678C6F30316052E02D0062957D0B7
:1069600062E06B4E36686B4F3E60694E361D36688E
:106970003F1D3E60664E083636683F1D3E60644EE1
:106980000C3636683F1D3E60614E103636683F1D3E
:106990003E605F4E143636683F1D3E605C4E1836D2
:1069A00036685C4F20373E60594E1C3636683F1DB6
:1069B0003E60574E203636683F1D3E60544E2436AA
:1069C00036683F1D3E60524E283636683F1D3E6099
:1069D0004F4E2C3636683F1D3E604D4E3036366881
:1069E0004C4F40373E604A4E343636683F1D3E605D
:1069F000474E383636683F1D3E60454E3C36366859
:106A00003F1D3E60424E403636683F1D3E6002E00C
:106A10001678360708D10678C6F30316032E06D07B
:106A2000042E04D0052E02D0062907D019E0D4F890
:106A30005812394A01F04F01116002E0117809073C
:106A40000FD10078C0F30310032803D0042801D02D
:106A5000052806D131480168C90702D06FF001014D
:106A60000160D4F83001062808D1D4F83401062892
:106A700004D12B48016841F48061016022487438D8
:106A8000016841F470010160BFF34F8FBFF36F8F56
:106A90004FF01021D1F80002002803DBD1F80402E6
:106AA000002822DA1F4A15601F480468002CFCD019
:106AB0001524C1F800420568002DFCD0C1F804423D
:106AC00001680029FCD0136001680029FCD0BFF3E5
:106AD0004F8F0D48F0380168144A01F4E06111430A
:106AE0000160BFF34F8F00BFFDE7124910480860F7
:106AF000F0BD0000E00F00F0403501400DF0ADBAF0
:106B000000C007403C050040FCED00E0105600408E
:106B10000404001020C50040E40E004000040040C2
:106B20003C17004004E5014000E401400400FA0580
:106B30000090D003E42B00200148006800470000CB
:106B4000002B002010B5124C02202061606111A0C2
:106B5000A06104F17800E0614FF400702062002031
:106B6000A06260620BA1A164E06204F51E71E164A1
:106B70001021A065C4E91410E06509A1E01DFFF72C
:106B8000A0FC08A12046FFF79CFC2020A07110BDAE
:106B9000103900205465726D696E616C0000000050
:106BA0005254540053454747455200000269C1689A
:106BB0008A4203D88068401A104400E0501A401EF0
:106BC00070472DE9F047C4681746894606464FF0DE
:106BD00000083069A04201D9051B02E0B168201A03
:106BE0000D1AB0686D1E001BA84200D80546BD42B4
:106BF00000D33D4670682A4620444946FFF736FCDC
:106C0000B0687F1B2C44A844A944A04200D10024B2
:106C1000F460002FDDD14046BDE8F0872DE9F0415A
:106C200004468846D4E90207C51BE1686068164639
:106C30000844B54206D94146FFF718FCB819E06090
:106C4000BDE8F0812A464146FFF710FC761B08EBB1
:106C5000050132466068FFF709FCE660F0E70000D6
:106C6000014A024900F031B8BF8802007C2B0020A5
:106C700002E008C8121F08C1002AFAD17047704705
:106C8000002001E001C1121F002AFBD17047000063
:106C90000121202803DA81400548014003E0402813
:106CA00002DA2038814009B1012070470020704786
:106CB000FC06FFBD082806D228B1012803D004280D
:106CC00001D001207047002070472DE9F0411646A1
:106CD0000F460446002503E03946B047641C6D1C8E
:106CE00020780028F8D12846BDE8F08110B50122AF
:106CF0000221002001F0C4F908B1072810D10722B1
:106D00000221012001F0BCF908B1072808D10021B7
:106D10000A22084601F0B4F908B1072800D1002082
:106D200010BD022001F0B6B870B50024064D06E093
:106D30006868012110F8340003F066FD641C2878AF
:106D40008442F5D3002070BD082B0020F8B515460D
:106D50000C460646052A01D20720F8BD03F050FE76
:106D600018B903F015FE0028F7D1124900224E6031
:106D70000C708D60C1E90422C1E906220E4D0DE0C0
:106D800006EBC4002968009181788DF80110007825
:106D90000A4A694603F08AFD0028DED1641EE4B287
:106DA000EED2BDE8F84004480021054A001D00F07D
:106DB0007BB80000082B002024C202005189020089
:106DC0003187020072B603F037F900BF02F076FF98
:106DD0000028FBD1104C0121208801EB00400FA1BD
:106DE00003F07CF810480068C00700D000BE20887F
:106DF000022101EB00400DA103F070F8BFF34F8FAB
:106E00000948E43801680D4A01F4E061114301606A
:106E1000BFF34F8F00BFFDE7182C0020466174615F
:106E20006C206572726F7200F0ED00E0537973743C
:106E3000656D207265736574000000000400FA053A
:106E40000EB500210091CDE901106A4644F201001F
:106E5000FFF7B8FF0EBD10B58268C368934203D038
:106E600001F006FD002010BD052010BD29B112B1B2
:106E7000531E134203D0092070470E207047016053
:106E8000838000218160C1600846704710B5826828
:106E9000C3689A1A83889A4203D801F0F3FC002051
:106EA00010BD042010BD0000074B9B7823B12AB110
:106EB00020B10068037C1BB1082070470720704791
:106EC00041744261002070470832002070B504F020
:106ED0009BFA104800240B21047044700E4D817001
:106EE00014206C602C706C70FFF7F4FB07211420E9
:106EF000FFF711FC1420FFF7F8FB08480460072196
:106F00001120FFF708FC0548001F0068A86000205A
:106F100070BD000008320020282B00200815014019
:106F20002DE9FC47DFF8789099F8023073B368B325
:106F3000052902D20720BDE8FC87436933B3437CAF
:106F4000012B25D0002704460025884616468DF8DB
:106F50000050684600F0CEF801A805F087F8C8B1E7
:106F6000012101700F4944600968C0E90218C0E9B5
:106F700004769DF8040089F801009DF8000000F0F7
:106F8000DDF81420FFF7BCFB2846D4E70820D2E741
:106F90000F46D8E704259DF8000000F0CFF8F3E78E
:106FA00008320020041501400649897839B130B112
:106FB000416921B100210174022104F0F7BC0820CD
:106FC000704700000832002070B50A4E01460A489A
:106FD000B578FFF740FF04464DB10020B070711C3A
:106FE0000122C81D02F03CFB08B1FFF729FF204633
:106FF00070BD00003C2B002014330020F0B5244E5F
:1070000089B01F460D00044672603FD0A8882968E9
:1070100082B22048FFF72AFF002835D1A889A96845
:1070200082B21C481030FFF721FF00282CD120220B
:1070300019496846FFF71AFA60690690207C00B18A
:1070400001208DF814008DF81C70607C00B10E20BA
:107050008DF81500E0680290A06803902068019008
:10706000606800900A480D4A6946083002F0C4FA88
:10707000002809D1B0702068401C05D004490122C5
:10708000491CC81D02F0ECFA09B0F0BD0720FBE76F
:107090003C2B00201433002038C20200EDBB02005C
:1070A00010B501461048FFF7F1FE040019D10F4852
:1070B0000F4A0178515C19B1001D03F023FF02E073
:1070C0000C3003F007FE60B9084907480839FFF79C
:1070D000C2FE30B9054901220839044802F0D0FA4D
:1070E0000446204610BD000024330020442B00201D
:1070F000EC2A002030B5EFF3108172B60D4A946887
:10710000012324B10370002900D162B630BD936021
:107110004FF0E023D3F88051074C25401560C3F8A9
:107120008041D3F8844154605A17C3F88421002267
:107130000270E8E734330020FC06FFBD0B498A6883
:10714000002A11D000280FD1EFF3108072B60B681F
:107150004FF0E022C2F800314B68C2F8043100223F
:107160008A60002800D162B67047000034330020E6
:107170002DE9F041064608680C46411C4FF0A04737
:107180004FF0010506D005FA00F1C7F80815206890
:1071900002F07CFC6068411C02D0002102F064FC1B
:1071A0003168A069C1F82405607D227D31681043F3
:1071B000C1F86C05D4E900123068C0F81425C0F895
:1071C0000C15207D012815D1A068411C02D000219A
:1071D00002F04AFCE068411C05D08540C7F808551C
:1071E000E06802F053FCD4E902123068C0F80825C8
:1071F000C0F81015BDE8F0812DE9F0410646086899
:107200000C46411C4FF0A0474FF0010506D005FA8F
:1072100000F1C7F80815206802F042FC6068411CC4
:1072200002D0002102F029FC3168A069C1F82405D0
:10723000607D217D32680843C2F86C05D4E90012F4
:107240003068C0F80C15C0F81425207D012815D130
:10725000A068411C02D0002102F00FFCE068411C34
:1072600005D08540C7F80855E06802F019FCD4E95C
:1072700002123068C0F80825C0F81015BDE8F0818A
:1072800070B51500044609D00020286034B120688C
:1072900020B1A079800703D0072070BD0E2070BDFB
:1072A000084600F037FBC0B2142804D0217981428F
:1072B00003D8042070BD052070BDE288216800FB62
:1072C00002102860002070BD2DE9FC4700251788BA
:1072D0000646158090F82D001446894630B13A468E
:1072E0002146484600F02AFB050009D1B0784FF04E
:1072F0000C0A18B32088C846001DB84202D950466F
:10730000BDE8FC87684679DF0028F9D12088032191
:1073100008F8001020881921401C80B2208008F84D
:1073200000102088401C80B2208000EB0801BDF8CE
:10733000000004F0E9FD218808442080F078022252
:10734000C8B1218896F9033001F1030C4846BC45C9
:10735000D5D8425421884FF0010C491C89B22180B4
:1073600000F801C02188491C89B2218009F8013048
:107370002088401C20807068B8B1218890F90030C6
:1073800001F1030C4846BC45B9D8425421880A2271
:10739000491C89B2218042542188491C89B221802C
:1073A00009F801302088401C2080308950B1CDE997
:1073B00000474B460622022106F1080004F06EFE4B
:1073C00005009DD1308A50B1CDE900474B460722D8
:1073D000032106F1100004F061FE050090D1308B0E
:1073E00050B1CDE900474B461522142106F1180093
:1073F00004F054FE050083D1306A30B13B4622468A
:10740000494601F0CCF80500DBD1706A30B13B464B
:107410002246494601F0DCFD0500D2D196F82C0049
:1074200038B13B4622464946304604F043F9050050
:10743000C7D1307838B13B4622464946304601F044
:107440004DFE0500BDD128465AE718B50446002078
:10745000ADF8000013466A46204600F006F8002802
:1074600002D0BDF80000204418BD70B588B182B1CB
:107470000024158803E0065D641C3444A4B2A542D0
:1074800003D8061976789E4201D08C42F3D38C4201
:1074900001D3002070BDA11C1180005D401E80B290
:1074A00070BD80F8301070472DE9F0410D000446A2
:1074B00006D02CB195F87A000026012803D006E00A
:1074C0000E20BDE8F08195F89800012829D0D5F864
:1074D000A000042825D0D5F89C00042821D04FF026
:1074E0000108A6702C2205F17801201DFEF7BEFFD1
:1074F00084F83060D5F8A4006063D5F8A800A063D4
:107500004FF6FF70A4F8A80004F19400C4F8A4009A
:10751000C4F8AA60A4F8AE6084F8B060207810B116
:1075200004E00720CDE7FF2084F8540004F1550162
:107530001F27C4F89410A4F8987004F19802284604
:10754000FFF7C2FE0028BCD115F13C0F0ED004F1AC
:107550007401C4F89C10A4F8A07004F1A00205F115
:107560003C00FFF7B1FE0028ABD103E0C4F89C60FB
:10757000A4F8A06084F85180208BA4F8480084F817
:107580003C80266484F8506060696064454604F17C
:107590003C02002104F1540072DF002891D12570D3
:1075A0008FE710B50288102A1BD0112A20D0262A76
:1075B0001DD1007A0C46012801D0022817D1A078ED
:1075C0000521401CB0FBF1F201FB1201204600F046
:1075D00052F800280BD0A16B002908D0BDE810405C
:1075E0000847C27B012A02D18088A1F8A80010BDFB
:1075F0000C46002184F8B2108088B4F8A8108842A4
:10760000F5D120790028F2D10121DFE710B50C4631
:10761000022801D0032810D1607800280DD0002066
:107620006070A178204600F026F8002805D0A16BF4
:10763000002902D0BDE81040084710BD10B504462F
:1076400090F8540074DF012084F8B200002084F820
:10765000B40084F850000621204601F01CF90028EF
:1076600008D1A178204600F006F810B1A16B01B155
:107670008847002010BD2DE9F05F044600780F46D2
:1076800038B1A770002002F011F9012620B1667010
:1076900007E10820BDE8F09F0025C4F8AA50A4F82F
:1076A000AE5084F8B050A07910B1A078012806D06F
:1076B000E07968B1A078012801D0022808D1616B77
:1076C00021B184F8B1600820884701E084F8B15006
:1076D00004F1AB0100200A5C0AB1304603E0401C13
:1076E0000628F8D300204FF002084FF0030B012FBB
:1076F00006D0022F0CD0032F0FD0042F15D110E08D
:10770000A17929B194F8241011B908B130460DE0DF
:10771000E17911B108B1404608E0207A08B1584635
:1077200004E0607A08B1042000E02846A070616B94
:1077300041B1032801D0042804D1607910B194F834
:10774000B200A0B184F8B35004F13C001821074600
:10775000FEF7A5FE04F12C0084F83C60814603F09E
:1077600061FD58B194F82C0084F8510008E084F8C9
:10777000B45084F8B36007208847E5E784F8516087
:1077800094F8240050B1484603F04CFD20B194F821
:10779000280084F8520001E084F8526084F85050C8
:1077A000A27804F1AA0104F194094FF0060A052A0F
:1077B00060D2DFE802F078030F223F0084F83160E6
:1077C000C4F8A450C4E9101584F83C808020A4F8C3
:1077D000480051E084F8318094F82420384612B1F2
:1077E0000722027001E080F800B0228A8281C4F88A
:1077F000A4504160E168B9603EE06069B860208BE8
:10780000B88194F824003D4610B184F83CA001E012
:1078100084F83C60204604F00BFC40B185F81480ED
:107820000421204601F037F820BB05211EE084F832
:1078300031B01DE0E069B860208CB88194F8240074
:107840003D4610B184F83CA001E084F83C6020463D
:1078500004F0EEFB48B185F814800421204601F0C5
:107860001AF838B984F831A002E0042184F8311004
:10787000C4F8A490A07878B13A4604F15400D4F842
:10788000A41072DF00287FF405AF94F8301094F84C
:10789000540073DF0028F6D1616B11B194F8310008
:1078A00088470020F6E684F83150F5E770B504000B
:1078B00012D001461C221448FEF7D8FD1248134D81
:1078C0000560206850B17ADF002806D12068016881
:1078D00029604068686005E00E2070BD0B487BDFC2
:1078E0000028FAD108484FF6FF711438084A20F8EA
:1078F000041B0549343901600021FFF7D5FA00283F
:10790000EBD0032070BD000094300020E42A00205A
:10791000C9BF020010B5044600F006F808B12046C1
:1079200010BD142010BD0000142801D300207047A2
:107930000146014801F041BCB43000207CB5054649
:1079400008880C460930904201D90C207CBD68465D
:107950006DDF0028FAD121880820685420881B2177
:10796000401C80B2208029542088401C80B2208096
:107970002844DDF801100160BDF8051081802088E1
:10798000801D80B220809DF80010490800D00121A0
:1079900029542088401C208000207CBDF8B5294D4A
:1079A000028804466E88212A37D011DC26484FF021
:1079B0000301102A008801EB004013D0112A25D0C2
:1079C000132A29D100231A46852130467FDF17E08C
:1079D0003B2A32D0522A2AD0562A1DD18088132120
:1079E00076DF0DE019A102F079FA072000F06AFBBA
:1079F00008B1FFF725FAA1886980174801F040FD1A
:107A0000002809D0BDE8F840FFF71ABA13A102F028
:107A100065FA4FF6FF706880F8BD00200090A088DE
:107A200069468FDF0028F7D0FFF70AFAF8BD002378
:107A30001A4619463046B1DFE2E78088132176DF27
:107A4000DEE70000A02A0020182C0020436F6E6E95
:107A50006563746564000000302F0020446973631F
:107A60006F6E6E65637465640000000010B51A4C9B
:107A70000188606810290ED011292BD1401E60604A
:107A800028D1FFF733F9002824D02168002921D01C
:107A9000BDE810400847D0B900210122084600F097
:107AA000EFFA08B107280FD107220221012000F0C8
:107AB000E7FA08B1072807D104220221002000F0CC
:107AC000DFFA20B1072802D0216801B18847606839
:107AD000401C606010BD0000DC2A00202DE9F0474A
:107AE00001883B4E40F2F3194FF6FF7510291BD069
:107AF00011293ED0122954D0502946D1C188F2898B
:107B0000841D914241D1618902293ED18688304647
:107B100000F060FF050038D004F10C0000F076F9A9
:107B2000A8B3294630464EE0C17B87880446012928
:107B30002BD1A846284600F04DFF050017D02F8016
:107B400000202872234843464A460168C5F80A10B7
:107B50004068C5F80E0004F1100105F10A0000F0BC
:107B6000FDFF6872F08900280FD129462AE0042021
:107B700013E0808800F02EFF040006D06068FFF755
:107B800013FA08B103F066FD2580BDE8F087FFE732
:107B90006868FFF709FA0028F7D0BDE8F04703F05E
:107BA00059BD87880646384600F014FF0400ECD023
:107BB0002B464A4606F1080104F10A0000F0CEFF08
:107BC000607221463846BDE8F04700F02FBD000046
:107BD00094300020E42A00202DE9F04F07468588E4
:107BE00002883D48012197B08346102A09D0112A06
:107BF00049D01A2A6CD1387AB1EB101F45D2012234
:107C000044E0354C083CA068C0430B9061680BA869
:107C100001F0F4FA0B990CA800F0A2FC2C220CA99C
:107C20006846FEF723FC0026E946A04610E000BFA8
:107C300009EB46005FF00004B0F804A008EB8400F4
:107C40005146001D01F0AEFA641C1D2CF6D3761CC3
:107C50000098B042ECD8142D05D317B00420BDE82D
:107C6000F04FFFF7EDB82946584601F0B1FA294622
:107C700008F1040001F0ACFAF87B012828D016487E
:107C80002946001D15E029461AE000220221B1EB29
:107C9000101F01D2012600E000260F49083901F12A
:107CA0001000041D294682B101F092FA36B129462E
:107CB000204617B0BDE8F04F01F08ABA29462046A9
:107CC00017B0BDE8F04F01F06DBA01F06BFAF5E7BF
:107CD00017B0BDE8F08F0000B8300020F0B585B0D7
:107CE00016460F4604001D4614D004AA19466069C2
:107CF000FFF7C6FA00280BD1A5F57F40FF380BD05F
:107D0000049848B1007848B13088F42808D9072091
:107D100005B0F0BD0E20FBE70520F9E70820F7E7E6
:107D200000200090019002900390A088ADF8000020
:107D300001208DF80200CDE9026769462846AEDFD2
:107D4000E6E7000030B5144B0D4604000FCB85B0BC
:107D50008DE80F001ED0EDB12868A061214668466D
:107D600062DF002814D120788DF812000120ADF8D0
:107D70001000A21C04A9A8DF002809D1294620462A
:107D800003F079FB002803D12946204603F07CFE4E
:107D900005B030BD0E20FBE708C2020070B588B008
:107DA0000446002924D0002C22D00846218810291E
:107DB00020D0502924D057291AD10546A1884069DE
:107DC00006AAFFF75DFA002812D1069E3078002837
:107DD0000ED018216846FEF762FB01208DF80000E6
:107DE0000195A088ADF808000396A9696846884700
:107DF00008B070BD08B02146BDE8704003F0F8B887
:107E000008B02146BDE8704003F0CAB9007800F020
:107E1000010070470149085C70470000C0C10200C2
:107E20000649095C4FF0A040D0F81005C84010F09A
:107E3000010000D0012080F001007047C0C10200A5
:107E40002DE9FC410646C0074FF000050ED0104F4B
:107E500000240122385D009500231146019501F0B0
:107E6000BBFD641C042CF4D300F046F8B0070DD51C
:107E7000074E0024361D0022305D03230095114675
:107E8000019501F0A9FD641C042CF4D3BDE8FC812C
:107E9000BCC1020007490B5C4FF0A041D1F804259A
:107EA0000120984020EA0203C1F808351040C1F8CB
:107EB0000C057047BCC102000249085C012101F0B9
:107EC0000ABE0000BCC102000249085C002101F0AA
:107ED00002BE0000BCC102000649095C4FF0A04090
:107EE000D0F80405C84010F0010000D0012080F057
:107EF00001007047BCC1020010B500242046FFF706
:107F0000DBFF641C042CF9D310BD10B500242046FF
:107F1000FFF7DAFF641C042CF9D310BD10B502463C
:107F2000064B4FF0FF3000215C5C944201D10846C3
:107F300010BD491C0429F7D310BD0000C0C10200C8
:107F400070B50C4E0C004FF0000530600BD00120D6
:107F500000F06AF808B1022004E0002000F064F8A4
:107F600000B10B202070706810B9FEF7BFFE054607
:107F7000284670BDDC2A002010B5002000F0D4F99E
:107F800008B1062806D1012000F0CEF908B1062874
:107F900000D1002010BD00002DE9F0470D468146BC
:107FA000FFF7BCFF0446042836D2DFF874801B4874
:107FB0001C4EA8F10C0725B3012D0ED0022D2BD19C
:107FC00004EB440030444578002D25D0B9680029E1
:107FD00022D02846BDE8F047084704EB4401755C11
:107FE0000E44717849B10E4A4FF40041093A806855
:107FF000FEF796FF08B987F80390B17808F80410E7
:10800000E2E78068FEF7D0FF04EB4401314418F842
:1080100004008D78A842D7D0BDE8F087C4C1020023
:10802000D82A002034300020042801D2FFF7F8BEFF
:10803000002070470146104810B54088042907D039
:1080400007290ED00A2915D1BDE8104003F076BBF0
:10805000132176DF0CE000280CD0BDE81040FEF7BD
:10806000EFBEA0F57F41FF3904D10448FFF7E6FADF
:108070000828F0D110BD0000A02A00203C2F0020CD
:1080800070B50023042810D20D4D00EB4004012AE6
:1080900002D101290CD00022094E00EB40003044EF
:1080A00061B1012906D0022906D00723184670BD08
:1080B0000E30C2B22A55F9E74270F7E78270F5E751
:1080C00034300020044A014600201279D20702D041
:1080D000084600F04DB87047CC2A002070B506461F
:1080E0001E480024C0E90161B00720D50025012207
:1080F00011462846FFF7C4FF6D1C0446042D02D22A
:10810000002CF4D013E094B940F2666204211448C4
:10811000FEF71CFE04000AD1FEF706FE040006D19D
:108120000F48104A0021001FFEF7BEFE0446F0076C
:1081300012D00120FFF784FE74B909480A4A0021D1
:108140000C38FEF7B1FE040006D10548074A0121AC
:108150000838FEF7A9FE0446204670BDCC2A002050
:10816000D0C10200F5830200D18B0200236D020012
:108170002DE9F05F6A4C054600266078B34618B1D9
:1081800084F801B000F00CFD664F4FF47A694FF4AB
:10819000C87A4FF00108182D62D2DFE805F0AC0C68
:1081A0000C31404D62676B746B74BE7D7D7D7D7D4F
:1081B000ACAFB2B5BEBE0020FFF78EFE00284FF078
:1081C000000008D0FFF778FE022D02D14FF4E160E5
:1081D00008E0484606E0FFF777FE022D01D1C820EF
:1081E00000E05046410CC0034FF4FA72801841F190
:1081F0000001257052000023FEF7F4F801462AE042
:108200000020FFF769FE00284FF0000004D0FFF7C0
:1082100053FE4FF44870E5E7FFF756FEDFE7002016
:10822000FFF75AFE00284FF0000002D0FFF744FE8F
:10823000CFE7FFF749FED4E70020FFF74DFE002807
:108240004FF0000002D0FFF737FE01E0FFF73CFEE1
:10825000257041F69A1100223868FEF761FE064645
:1082600046E00020FFF716FE257008E0002051E0F0
:1082700025703DE084F801800120FFF70BFE00220D
:1082800040F6CD41E8E784F801800120FFF702FEC7
:1082900000224FF48041DFE77868FEF785FE06464E
:1082A000D5F1110000D02EB10220FFF705FE84F8B1
:1082B00002B01DE0012816D980B2C8214843C11779
:1082C000C90341EA5041C0034FF4FA72801841F1EA
:1082D000000152000023FEF785F80146002278686D
:1082E000FEF71EFE06460220FFF7EEFD84F8028030
:1082F0003046BDE8F09F00F053FCB9E700F050FCB9
:10830000B4E700F04DFC04E000F04AFC0020FFF769
:10831000DBFD0120FFF7D8FDAAE7FFF7F6FDA7E791
:10832000CC2A0020C4C10200012103F01EBF0000BE
:108330002DE9F8430546861C00208DF80000904684
:108340000F464FF001096846FEF7D4FE1B4C20682B
:108350003860D4E90001401AA16804F21C47081AE9
:108360000EE00121384600F043FF00F0C3FC014657
:10837000384600F03DFFD4E90001401AA168081A10
:10838000401C8642EDD8B8F1000F03D0052065F3FC
:10839000891002E0062065F39F50A2682168114011
:1083A00004EB8101C8602068304420609DF8000023
:1083B000FEF7C4FE4846BDE8F8830000EC34002018
:1083C00030B482680468531C8360A154D0E9011260
:1083D0008A4202D330BC01F070B930BC7047000053
:1083E000034803C8814201D1012070470020704733
:1083F000EC34002000780221FFF7CEBD05494FF094
:10840000FF32082841F8202002D3084480F8482091
:10841000704700003C310020F0B54FF0FF3512B13D
:108420000023082601E008230C260C4C05E000BFC1
:1084300054F823707F1C04D05B1CB342F8D3284649
:10844000F0BD26185DB286F8305044F82310002A9B
:10845000F5D1E11881F84800F1E700003C31002037
:108460000249084490F93000704700003C31002078
:1084700070B5084C050009D010342168002907D0D8
:1084800008682060496828468847F6E70834F4E71A
:1084900070BD000028310020054A012120B10128CB
:1084A00005D19170FFF7E4BF51700020FAE77047E3
:1084B000283100202DE9F05F26484168F1B3DFF84C
:1084C00098B00E688146DBF8004087688078E11B31
:1084D00021F07F45ED1CB0B9DFF880804FF480308B
:1084E000C8F84403C8F804031120FEF7F3F811207C
:1084F000FEF7FBF84FF0010AC8F800A02F2002F0A9
:108500007BF989F802A0B54200D23546124BE81932
:108510003C3320F07F401860DBF800105A46091BFE
:1085200021F07F41001B20F07F40C91C81420FD900
:10853000106818602F2002F05FF900E004E0BDE849
:10854000F05F1120FEF7DCB8BDE8F05F02F05CBF21
:10855000BDE8F09F282B00200415014000100140C9
:1085600073B58CB00646002000900D9880B10024B1
:108570006D4621460DA800F020FE30B1009805EBB5
:10858000400084800098401C0090641C142CF0D3A0
:108590002C2269463046FDF769FF0EB070BD2DE90B
:1085A000F04117880646B81D14460D46984202D978
:1085B0000C20BDE8F0813188072206290AD34FF448
:1085C000486C4FF6FF73614501D9994202D170881A
:1085D000062801D21046ECE7604501D99842F9D14E
:1085E000994203D0984201D08142F3D80520E85542
:1085F00020881221401C80B2208029542088401CF1
:1086000080B220804119308803F07EFC2188084424
:1086100080B220804119708803F076FC21880844DC
:1086200020800020C5E7FEF70BBC000038B54A7A71
:108630000F4B62B100220A725969002906D001224B
:108640008DF80020ADF802006846884738BD0A7AE8
:1086500062B19B684C68024619462046FEF760FCF2
:108660000028F3D0BDE8384002F0F4BF5B68F1E7C2
:1086700094300020F0B587B0074600200490ADF894
:1086800010100590ADF812100190029001AA04A9F3
:10869000384690DF060022D002F054F8114C034611
:1086A000012520883A4605EB00400F4901F021FCE6
:1086B000BDF8042012B9BDF8060038B12088BDF815
:1086C000063005EB004009A101F013FCBDF80820BD
:1086D0002AB12088154905EB004001F003FC07B0E2
:1086E0003046F0BDE82B002024C502005468652008
:1086F0007265717565737465642054582F525820E3
:108700007061636B6574206C656E67746820697353
:1087100020746F6F206C6F6E672062792025752F33
:108720002575206F63746574732E000070C5020098
:108730002DE9F0470025DFF88C803CE060680021DF
:1087400000EBC506012032789146FDF77CFED4E9A6
:10875000062300EA020701EA030C57EA0C0728D0B7
:1087600082438B434846C4E9062302F007F9327876
:108770008246914601200021FDF765FED4E90423DD
:1087800000EA020401EA03074A4650460021FDF7C9
:108790005AFE44404F403C430BD17078012801D031
:1087A000012100E00021726881EA0A010AB148460D
:1087B00090476D1CEDB298F8000044468542BDD349
:1087C000BDE8F087082B002010B50021024800F01A
:1087D00020FD80F3100010BD083900200E4910B5AF
:1087E0000A784C780023A24212D0521CD2B20A70EE
:1087F000022A00D10B70084A0B780C3252F8232061
:1088000002608868104420F07F408860012010BD1D
:108810000360002010BD0000282B002030B5044666
:10882000006887B00D46806800281FD01821684670
:10883000FDF735FE0195A0680590207910B101285B
:1088400010D107E001208DF8000020690290E06857
:10885000039005E002208DF80000E068000302901C
:1088600060690490206881686846884707B030BD19
:10887000826883881A4003689A5C0A708168491C80
:1088800081607047C26883881A4003689954C16840
:10889000491CC160704770B50D460446B0F8981089
:1088A000D0F894000122FEF7D0FD00B1057004F16C
:1088B0003C0204F1940104F1540072DF70BD10B564
:1088C0000446C0B2FEF7ECFB204610BD0B484A88B8
:1088D00043889A4211D10A88A2F52063773B0CD1D4
:1088E0008988C91E8AB28280054803211346008800
:1088F00001EB004003A101F0FCBA7047A02A002060
:10890000182C002044617461206C656E206973200E
:1089100073657420746F20307825582825642900E9
:1089200010B50949094800F0F5FC08B1FEF788FACE
:10893000F721064800F0E2FC002803D0BDE8104013
:10894000FEF77EBA10BD0000CD8802001C2F00206B
:108950002DE9F0418046024601200021FDF773FD1C
:108960001A4F05460E467868FEF71EFB00280CD10C
:10897000174CD4E9062110462A4001EA06031A439F
:1089800005D0A843B143C4E90601BDE8F0814046E3
:1089900001F0F4FF30B1D4E9040128433143C4E9C4
:1089A000040105E0D4E90410A943B043C4E904106C
:1089B000D4E9060128433143C4E90601A168786877
:1089C000BDE8F0410022FEF7ABBA000024C202006D
:1089D000082B00200146034802888A4200D000206C
:1089E00070470000803000202DE9FC5F0E008346B8
:1089F000DDE90C47C6F1000098469246814600D456
:108A00000846012503E000BF90FBFAF06D1C5045BD
:108A1000FADAA84500D9454624B1002E01DB7807D3
:108A200000D5641EB80702D5B8F1000F0AD0F807C8
:108A300008D13CB1A54205D220215846641EFFF75B
:108A4000BFFCF6E7002E02DA4E462D2102E0780741
:108A500003D52B215846FFF7B3FC07F0030002288B
:108A60000BD1B8F1000F08D13CB1A54205D230219D
:108A70005846641EFFF7A4FCF6E7CDE900474346DD
:108A800052463146584603F045FABDE8FC9F0000C7
:108A900070B50D46044600684FF4887101F072FE0F
:108AA0004FF49071206801F06DFE4FF492712068D0
:108AB00001F068FE4FF4A271206801F063FE2068A7
:108AC0001249C0F8041320686907000B40B2090E70
:108AD000002806DA00F00F0000F1E02080F8141DF5
:108AE00003E000F1E02080F8001420680121000B71
:108AF00040B200F01F0291404009800000F1E020E8
:108B0000C0F88012C0F8001170BD00001003020010
:108B1000024600201268930702D0530702D4704720
:108B2000500714D502F00300012802D002280CD10E
:108B300005E0C2F383100B68801C184404E0022394
:108B4000086803EB925210440860012070470868DF
:108B500000EB9253C2F38910401CEEE7F0B5848815
:108B6000A518944200D82246A41AC288D6189A4260
:108B700000D81346D21A4B880788BB420CD34088D2
:108B8000834209D88888A04206D3A84204D8C8885E
:108B9000904201D3B04201D90020F0BD0120F0BDC8
:108BA0000A4810B5807860B1002401E0022C06D09C
:108BB0002046FFF781F9641C042CF7D310BD032471
:108BC000F6E7BDE81040FFF797B90000CC2A002077
:108BD00003480179C90702D00078FFF7C9BA704786
:108BE000CC2A0020F721018017214180002101714A
:108BF0004171FB2181711B21C17170472DE9F04743
:108C0000394E002780463D46DFF8E090D6F804A0B4
:108C100057E003D00446D0F81C8035E099F80020D6
:108C200002EB4201521CD2B289F8002009EBC101CB
:108C300099F80230091D9A4201D189F8005048681C
:108C40000A780446012A12D0022A02D0032A3BD114
:108C500008E002F07BFE00B10127257434E00574C2
:108C6000C06900E070680028F9D170602CE0207CB9
:108C700050BB88686060C868A0600869E0604869A7
:108C8000A061F07800B165606268B168184B501A55
:108C900020F07F40984202D2A168084406E0881A7A
:108CA000A16820F07F40814202D9081A206000E0CC
:108CB000256065600120A56020742046E56102F012
:108CC00027FEB8F10000A4D199F8001099F801002E
:108CD0008142A3D117B97168514502D00120BDE886
:108CE000F0870020FBE70000282B0020083200203E
:108CF000FFFF7F002DE9FF410026234800F075FAB1
:108D00002148001F074600F070FA204C6068009070
:108D1000A56800E000986946284004EB80000C300C
:108D2000FFF7F6FE0028F5D101AA009901EA050334
:108D300004EB8303491CDB6842F82030401C00919F
:108D40000228F2D3019800F0030001280BD002287A
:108D500010D10198032101EB90500099BDF80A60F1
:108D600001EB900005E00198BDF80A60C0F38310A4
:108D700008440090384600F035FA08B10098606069
:108D800004B03046BDE8F08104390020EC34002006
:108D9000ACB018226E496846FDF768FB6D48069036
:108DA0006D494FF48070CDE90701099007236B4AA4
:108DB00006A96846FEF722F908B1FEF741F84FF41C
:108DC0000041002001F0F4F808B1FEF739F800F096
:108DD00067FFFEF77BF808B1FEF732F86049032021
:108DE000FFF77CF908B1FEF72BF869460020FFF782
:108DF000A7F808B1FEF724F801F0F8F908B1FEF77A
:108E00001FF801F0CFFB08B1FEF71AF800246946FD
:108E10000120009401F02CFA08B1FEF711F8684621
:108E200001F0D0FA08B1FEF70BF89DF808004DA14B
:108E300020F00F00401C20F0F00010308DF80800EA
:108E40000B2202A87CDF08B1FDF7FAFF0094102086
:108E5000ADF800003C200194ADF80200ADF80440EC
:108E60004FF4C870ADF8060068467ADF08B1FDF728
:108E7000E7FFFFF755FD3E48019001A93D4800F08E
:108E80000AFB08B1FDF7DCFF3B48009069463B4810
:108E9000FEF758FF08B1FDF7D3FFAC216846FDF798
:108EA000FEFA02208DF800008DF8024005208DF8B2
:108EB00003000120ADF84C0030498DF87C004020C3
:108EC000891F2290149144F2506023902C482990DD
:108ED000284869460C30FEF7E7FA08B1FDF7B0FF05
:108EE000244801210C30FEF7DCFA1C216846FDF70E
:108EF000D6FA4FF42030CDE900404FF470200290B4
:108F000020480590032520488DF80C500690ADF8B8
:108F10000E408DF810406846FEF7C8FC08B1FDF71A
:108F20008FFF1AA0FDF79CFE1D481EA1008805EBCF
:108F3000004000F0D3FF0F4803210C30FEF79BFBED
:108F400008B1FDF77DFF00F0B9FE01F063F9FAE723
:108F5000A4C102001C2D00201C2E00207DBB02009D
:108F6000358002004E6F726469635F554152540050
:108F700059A20200302F002021AF0200AC2A0020AD
:108F8000B1AF0200D5AF0200278602000D0A55419D
:108F9000525420737461727465642E0D0A000000CF
:108FA000182C00204465627567206C6F6767696ED6
:108FB0006720666F722055415254206F766572208B
:108FC00052545420737461727465642E0000000062
:108FD00070B5144682880E4605462088111D01444E
:108FE000921C994201D8FE2A01D90C2070BD521C56
:108FF00032542088FF21401C80B2208031542088C8
:10900000401C80B220808119288802F07DFF2188D1
:10901000084480B22080AA8842B1A96841B1304496
:10902000FDF724FA2088A98808442080002070BD1C
:10903000072070BD2DE9F047C7880446181D164665
:109040008946B0FBF7F1B0FBF7F207FB12009A1963
:109050003A44D21CB2FBF7F2DDF820A001E024680C
:10906000491E0029FBD13D1A8846B54216D818E0A2
:10907000BAF1000F05D0211809EB08002A46091D96
:1090800004E0204409EB08012A46001DFDF7EEF933
:1090900000202468761BA844B74201D9354600E079
:1090A0003D46002EE4D1BDE8F087000030B5024611
:1090B00059B100F0A9FF0021074C09E004EB81033E
:1090C00015685B88AB4202D11160002030BD491C9D
:1090D0008142F3D3052030BDE82B0020F8B50F46C0
:1090E000017814460546012901D1687830B12088FD
:1090F000821C9A422DD8012902D006E00720F8BD33
:1091000069780144891C994223D8181A801E86B2B6
:10911000ADF800602188B81C084469467DDF00284E
:10912000EDD12878022805D1BDF80010B14201D850
:1091300009210AE00821012805D16878B04202D847
:10914000ADF8000001E0ADF80060BDF80000FE28B9
:1091500001D90C20F8BD2288401CB8542088401C3E
:1091600080B2208039542088401C2080BDF8001037
:10917000084420800020F8BD10B50A8849888A423A
:1091800003D1FDF789F8012010BD002010BD70B596
:109190000C460546FDF763F8002802D06188286870
:1091A000084470BD01F01F0301229A40D2434909CF
:1091B00000EB8100114600F021B84A0950F8220066
:1091C00001F01F0201219140084000D001207047AA
:1091D00001F01F0301229A40490900EB810011466A
:1091E00000F01CB8002100F00FB8012100F016B803
:1091F00008B56A46FDF7A5F8009808BD08B56A46A7
:10920000FDF785F8009808BD08B56A46FDF77FF8B8
:1092100008BD08B56A46FDF761F808BD08B56A469D
:10922000FDF768F8009808BD08B56A46FDF796F89E
:10923000009808BD38B5044600258DF800506846F2
:10924000FDF758FF21686268086890420ED9401EF9
:1092500008600178A38AE26801FB0325227A21686D
:10926000101AC0B20A79824200D208719DF800003B
:10927000FDF764FF284638BD38B5054600208DF857
:1092800000000C466846FDF735FFE868A98A201AF9
:10929000B0FBF1F12A681068431C136001709DF85F
:1092A0000000FDF74BFF38BD10B530B1017A4268C0
:1092B0000368891AC9B21A6006E00E2010BD03685F
:1092C0001A68541C1C601170491EC9B2F7D200689C
:1092D00000210171084610BDC20800F007030120FB
:1092E000895C98400840704710B5C20800F0070339
:1092F000885C01249C402043885410BD28B1A1F112
:109300001702E12A03D3072070470E20704701801F
:109310000020704710B560B10161F72120F8021BF1
:1093200020F8021BFB2100F8021BFFF75BFC00206A
:1093300010BD0E2010BD0000F0B5858893B00C461E
:10934000002D39D1018800263E4F24293BD006DC70
:10935000102909D011290CD0232958D14FE03A29DE
:109360000BD0552953D129E00146204601F076FE65
:109370004DE0A01DFFF736FC49E02246408934F855
:10938000061F814200D808466080172800D21720A7
:109390006080106970B1607960B1D7E90001CDE9F2
:1093A0000301ADF80E506088ADF81000136903A9F1
:1093B000104698476671267113B0F0BD01462046ED
:1093C00001F09CFE23E0011D2C2206A8FDF74EF8BB
:1093D000BDF81800BDF81C2004EBC0014A732269D7
:1093E000AAB1D7E90423CDE90423ADF81200487BE4
:1093F0008DF814002269204604A9904707E0017AFD
:10940000207B884200D201462846FFF733F9A07A34
:109410000028D1D0E1882846A5DF012570B11128A8
:10942000CAD001F08FF90246074808A1008813B09E
:1094300005EB0040BDE8F04000F054BDA672E572B7
:10944000BAE70000F0C10200E82B002073645F62FD
:109450006C655F67617474635F65786368616E678C
:10946000655F6D74755F7265717565737428292009
:1094700072657475726E65642025732E000000009D
:1094800020B10278DE2A03D0082070470E207047F2
:1094900041800020704760B159B10278DE2A0AD0BD
:1094A00009684160DE2101704FF6FF7141800020A4
:1094B00070470E207047082070477FB50546002989
:1094C0004DD0002D4BD008780C46DE2847D1A88817
:1094D0006188884202D1204602F0B6FD2888012822
:1094E00025D002283BD011283AD0512837D135F861
:1094F000040F6188884232D1A978A81C02292ED194
:10950000017A042903D0062901D0052927D1002199
:10951000009102228DF8002001914FF4C072029157
:109520000391ADF80420007A05280FD010E0297AC5
:109530002046012913D1A988428891420FD10121E7
:10954000017204B0BDE8704002F07EBDADF80410B9
:1095500028886946B0DF002801D0616888477FBD50
:10956000A88861888842FAD14FF6FF7060807FBD7D
:1095700000F180400068002800D00120704708B545
:1095800000F18040002101600068009008BD0000EB
:1095900070B50B4C207808B185250FE00020A06045
:1095A00060602061E060074801F008F9054601F0BD
:1095B00053F808B901F0ECF801202070284670BD7E
:1095C000283100209984020038B500258DF800501C
:1095D0006846FDF78FFD074CE068401EE060E068DC
:1095E00010B901F0FBF8A5709DF80000FDF7A6FD8D
:1095F00038BD000028310020F0B505460478154834
:1096000089B0164640F82420124A0869121DA2F1BA
:10961000080742F82400487F385520226846FCF7A6
:1096200025FF04942878385C48B10EB10A4A00E05E
:1096300000226946281D01F065FB09B0F0BD0EB19E
:10964000064A00E00022694605F10C0001F010FA1C
:10965000F3E70000F02A0020E5BD02008DBC020007
:1096600030B40378054CE35C1BB130BC001D01F045
:109670007FBB30BC0C3001F065BA0000EC2A002042
:1096800030B40378054CE35C1BB130BC001D01F025
:10969000F1BB30BC0C3001F0CBBA0000EC2A00204A
:1096A0000FB408B50399002904D004AA00926A46B1
:1096B00000F00FF801B05DF814FB10B582680446A5
:1096C000002A05D0D4E90403216898470020A0604F
:1096D00010BD2DE9FC4791460C00804676D014F869
:1096E000011B39B125290ED04046FEF769FE2078CE
:1096F0000028F4D198F80C00002867D04046BDE857
:10970000FC47FFF7DABF0020012221782B291BD06C
:109710002D2902D0302908D102E040F0010001E0FB
:1097200040F00200641C002AEFD100252A290ED047
:109730002178A1F130020A2A11D205EB850201EB52
:109740004205641C303DF1E740F00400EAE7D9F837
:1097500000100B1DC9F800300968641C0D44217805
:1097600000232E290BD114F8011FA1F130020A2A7F
:1097700005D203EB830201EB4203303BF3E76C2994
:109780000DD068290BD0692921D00BDC252918D0F0
:10979000582931D063290ED0642915D117E014F867
:1097A000011FECE7702969D0732932D075291BD0CD
:1097B000782909D120E0D9F80000011DC9F800106E
:1097C00001784046FEF7FCFD641C90E76CE0D9F898
:1097D00000100A1DC9F800200968CDE900500A22CE
:1097E0004046FFF701F9EFE7D9F800100A1DC9F864
:1097F000002009680A2206E0D9F800100A1DC9F8FD
:10980000002009681022CDE90050404602F082FB9A
:10981000DAE7D9F8001000270A1DC9F800200E6801
:10982000C00705D112E04046761C7F1CFEF7C8FD3C
:1098300031780029F7D104E0202140466D1EFEF763
:10984000BFFDBD42C0D9002DF6D1BDE74EB13046B7
:10985000FCF730FE074604E0202140466D1EFEF76F
:10986000AFFDBD4206D9002DF6D103E04046761C7F
:10987000FEF7A6FD31780029F8D1A5E7D9F8000058
:10988000011DC9F80010056830214046FEF798FD1B
:1098900078214046FEF794FD08200021CDE9000123
:1098A000034610222946B0E7BDE8FC872DE9F041C8
:1098B00028B1016819B1C969BDE8F04108470D4DEB
:1098C0000D480024461B14270DE000BF04EB840064
:1098D00005EB8000016829B1C969884710B10120F2
:1098E000BDE8F081641CB6FBF7F0A042EED8002082
:1098F000F6E700000000000000000000044801211D
:109900004174007A08B100207047012070470000C0
:10991000CC330020012801D0032808D104490022BB
:1099200001284A7400D00020087401F01DBD704762
:10993000CC33002070B50246022801D0032A45D15D
:10994000234C207A002841D0012833D0022831D17D
:1099500020480023022A006802D0032A2AD11BE0F3
:10996000E360017911B1012924D10DE0D0E9056549
:10997000711B4FF48056B14200D3314629448161B6
:109980004569A9420ED015E00169491C016142698F
:1099900091420FD1237213E0E168491CE16008296C
:1099A00008D9E3602372022A0AD00D21FEF736FFA0
:1099B00001F0D0FC607C28B1BDE8704000F052BEE0
:1099C0000021F3E7BDE8704001F0CEBC70BD00009F
:1099D000CC3300206C2B002070B541EA4201DDE958
:1099E00004564FF0A04441EA830141EA052104EB0B
:1099F000800041EA0641C0F8001770BD70B541EA29
:109A00004201DDE904564FF0A04441EA830141EAF6
:109A1000052104EB800041EA0641C0F8001770BD43
:109A200070B541EA4201DDE904564FF0A04441EA35
:109A3000830141EA052104EB800041EA0641C0F8B8
:109A4000001770BD70B541EA4201DDE904564FF0E0
:109A5000A04441EA830141EA052104EB800041EA88
:109A60000641C0F8001770BD1CB500220B460092DD
:109A700011460192FFF7D4FF1CBD1CB500220B4616
:109A8000009211460192FFF7DDFF1CBD1CB50021BD
:109A900000910B46012201911146FFF7C1FF1CBD49
:109AA0001CB5002100910B46012201911146FFF7E0
:109AB000C9FF1CBD4FF0A04202EB8000D0F8002788
:109AC00022F44032C0F80027D0F8002742EA0141D2
:109AD000C0F80017704701224FF0A043824011B137
:109AE000C3F808257047C3F80C25704718B5084B14
:109AF0006C4601441B68009306E000BF54F8203018
:109B0000D3F81035401C08C28142F7D818BD0000B8
:109B100018C20200034908B508440021016000682A
:109B2000009008BD0060004002494058012800D064
:109B3000002070470060004030B5124B0146002005
:109B4000D3F81044224609E0157A854205D1401C1D
:109B50000A28F7DB4FF0FF3030BD5268002AF3D1FE
:109B6000421CF9D00872D3F810242AB152684A6016
:109B7000D3F81024516030BD0022C3F810144A609D
:109B800030BD0000EC3400207047FCF713BE704776
:109B900008B5034A00924023024A00F005F808BDC8
:109BA00065B60200EC330020F0B595B01C461546B2
:109BB0000F4608461A9E00F0F7FA182109A8FCF78C
:109BC0006EFC0E96CDE909540023082203A93846FD
:109BD00000F0FFFA05980690BDF81000ADF81C00E3
:109BE000BDF81200ADF81E0000208DF8210003988A
:109BF000082600F00300012802D0022818D032E025
:109C000003983346850AC0F3C2008DF820000398FC
:109C10000FA9C0F38314A200384600F0DAFA09A8AD
:109C2000009006AB22460FA9284600F019FA1AE068
:109C30000398840DC0F3C2008DF82000082C01D2D7
:109C4000254600E0082533462A460FA9384600F08D
:109C5000C0FA2E44641B09AB06AA29460FA800F0DF
:109C600051F9002CEAD1384600F0A4FA15B0F0BD45
:109C70000A4A012902EBC00007D0022907D00329B4
:109C800007D0042907D00020704702207047042025
:109C9000704700797047407970470000B4CC0200EB
:109CA00010B5FFF772FF04210348FFF745FF024993
:109CB0000120487210BD0000842B00202DE9F04FD8
:109CC0008DB0FEF78DFB18B100200DB0BDE8F08F10
:109CD0007A4C4FF0000BC4F818B4BFF34F8F606894
:109CE0000290A568D846284004EB800008E021686F
:109CF0000298814201D86160E6E7284004EB8000C9
:109D00000C3002A9FEF704FF0028F0D105AA029941
:109D100001EA050304EB8303491CDB6842F82030A9
:109D2000401C02910228F2D3059800F0030002289B
:109D300002D001284ED0A9E005985022810D894615
:109D4000B2EB905F00D850210E4666F39F5005900D
:109D500008315B4800F0DFF9070079D000F024FA01
:109D60004346082205A9384600F039FA029908F15D
:109D7000080A2940681A8000001D864223D94F4DE9
:109D80000C3530B1C2B204EB8101301A90460C316F
:109D900004E02946F2B2002590462846C6B2534652
:109DA000384600F01CFA0AEB08032DB1324629466A
:109DB0004FEA070000F013FA029909F1030001EBE2
:109DC000900002903BE004EB810153463246384656
:109DD0000C31EFE70598C0F38310062800D3062066
:109DE000059960F38911C1F38310801C05918100EE
:109DF000334800F090F9070048D000F0D5F9434609
:109E0000082205A9384600F0EAF908F108080026FA
:109E10000FE00298434600EA0501401C04EB810173
:109E20000290042238460C3100F0D9F908F10408F8
:109E3000761C0598C0F38310B042EAD847B1D4F835
:109E40001054D4F8180468B1384600F0B3F92FE084
:109E50001CE0687A012804D12A682846394612682D
:109E600090476D68002DF4D1384600F0A3F98DF8C5
:109E700000B06846FDF73EF9D4F8180408B9029816
:109E800060609DF80000FDF759F911E0D4F8104426
:109E900004E021682046896888476468002CF8D16E
:109EA00008480221008801EB004007A100F016F8E5
:109EB000FEF796FA80F0010007E70000EC3400207E
:109EC00034CD0200182C00204261636B656E647310
:109ED00020666C75736865640000000000231A46F4
:109EE00001F090BC08B5012300926A4601F08AFC9B
:109EF00008BD1CB5CDE9002302236A4601F082FCAF
:109F00001CBD00002DE9F0470E4680461C469246D7
:109F100008293ED894F80C9000202073194610466A
:109F200001F0C0F90025B54206D218F805201AA1A3
:109F30002046FFF7B5FB03E019A12046FFF7B0FB71
:109F40006D1C082DEFD317A12046FFF7A9FB0025B4
:109F5000B54210D218F80570FCF784FA0068C05DAD
:109F600010F03E0F01D03A4600E02E220EA120460E
:109F7000FFF796FB03E00DA12046FFF791FB6D1C58
:109F8000082DE5D301222146504601F06DF984F8F1
:109F90000C90BDE8F08700002025303278000000EA
:109FA000202020007C00000025630000200000002D
:109FB000104810B5FF218160002101604160C0F8A8
:109FC0001814C0F8141480F820140B4800F0F0F8AE
:109FD00000280DD109480A490A4B401AC10800203F
:109FE00003E000BF23F82000401C8842FAD3002081
:109FF00010BD0000EC34002034CD020034CD02004E
:10A00000B4CC0200E82B002002480349401AC008E3
:10A010007047000034CD0200B4CC020013B568468E
:10A02000FFF744F808B100201CBD0248009950F821
:10A0300031001CBDB4CC020070B508480125D0F831
:10A04000104480F8205405E0657221682046496874
:10A0500088476468002CF7D170BD0000EC34002004
:10A060002DE9FF4781460C9D00200C462F7B28736D
:10A07000984616462946184601F014F9072E42D292
:10A08000DFE806F004090F161F2A36004946284665
:10A09000FFF706FB37E0494628462268FFF700FB3A
:10A0A00031E0D4E9002349462846FFF7F9FA2AE0CF
:10A0B000A0680090D4E9002349462846FFF7F0FA4B
:10A0C00021E0D4E90201CDE90001D4E900234946A9
:10A0D0002846FFF7E5FA16E004F1080007C88DE806
:10A0E0000700D4E9002349462846FFF7D9FA0AE0D9
:10A0F00004F108000FC88DE80F00D4E90023494699
:10A100002846FFF7CDFA00222946404601F0ACF878
:10A110002F73BDE8FF872DE9F041858A80462D1F0A
:10A120004819C01CB0FBF5F0C6B24046FFF782F8F4
:10A13000040019D00020207101206071E580002703
:10A140002546761EC4F800800BE04046FFF772F803
:10A1500060B16179491C6171286005467F1CC0F8B7
:10A160000080B742F1D32046BDE8F081204600F0E0
:10A1700002F80020F8E72DE9F041457901466B1E11
:10A18000002201E00968521C9A42FBD30F68014685
:10A19000002605E038460C68FFF76EF82146761C6D
:10A1A000AE42F7D3BDE8F0810121001DFFF720B8D2
:10A1B000FFF77AB810B504460121001DFFF734F807
:10A1C00010F0FF0F04D12046BDE81040FFF7D3BFC9
:10A1D00010BD38B501240094FEF72CFF38BD38B50A
:10A1E00000240094FEF726FF38BD0000064910B594
:10A1F00000204870091D0860BFF35F8F03490448C1
:10A2000000F05CFA002010BD742B002090C2020008
:10A21000E033002008B500208DF800006846FCF708
:10A2200069FFF1EE100A20F09F00E1EE100ABFF383
:10A230005F8F08494020C1F880029DF80000FCF7BC
:10A240007DFF00F009FA08B141DF08BD20BF40BF23
:10A2500020BF08BD04E000E0FCF7F2BD20B10349D7
:10A2600009680160002070470E20704770C402002A
:10A270002DE9FE4306460D460846FFF7EFFF00288E
:10A280007ED18046CDF80080CDF8048001240620E0
:10A290008DF80060ADF80400CDF808808DF802401C
:10A2A000694620202A6869DF3F4F40B100F04AFA32
:10A2B000024638883D4904EB0040FFF713FECDF815
:10A2C00000808DF801408DF80280CDF80480CDF833
:10A2D00008808DF80380694640202A6869DF40B114
:10A2E00000F030FA02463888314904EB0040FFF7AD
:10A2F000F9FDCDF800808DF80060F720ADF8020080
:10A30000CDF80480CDF80880694623202A6869DFEB
:10A3100040B100F017FA02463888264904EB0040A5
:10A32000FFF7E0FDCDF80080CDF80480CDF808807F
:10A330008DF800404646694601202A6869DF40B131
:10A3400000F000FA024638881B4904EB0040FFF792
:10A35000C9FD4FF4B0600090019602966946A120B5
:10A360002A6869DF40B100F0EDF9024638881349E8
:10A3700004EB0040FFF7B6FD00960196029600E060
:10A3800010E08DF800606946A0202A6869DF40B1BE
:10A3900000F0D8F902463888094904EB0040FFF77D
:10A3A000A1FD0020BDE8FE83202C002010CB020080
:10A3B00058CB0200A4CB020070CA0200BCCA020043
:10A3C0001CCA02002DE9F0410446D0F8008060DF8D
:10A3D0002168194D074641451CD92888022606EBFD
:10A3E000004016A1FFF77AFD2888424606EB0040A0
:10A3F0001EA12368FFF77DFDF006D0F80C0121684F
:10A40000800200F10050421A288825A106EB004086
:10A41000FFF768FD012467B1384600F093F9024662
:10A4200028882AA104EB0040FFF75CFD3846BDE810
:10A43000F0812E480470F9E7202C0020496E7375D6
:10A440006666696369656E742052414D20616C6C6B
:10A450006F636174656420666F7220746865205351
:10A460006F66744465766963652E00004368616EAB
:10A470006765207468652052414D20737461727461
:10A48000206C6F636174696F6E2066726F6D20302F
:10A4900078257820746F20307825782E0000000011
:10A4A0004D6178696D756D2052414D2073697A65F3
:10A4B00020666F72206170706C69636174696F6E81
:10A4C00020697320307825782E00000073645F6265
:10A4D0006C655F656E61626C6528292072657475B4
:10A4E000726E65642025732E00000000E32B0020AF
:10A4F00030B51548ADF5017D0078002821D04FF426
:10A50000FA7500BFADF8005280A9684661DF38B126
:10A51000052816D00DF5017DBDE83040FCF790BC54
:10A520006C460A497DA800F0C9F806E0D0E9002190
:10A53000204690477DA800F0D8F87F980028E1D009
:10A54000F4E70DF5017D30BDE32B002074C402005B
:10A55000F8B5134C2078C0B10120A07001F04CF880
:10A56000112814D0022001F05FF800258DF800506A
:10A570006846FCF7BFFD11DF064625709DF8000018
:10A58000FCF7DCFD2EB13046F8BD0820F8BD0020F8
:10A59000F8BDA57001F0F2F8032001F045F8F6E7E8
:10A5A000E02B00207CB5204C207808B108207CBD31
:10A5B0000120A070002001F01FF8112819D0002000
:10A5C00001F032F819480026006801908DF800600B
:10A5D0006846FCF78FFD164901A810DF05000AD078
:10A5E000002020709DF80000FCF7A8FD2DB1284642
:10A5F0007CBD00207CBD0120F3E7A67066700721BA
:10A60000162000F0B0FF08B1FCF71AFC0721152056
:10A6100000F0A9FF08B1FCF713FC01F0CBF8012012
:10A6200001F002F8E5E70000E02B002008C402007A
:10A63000C56D02000EB50749684600F03FF805E019
:10A64000D0E900108847684600F04FF802980028CB
:10A65000F6D10EBD24C40200014800787047000006
:10A66000E02B00200548817819B1007818B1FFF778
:10A670006FBF08207047FFF795BF0000E02B002058
:10A680001FB568464BDF30B1052814D004B0BDE8D3
:10A690001040FCF7D5BB084901A800F00FF806E010
:10A6A000D0E900210098904701A800F01EF8039817
:10A6B0000028E6D0F4E71FBD90C4020001600968DD
:10A6C0004160AFF3008010B5D0E900215368994292
:10A6D00001D1002104E0D1E90034A34202D019469F
:10A6E000816010BD08314160F0E7816800290BD01E
:10A6F000026892680A44826041684B689A4203D1BA
:10A7000008314160FFF7DFBF704700000C4A10B509
:10A7100002F594730EE0991AC91001EBD17149103A
:10A7200002EBC1010C68844201D90B4602E005D25C
:10A7300001F108029A42EED3002010BD486810BD16
:10A74000B0C2020000B5FFF7E1FF002800D10148C8
:10A7500000BD00009CC202004058002800D001202B
:10A76000704708B5002242504058009008BDD0F80C
:10A770000403084000D0012070474058002800D052
:10A780000120704708B5002242504058009008BD93
:10A7900008480068012110F0010F08D14FF0E020B7
:10A7A000E02280F80024C0F88012C0F800110248AE
:10A7B0000160704700E100E01805004006490246CC
:10A7C00000200B790BB1852070470A6001220A71C5
:10A7D00000224A7170470000F82A00200449012035
:10A7E000086004480168C1F300410029FAD17047AC
:10A7F0000C00004018040040002802D001498001EC
:10A800000847704731C202002DE9F04188460546ED
:10A8100000F012FD234E002828461AD0FDF720FE36
:10A82000304490F848008009032802D001280ED057
:10A8300007E04FF0A040D0F81005E84010F0010FFD
:10A8400005D003212846BDE8F041FFF733B90221C6
:10A85000F8E700F0FDFC002822D02846FDF700FEB6
:10A8600004464FF4807000EB84000F4F81B207EB79
:10A870008400D0F8102542F00102C0F810250846E7
:10A88000FFF748F9B8F1000F0AD02846FDF7E8FDB8
:10A8900056F82000002803D00120A040C7F8040388
:10A8A000BDE8F0813C310020006000402DE9FC4112
:10A8B000DFF8BC80044608EB0400002790F9300064
:10A8C0001346C0170E46401C01D008274CE0B07854
:10A8D0001946C0F340022046FDF79EFD0546401C88
:10A8E00041D0B078410719D4C0070AD04FF0A0403A
:10A8F00000EB8401D1F8000720F00200C1F8000746
:10A9000007E000217378204600910A460191FFF785
:10A9100075F8174920465431FEF7E6FCB0788007F9
:10A9200018D51448317800EB8500D0F81025124B6B
:10A930001A40C0F810254FF4F8524FF4403302EAA1
:10A94000042203EA01410A43D0F810150A43C0F873
:10A95000102509E008EB0500327810F8481F41EA9D
:10A960008211017000E004273846BDE8FC81000038
:10A970003C31002000600040FFE0FCFF4FF0A041B0
:10A98000D1F81015C14011F0010000D0012070472E
:10A9900070B5184D95F8580008B1082070BD00201A
:10A9A000411E2A18401CC0B282F830102028F8D36B
:10A9B00000242046FDF722FD641CE4B20C2CF8D3E1
:10A9C00000240D49E0206C6581F800040126402038
:10A9D000891FC1F88002C1F800014FF4BE70FFF773
:10A9E00099F80649F007C1F8040385F85860204635
:10A9F00070BD00003C31002006E000E00060004037
:10AA0000034890F85800002800D00120704700004B
:10AA10003C3100200121B1EB507F01D10120704772
:10AA20000020704738B50D4600F088FC040014D0B3
:10AA300000208DF800006846FCF75CFB207928B107
:10AA40009DF80000FCF77AFB112038BD012025603D
:10AA500020719DF80000FCF771FB002038BD00005C
:10AA60000149024801F02AB9983100200020004035
:10AA70002DE9F0410546007916460F4600EB4001EE
:10AA80002D4A01EBC00102EB810494F82A1011B1A8
:10AA90000820BDE8F081294951F820102868FFF707
:10AAA000C1FF08B11120F4E739462846FCF760FBE6
:10AAB00066603869206030004FF001062FD03F7F7C
:10AAC0004FF48E712868FFF74CFE4FF4A27128688E
:10AAD000FFF747FE28681A49C0F8041328684FEAB0
:10AAE0004711000B40B2002806DA00F00F0000F119
:10AAF000E02080F8141D03E000F1E02080F800144D
:10AB00002868000B40B200F01F0206FA02F140096B
:10AB1000800000F1E020C0F88012C0F80011286821
:10AB20000421C0F800150020A061E06184F829002C
:10AB300044F8140FA675ACE7983100201CC202003F
:10AB4000800002002DE9F05F054600794FF40176A0
:10AB500000EB400303EBC000344B03EB8004002008
:10AB6000636813B12B68C3F80863A3694FF0000949
:10AB70006BB1E06938B1606810B12868C0F804634F
:10AB80001120BDE8F09FE2610120216105E0C4F8D9
:10AB90002490A261E160C4F81C9094F8291001434C
:10ABA00002D1284600F0CFFC60680028286803D056
:10ABB000C0F804630020E4E74FF4A2763146FFF7C3
:10ABC000D0FDB2464FF4927B59462868FFF7C4FD8A
:10ABD00006464FF484712868FFF7BEFD8046514653
:10ABE0002868FFF7B9FD074648EA07003043EBD075
:10ABF00056EA070007D12146286800F023FCA16926
:10AC0000606A8142E0D8C4F818900EB10320B8E71A
:10AC10000FB10F20B5E794F8291001200029296809
:10AC200001D00860C6E74860C4E700009831002002
:10AC30002DE9F047054600790B4600EB400101EB9A
:10AC4000C000234901EB8004284600F043F810B10E
:10AC50001120BDE8F0874FF00008C4F82080A36001
:10AC6000626184F828804FF48E7647463146286822
:10AC7000FFF777FD28684FF00109C0F808902146DA
:10AC8000286800F0F1FE606800BBD5F800A00EE077
:10AC900094F8280008B10F2716E031465046FFF718
:10ACA0005BFD0028F4D02146504600F0DDFE216A0D
:10ACB00060698142F1D331462868FFF74DFD0028D5
:10ACC000F9D02868C0F80C90C4F814803846C0E762
:10ACD00098310020007900EB400101EBC0000449ED
:10ACE00001EB80004069002800D00120704700007F
:10ACF000983100200149024801F08CB8C43100208D
:10AD0000002000402DE9F0410546164600790F4627
:10AD1000154A00EBC00102EB810494F8201011B138
:10AD20000820BDE8F081114951F820102868FFF78C
:10AD300079FE08B11120F4E739462846FCF75CFAA1
:10AD40006660386920601EB1397F2846FDF7A0FE95
:10AD500028680821C0F800150020A061E0610121E9
:10AD6000606184F82010DCE7C431002020C20200BA
:10AD70002DE9F05F044600790E4600EBC001DFF8D4
:10AD8000F0A017460AEB81053046FFF743FEB0B14D
:10AD900068684FF000084FF4047910B12168C1F8D9
:10ADA0000893A8694FF0000B80B1E86948B1686862
:10ADB00010B12068C0F804931120BDE8F09F102066
:10ADC000FBE7EF614FF001082E6102E0EE60C5E99C
:10ADD000067B00254FF488712068FFF7D3FC4FF401
:10ADE000A2712068FFF7CEFC2068C0F83465C0F877
:10ADF00038752068B8F1000F12D0D0F8001241F079
:10AE00002001C0F800122079D04600EBC0010AEB07
:10AE10008100406838B12068C0F804932846CCE728
:10AE200001210160EFE74FF4887A4FF4A27951468F
:10AE30002068FFF7A2FC074649462068FFF79DFC03
:10AE400006464FF492712068FFF797FC014647EAE7
:10AE500006000843EBD0227902EBC20308EB830221
:10AE6000C2F818B001B10325002ED7D00F25D5E7C1
:10AE7000C43100202DE9F04704460E4600792049F0
:10AE800000EBC00001EB800517463046FFF7C2FD1E
:10AE900030B1204600F036F820B11120BDE8F0872F
:10AEA0001020FBE76F61AE604FF4907600273146CB
:10AEB0002068FFF767FC4FF4AC7841462068FFF745
:10AEC00061FC2068AA686969C0F84425C0F8481583
:10AED000206801218160686878B9B14649462068D8
:10AEE000FFF74BFC064641462068FFF746FC064349
:10AEF000F4D000B10F27002068613846CEE700008B
:10AF0000C43100200079054900EBC00001EB80004E
:10AF10004069002800D0012070470000C4310020A3
:10AF20002DE9F04105460078002826D10026144F6F
:10AF30004FF0010812E02869805DFCF7B1F80400C9
:10AF40000BD0112CF7D03988224608EB01400DA117
:10AF5000FEF7C8FF2046FBF773FF761CA88AB042B5
:10AF6000E9D8A98A2869084410F8010C0D2804D1F1
:10AF70000A20FCF795F81128FAD0BDE8F08100000E
:10AF8000182C00204661696C6564207265636569F0
:10AF900076696E67204E5553206D657373616765E2
:10AFA0002E204572726F7220307825782E20000096
:10AFB00010B550B103280CD10220FDF783F800280A
:10AFC00007D0BDE81040FBF73BBFBDE8104000F0E4
:10AFD000B5BB10BD0078002807D104483B2140884C
:10AFE00076DF002801D0FBF72BBF7047A02A002096
:10AFF000F0B58BB0002601960D460446898840695D
:10B0000001AAFCF73DF90AA8CDE908600227ADF8CE
:10B010002070ADF82260218AA88808AAADDF002838
:10B0200019D1A069002816D00998FCF7EFFE002876
:10B0300011D0019E0EB101203070182102A8FBF73B
:10B040002EFA8DF808700394A888ADF810000596C4
:10B05000A16902A888470BB0F0BD000070B58D88CB
:10B06000027900EBC5042273C97BA41D012902D01B
:10B07000022904D101E0008800E040882080218876
:10B08000608881420FD92846A5DF0126A0B111288A
:10B0900014D0FFF757FB02460A480BA1008806EBC5
:10B0A0000040FEF71FFFA179E079814208D92846C8
:10B0B000BDE87040FDF7DEBA6671F4E72671F2E78D
:10B0C00070BD0000E82B002073645F626C655F67F1
:10B0D000617474635F65786368616E67655F6D74E2
:10B0E000755F726571756573742829207265747552
:10B0F000726E65642025732E000000007CB5064644
:10B100008D88C88806EBC504A41D172800D2172017
:10B110002188814200D80846608000202071218863
:10B120002846B5DF50B1FFF70DFB02460E4801215E
:10B13000008801EB00400DA1FEF7D4FE60790028E5
:10B1400010D1306900280DD01449D1E90201CDE9B0
:10B150000001ADF802506088ADF80400326969461C
:10B16000304690477CBD0000E82B002073645F628E
:10B170006C655F67617474735F65786368616E673F
:10B18000655F6D74755F7265706C792829207265D2
:10B190007475726E65642025732E0000F0C1020084
:10B1A000F0B587B00C4605468E1D8988406906AA11
:10B1B000FCF766F818216846FBF771F90195A0883D
:10B1C000069AADF80800039231882B89002704F114
:10B1D0001200994202D17389022B0DD0AA899142A3
:10B1E0001ED1A96900291BD08DF8007004907089C8
:10B1F000ADF81400A96911E0002A11D0FCF706FE91
:10B2000020B1069901200870022002E0069807701C
:10B2100003208DF80000A969002901D068468847FD
:10B2200007B0F0BD0068012803D0022801D000203B
:10B2300070470120704700000449084490F930002D
:10B24000082801DB01207047002070473C310020B6
:10B250000449084490F93000082801D201207047C1
:10B26000002070473C31002010B50C46017A0529BA
:10B2700008D0407A38B1084808A102682046FEF795
:10B280000FFA00E01AB106A12046FEF709FA20469F
:10B29000BDE81040FEF711BABC2B0020257300005A
:10B2A0000D0A000038B5C3880D46044633B114A01A
:10B2B000009015A216A12846FEF7F2F9217A052979
:10B2C0001CD0607A48B1A088FEF7D2FC164951F82C
:10B2D000202016A12846FEF7E3F9A0880021FEF7FA
:10B2E0009DFE03461049207A143951F8202001B000
:10B2F0002846BDE830400EA1FEF7D2B938BD0000A7
:10B300001B5B306D000000001B5B313B33316D0077
:10B3100025734C6F67732064726F707065642028AA
:10B3200025642925730D0A00BC2B0020257300001D
:10B330003C25733E2025733A2000000003498842D3
:10B3400001D10348704700207047000000200040F2
:10B35000002B0020034802490068FDF70DBF0000E4
:10B36000702B002068C202002DE9F041234C00251B
:10B37000234E207A012730B92248311D0068FDF79D
:10B3800006FF306038B1022020723168087928B198
:10B3900001281ED116E06560BDE8F081D1E9050302
:10B3A000C01A4FF48052904200D31046B7EB900F72
:10B3B00001D2820800E001220869C96818441944D2
:10B3C00029DF03E0D1E90301084428DF58B111283F
:10B3D00012D003213068FDF721FA25726560BDE8BF
:10B3E000F041FFF7B7BF207C0028D5D1BDE8F04180
:10B3F00000210220FEF79EBA2772CDE7CC33002051
:10B400006C2B002068C2020070B5012670044FF05A
:10B41000E0210025C1F88001084C4010C4F8480321
:10B42000C4F8080366602F20FFF7E6F9A660044C15
:10B430002F20A560FFF7E0F9A57070BD0010014056
:10B44000282B002070B5054688690C4600284FF46B
:10B45000847128460AD0FFF784F9D5F81805626A86
:10B46000E1688854606A401C606270BDFFF779F93A
:10B47000D5F8180570BD30B58FB005461C2168465B
:10B48000FBF70DF800249DF80000019440F00C003B
:10B490008DF80000039404940594069428788DF8A0
:10B4A00036000220ADF834000C949DF830001421D1
:10B4B00020F00F00401C20F0F00010308DF830001C
:10B4C0009DF8310020F00F00401C20F0F0001030FB
:10B4D0008DF831009DF8320020F00600801C20F02D
:10B4E000180040F001008DF8320007A8FAF7D7FFE6
:10B4F0000DA807900CA808900120ADF82400F420B6
:10B50000ADF82640ADF82800688805F10C0307AABD
:10B510006946AADF0FB030BD1FB501238DF800309A
:10B52000CDE90121D0E90012684690471FBD1FB543
:10B5300001238DF800308DF808100192D0E9001237
:10B54000684690471FBD10B5044600684FF49271DD
:10B55000FFF707F94FF484712068FFF702F92068BC
:10B560000121016010BD70B50D460446FBF790FB4C
:10B5700070B12846FBF79EFB68B16807000E002CEF
:10B580000CDA04F00F0101F1E02181F8140D09E05B
:10B5900042F2010070BD42F2020070BD04F1E024ED
:10B5A00084F80004002070BD38B50021012548B1A1
:10B5B00001280CD0032809D1FFF7EAF8BDE838408C
:10B5C000FEF702B84FF0E020C0F8805138BD8DF88A
:10B5D00000106846FBF78EFD064C207808B9FDF791
:10B5E000D7FFE068401CE060A5709DF80000FBF705
:10B5F000A5FD38BD283100203EB5044609496846FE
:10B60000FFF75CF808E000BFD0E900212046904732
:10B6100030B16846FFF769F802980028F4D13EBDC2
:10B6200011203EBD0CC402003EB5044608496846E0
:10B63000FFF744F807E000BFD0E90021204690471B
:10B640006846FFF752F802980028F5D13EBD000089
:10B6500018C4020002498969002900D008477047D0
:10B66000943000202DE9F0411400884618D00025C0
:10B670000E4F032608EB050122460020FBF79CF83D
:10B680000544241A40B93878002809D008494FF4F5
:10B690007A408847761E05D001203870002CE9D109
:10B6A000BDE8F08100203870FAE70000802B002010
:10B6B000F1C302002DE9F0410746806A144688462E
:10B6C000C8B3002531E000BFB96A05EB450001EBC6
:10B6D0008006B088801CFE2802D90C20BDE8F081CD
:10B6E0002288401C08F8020020881622401C80B2E4
:10B6F000208008F800202088401C80B2208000EBC9
:10B700000801308800F000FC2188084480B22080C5
:10B71000B28842B1B16871B14044FAF7A7FE2088FF
:10B72000B188084420806D1CEDB297F82C00A84227
:10B73000CAD80020D2E7FFE70720CFE710B50020E6
:10B74000FCF7C0FC08B1FBF77BFBFCF715FC08B16C
:10B75000FBF776FB33DF002803D0BDE81040FBF792
:10B760006FBB10BD002805D103490120487000209F
:10B77000FCF77EBE704700002831002010B516206F
:10B78000FBF786FA48B10A4882684FF4800152B14B
:10B79000016821F48001016010BDBDE8104042F253
:10B7A0000100FBF74DBB4FF0E020C0F8801110BD49
:10B7B0003433002010B51620FBF76AFA80B10F4829
:10B7C00090F800044009FBF775FA60B10C488268F4
:10B7D0004FF480016AB1016841F48001016010BD3D
:10B7E00042F2010001E042F20200BDE81040FBF726
:10B7F00027BB4FF0E020C0F8001110BD16E000E0BC
:10B80000343300202DE9F84F204D924689460646F4
:10B810009846012269461846AF68FCF789FD58B37F
:10B82000009800210446801C09E000BF00EA0703DD
:10B830005AF8212005EB8303401C491CDA6041457E
:10B84000F4D34FEA164AFCF7BFFF4AEA0041601CF6
:10B85000384005EB80003C4005EB8402C160D068B5
:10B8600066F3C50068F3891069F39F2020F0030098
:10B87000401C20F00400D06095F8200402E000BFD6
:10B88000FEF71CFA0028FBD1BDE8F88FEC3400204D
:10B890002DE9F84F1D4C00256846D4E901A6FCF7B8
:10B8A0009DFF002738B30023009A61681CE0D1F89F
:10B8B00000C00846944503D9ACEB02020A6015E0CB
:10B8C000A2EB0C0263440760D0F80CC0C16981464A
:10B8D000BCF1000F08D006EB030828F07F48C0E950
:10B8E000018CC9F81C5005460029E0D1284661604A
:10B8F000FDF784F903E02846FDF780F910B15046C2
:10B90000FCF7D8FDE770BDE8F88F0000282B002079
:10B910000D4B10B5596831B102680C68A24204D8C9
:10B92000A21A0A60C161586010BD0B4603E00B46C5
:10B93000C969121B21B10C689442F8D3A41A0C6097
:10B940000260C161D86110BD282B00202DE9F041B3
:10B95000144E77683D462C4603E0844204D02546C9
:10B96000E469002CF9D11BE0D4B1A5420BD1F869F0
:10B97000706040B90C49012088600021B160F0700E
:10B980002F20FEF739FF2168E069E86110B10268F5
:10B99000114401607068874202D00120BDE8F08147
:10B9A0000020FBE7282B0020001001407CB5064654
:10B9B00000240D468DF800406846FBF79BFB01A86C
:10B9C00000F054FB70B10570094946609DF8040011
:10B9D00048709DF80000FBF7B1FB1420FAF790FEC9
:10B9E00020467CBD04249DF80000FBF7A7FBF7E789
:10B9F000083200202DE9F041194D6C68002C2CD044
:10BA0000184800270068A968B846401A20F07F4609
:10BA10002068B0420CD82146361A0744E469087CF5
:10BA200020B181F81080886949698847002CEFD1DE
:10BA300029786878814206D1401CC0B2687002281B
:10BA400001D185F80180064869780C3040F82170F2
:10BA5000BDE8F0411420FAF753BEBDE8F0810000C4
:10BA6000282B00200415014070B50C4605464FF404
:10BA70008E71FEF776FE216AA068415C206A401C48
:10BA80002062C5F81C1570BD30B58FB00024054686
:10BA900007949DF81C001C2120F00F00401C20F092
:10BAA000F00010308DF81C009DF81D0020F00F00F4
:10BAB000401C20F0F00010308DF81D009DF81E0095
:10BAC00020F00600801C8DF81E006846FAF7E7FC9F
:10BAD0009DF80000019440F010008DF8000007A8C8
