:020000040002F8
:10600000C0760020DD630200E5630200E763020062
:10601000E9630200EB630200ED6302000000000090
:10602000000000000000000000000000EF6302001C
:10603000F163020000000000F3630200F563020058
:1060400079670200F7630200196B0200F763020030
:10605000F7630200F7630200B1650200F763020014
:10606000F7630200F7630200F7630200F7630200C0
:10607000F7630200F7630200F7630200F7630200B0
:10608000F7630200D1670200F7630200F7630200C2
:10609000F5670200F7630200F9670200F763020088
:1060A000F7630200F7630200F7630200F763020080
:1060B000F7630200F7630200000000000000000028
:1060C000F7630200F7630200F7630200F763020060
:1060D000F7630200F7630200F763020000000000AC
:1060E00000000000000000000000000000000000B0
:1060F00000000000000000000000000000000000A0
:10610000000000000000000000000000000000008F
:10611000000000000000000000000000000000007F
:10612000000000000000000000000000000000006F
:10613000000000000000000000000000000000005F
:10614000000000000000000000000000000000004F
:10615000000000000000000000000000000000003F
:10616000000000000000000000000000000000002F
:10617000000000000000000000000000000000001F
:10618000000000000000000000000000000000000F
:1061900000000000000000000000000000000000FF
:1061A00000000000000000000000000000000000EF
:1061B00000000000000000000000000000000000DF
:1061C00000000000000000000000000000000000CF
:1061D00000000000000000000000000000000000BF
:1061E00000000000000000000000000000000000AF
:1061F000000000000000000000000000000000009F
:10620000DFF80CD000F096F900480047E1AD02003D
:10621000C076002000B583B002900091019244F254
:10622000010071466A4600F0D3FD03B000BD0000D6
:1062300030B450E8012F93B2C48923448489A34227
:1062400028BF1B1B0489A34202BFBFF32F8F00206E
:1062500007E0C3EA020340E80134002CE9D14FF023
:1062600001000A6030BC704750E8012FC2EA0242C8
:1062700040E801210029F7D1704730B450E8022FDF
:106280001FFAA2F3C488A34202BFBFF32F8F0020DE
:106290000DE0C48923448489A34228BF1B1BC2EAA2
:1062A000034340E80234002CE8D14FF001000A60BB
:1062B00030BC704750E8022FC2EA224240E8022177
:1062C0000029F7D17047034653E8022FD988B2EB73
:1062D000324F4FF0000017BF92B241EA014142EA4B
:1062E000014104E05A68B2EB324F08BF012043E895
:1062F0000212002AE8D1704730B4044654E8000F77
:106300000D4644E80053002BF8D1156030BC7047AF
:1063100030B4044654E8000F40EA010544E8005355
:10632000002BF7D1156030BC704730B4044654E8F8
:10633000000F00EA010544E80053002BF7D1156077
:1063400030BC704730B4044654E8000F80EA0105C1
:1063500044E80053002BF7D1156030BC704730B4CF
:10636000044654E8000F00EB010544E80053002BFD
:10637000F7D1156030BC704730B4044654E8000FC4
:10638000A0EB010544E80053002BF7D1156030BCA9
:10639000704770B404464FF0000054E8006F0D6879
:1063A000AE4207BF44E80023012044E800630E60CA
:1063B000002B1CBF0020F0E770BC704730B40446CF
:1063C00054E8000F88422CBF451A054644E80053A4
:1063D000002BF5D1156030BC70470000064880479F
:1063E00006480047FEE7FEE7FEE7FEE7FEE7FEE7BA
:1063F000FEE7FEE7FEE7FEE7FD670200016202003E
:106400002DE9F05F0546002092469B4688460646E9
:10641000814640241BE0284641464746224600F07C
:1064200079F853465A46C01A914110D3114618467E
:10643000224600F016F82D1A67EB01084F46224657
:106440000120002100F00DF817EB00094E41201E3D
:10645000A4F10104DFDC484631462A464346BDE844
:10646000F09F202A04DB203A00FA02F10020704756
:106470009140C2F1200320FA03F319439040704782
:1064800000487047C412030010B5431A934209D262
:106490008318881803E010F8011D03F8011D521E2F
:1064A000F9D210BD40EA01039B0703D009E008C9F7
:1064B000121F08C0042AFAD203E011F8013B00F8C9
:1064C000013B521EF9D210BDD2B201E000F8012BFF
:1064D000491EFBD270470022F6E710B513460A4664
:1064E00004461946FFF7F0FF204610BD421C10F885
:1064F000011B0029FBD1801A704730B504460020EB
:10650000034600E05B1C934203D2E05CCD5C401B81
:10651000F8D030BD202A04DB203A21FA02F0002115
:10652000704721FA02F3D040C2F1200291400843A3
:1065300019467047064C074D06E0E06840F001033D
:1065400094E8070098471034AC42F6D3FFF75CFE9E
:10655000CC1A0300EC1A030070B58C1810F8015B1C
:1065600015F0070301D110F8013B2A1106D110F8EC
:10657000012B03E010F8016B01F8016B5B1EF9D1F0
:106580002B0705D40023521E0DD401F8013BFAE776
:1065900010F8013BCB1A921C03E013F8015B01F8E1
:1065A000015B521EF9D5A142D8D3002070BD000076
:1065B0002DE9F04700268AB0DFF85091B0464FF43D
:1065C0008075012437460696284605F039FD38B116
:1065D000D9F80403204203D0284605F027FD2643BE
:1065E0002D1D64007F1CADB2082FEDD34FF4BE7497
:1065F000204605F025FD48B1204605F017FD46F080
:10660000004606AA0121002005F0FCFC404D16F0D2
:10661000FF0F15D00127002437420DD009EB84016C
:10662000D1F81005D1F81015C0F3042055F8242036
:10663000C1F3014102B190477F00641C082CEBD3E9
:10664000002E5FDA4FF0FF30CDF8108054E02819AB
:1066500010F8507F90F9000027F0C008401C3BD094
:1066600007A9404604F005FF10B34FEA97194046CA
:1066700002F0C0FA55F820701FB1B9F1030F03D032
:1066800006E0B9F1030F27D104A9404604F0F9FE52
:106690004FF0A04101EB8800D0F8000706A9C0F335
:1066A000014A404604F0E5FE18B1BAF1020F03D0EA
:1066B00012E0BAF1030F0FD1B9F1030F08D1BAF10B
:1066C000020F1DD00221404605F080FC761CF6B278
:1066D00017B149464046B847641C042CB7D3002E76
:1066E00010D06A460121002005F08CFC0699009824
:1066F000884207D006900498002634460790A6E703
:106700000321E0E70AB0BDE8F08700000060004028
:106710000C4E002000F01F02012191404009800032
:1067200000F1E020C0F88012704700F01F02012144
:1067300091404009800000F1E020C0F8001170474E
:1067400000F01F02012191404009800000F1E0208B
:10675000C0F8001270474907090E002806DA00F059
:106760000F0000F1E02080F8141D704700F1E020D8
:1067700080F800147047000070B54FF48076304602
:1067800004F0CCFF114CB50560B1304604F0CDFFEC
:106790000120C5F80803607920B9012060712168E3
:1067A000002088474FF48276304604F0B7FF002877
:1067B0000AD0304604F0B9FF0220C5F8080321686A
:1067C000BDE870400120084770BD0000F042002085
:1067D00007480021C0F84011C0F84411C0F8481122
:1067E000C0F84C11C0F80011C0F8041109F07CBDCC
:1067F0000010014009F0C6BC06F0DEB9F0B5B5489E
:106800000023021D0178101D01254FF08054062938
:106810000BD11678360708D10678C6F30316032E77
:1068200006D0042E04D0052E02D0062907D00EE093
:10683000B4F82463A84FC6F304263E6002E016783D
:10684000360704D10678C6F30316032E02D00629B4
:1068500004D00FE0A24FA14E7E670EE016783607F7
:1068600008D10678C6F30316032E06D0042E04D0F2
:10687000052E02D0062907D00EE0D4F84462994FC5
:10688000C6F342363E6002E01678360704D1067839
:10689000C6F30316032E02D0062906D011E0924E4D
:1068A000376827F0807737600EE01678360708D112
:1068B0000678C6F30316032E06D0042E04D0052E48
:1068C00002D006290AD011E04FF08046C6F80C31FC
:1068D000C6F81031834E361F336002E01678360753
:1068E00004D10678C6F30316032E02D0062905D07C
:1068F0000CE07C4F032664373E600AE016783607CA
:1069000004D10678C6F30316032E02D006290DD053
:1069100014E0764F05263E60744E78363560734E2F
:10692000083633603F263F1D3E6002E0167836078A
:1069300004D10678C6F30316052E02D0062957D0D7
:1069400062E06B4E36686B4F3E60694E361D3668AE
:106950003F1D3E60664E083636683F1D3E60644E01
:106960000C3636683F1D3E60614E103636683F1D5E
:106970003E605F4E143636683F1D3E605C4E1836F2
:1069800036685C4F20373E60594E1C3636683F1DD6
:106990003E60574E203636683F1D3E60544E2436CA
:1069A00036683F1D3E60524E283636683F1D3E60B9
:1069B0004F4E2C3636683F1D3E604D4E30363668A1
:1069C0004C4F40373E604A4E343636683F1D3E607D
:1069D000474E383636683F1D3E60454E3C36366879
:1069E0003F1D3E60424E403636683F1D3E6002E02D
:1069F0001678360708D10678C6F30316032E06D09C
:106A0000042E04D0052E02D0062907D019E0D4F8B0
:106A10005812394A01F04F01116002E0117809075C
:106A20000FD10078C0F30310032803D0042801D04D
:106A3000052806D131480168C90702D06FF001016D
:106A40000160D4F83001062808D1D4F834010628B2
:106A500004D12B48016841F48061016022487438F8
:106A6000016841F470010160BFF34F8FBFF36F8F76
:106A70004FF01021D1F80002002803DBD1F8040206
:106A8000002822DA1F4A15601F480468002CFCD039
:106A90001524C1F800420568002DFCD0C1F804425D
:106AA00001680029FCD0136001680029FCD0BFF305
:106AB0004F8F0D48F0380168144A01F4E06111432A
:106AC0000160BFF34F8F00BFFDE712491048086017
:106AD000F0BD0000E00F00F0403501400DF0ADBA10
:106AE00000C007403C050040FCED00E010560040AF
:106AF0000404001020C50040E40E004000040040E3
:106B00003C17004004E5014000E401400400FA05A0
:106B10000090D003144400200148006800470000A2
:106B2000F842002002E008C8121F08C1002AFAD16A
:106B300070477047002001E001C1121F002AFBD1FD
:106B4000704700000121202803DA814005480140F8
:106B500003E0402802DA2038814009B10120704763
:106B600000207047FC06FFBD082806D228B1012886
:106B700003D0042801D0012070470020704731B5B0
:106B800000252C462146684604F0D7FB00B16D1C59
:106B9000641C142CF6D3284638BD10B560B159B129
:106BA00002780B785208B2EB530F05D10622401C35
:106BB000491CFFF7A2FC08B1002010BD012010BD48
:106BC000800701D00020704701207047C3688B42C6
:106BD00006D811440069491E814201D8012070473E
:106BE0000020704710B5002004F0F0FF002811D1FC
:106BF00008F01EFC002001F06BFD0321064800F0A8
:106C0000A8FD002806D0BDE8104004A240F21311F0
:106C1000FFF700BB10BD0000584500202E2E5C2E53
:106C20002E5C2E2E5C6D61696E2E630010B5012204
:106C30000221002001F0F2FD08B1072810D107223F
:106C40000221012001F0EAFD08B1072808D1002146
:106C50000A22084601F0E2FD08B1072800D1002011
:106C600010BD000000B5ABB0AC216846FFF733FCA7
:106C700002208DF8000001218DF802100622ADF8E7
:106C800010008DF803200E4805904FF49670229066
:106C900044F250608DF87C1023900A482990694690
:106CA000094800F08CFC20B1084A40F2DB41FFF7B4
:106CB000B1FA0121044800F07FFC2BB000BD0000B8
:106CC0001C3700206DD402005845002040AF020060
:106CD00070B58CB015460E4600236C46C3F10F010B
:106CE000415CE1545B1C102BF8D30D2104F1100022
:106CF000FFF7F1FB0020C0F10F02315C2244401C81
:106D000011740328F7D3684646DF0020C0F10F0155
:106D1000214491F820102954401C0328F6D30CB0CC
:106D200070BD022001F0BABC0149097900F0B2BE81
:106D3000C442002070B50024064D06E068680121B9
:106D400010F8340006F044F8641C28788442F5D327
:106D5000002070BD00430020F8B515460C460646DD
:106D6000052A01D20720F8BD06F02EF918B906F061
:106D7000F3F80028F7D1124900224E600C708D60A4
:106D8000C1E90422C1E906220E4D0DE006EBC40064
:106D90002968009181788DF8011000780A4A6946C7
:106DA00006F068F80028DED1641EE4B2EED2BDE839
:106DB000F84004480021054A001D00F0F5B8000025
:106DC000004300203C0F0300AD9E02009991020099
:106DD0002DE9FE4314460F46804672B605F0F2FBDD
:106DE00005F00EFA0028FBD10125274EB8F1010F5E
:106DF00028D06FF4805118EB010028D0B0F5405F27
:106E00002CD06FF44051C84208D13088238805EB5C
:106E100000401EA1626805F00EFB06E030883A468D
:106E200005EB004020A105F0FFFA25480068C007E7
:106E300000D000BE224603B039464046BDE8F043CC
:106E400000F080B830881FA105EB004003E03088D7
:106E500024A105EB004005F0E3FAE6E7A06805F0A1
:106E600055FF0346D4E90001CDE9001002973088B0
:106E700025A105EB0040A26805F0EEFA30882CA1B0
:106E800005EB0040E7E700006C4400204153534508
:106E90005254494F4E204641494C4544206174208C
:106EA00025733A2575000000554E4B4E4F574E2026
:106EB0004641554C542061742030782530385800B4
:106EC000F0ED00E0534F46544445564943453A20BF
:106ED000415353455254494F4E204641494C454435
:106EE00000000000534F46544445564943453A205C
:106EF000494E56414C4944204D454D4F5259204131
:106F000043434553530000004552524F52202575CC
:106F1000205B25735D2061742025733A25750D0A69
:106F200050432061743A20307825303878000000D2
:106F3000456E64206F66206572726F722072657094
:106F40006F72740008B501238DF800309DF8003091
:106F5000144B186059609A606FF48041401807D054
:106F600001280FD1DA60D86800889861D86807E0F6
:106F70001A61186980685861186900689861186911
:106F80004068D861186858689868D868186958695E
:106F90009869D86972B600BF9DF800000028FBD13F
:106FA00062B608BDD84E0020074B9B7823B12AB1AA
:106FB00020B10068037C1BB1082070470720704790
:106FC0004174426100207047F84E002070B508F00F
:106FD000CFF9104800240B21047044700E4D8170CD
:106FE00014206C602C706C70FFF794FB0721142048
:106FF000FFF7B1FB1420FFF798FB08480460072156
:107000001120FFF7A8FB0548001F0068A8600020BA
:1070100070BD0000F84E00202043002008150140FC
:107020002DE9FC47DFF8789099F8023073B368B324
:10703000052902D20720BDE8FC87436933B3437CAE
:10704000012B25D0002704460025884616468DF8DA
:107050000050684600F038F801A809F0DFFBC8B11D
:10706000012101700F4944600968C0E90218C0E9B4
:1070700004769DF8040089F801009DF8000000F0F6
:1070800047F81420FFF75CFB2846D4E70820D2E736
:107090000F46D8E704259DF8000000F039F8F3E723
:1070A000F84E0020041501400649897839B130B105
:1070B000416921B100210174022109F0F1B80820D1
:1070C00070470000F84E002030B5EFF3108172B623
:1070D0000D4A9468012324B10370002900D162B6DF
:1070E00030BD93604FF0E023D3F88051074C25402A
:1070F0001560C3F88041D3F8844154605A17C3F82F
:10710000842100220270E8E704500020FC06FFBD45
:107110000B498A68002A11D000280FD1EFF31080A4
:1071200072B60B684FF0E022C2F800314B68C2F82B
:10713000043100228A60002800D162B67047000046
:10714000045000202DE9F041064608680C46411C19
:107150004FF0A0474FF0010506D005FA00F1C7F83F
:107160000815206804F01EFF6068411C02D0002151
:1071700004F006FF3168A069C1F82405607D227D16
:1071800031681043C1F86C05D4E900123068C0F8CA
:107190001425C0F80C15207D012815D1A068411CCC
:1071A00002D0002104F0ECFEE068411C05D08540CF
:1071B000C7F80855E06804F0F5FED4E9021230681B
:1071C000C0F80825C0F81015BDE8F0812DE9F041A0
:1071D000064608680C46411C4FF0A0474FF00105D9
:1071E00006D005FA00F1C7F80815206804F0E4FE9F
:1071F0006068411C02D0002104F0CBFE3168A06918
:10720000C1F82405607D217D32680843C2F86C0511
:10721000D4E900123068C0F80C15C0F81425207DA0
:10722000012815D1A068411C02D0002104F0B1FE54
:10723000E068411C05D08540C7F80855E06804F0B7
:10724000BBFED4E902123068C0F80825C0F810155A
:10725000BDE8F08103F020BD2DE9F0470746008826
:107260008EB0804603F056F9824604462D4800252C
:107270002A460178404600F025FC7879400734D54D
:1072800001254FF6FF7603AB2A460721504606F04C
:10729000BDFE010004D0404608F098FA00252BE01E
:1072A000B1463146049803F089F8064648450FD0A8
:1072B00004460146404603F017F94046FFF734FD07
:1072C00030B9404608F054FA4046FFF72DFD48B16A
:1072D00022460721504606F00FFF010003D040462A
:1072E00008F074FA00254E4506D0404607F072F8C3
:1072F00010B1504603F0FAF802208DF81800ADF8EE
:107300001A807879400701D5012000E002208DF82D
:1073100020008DF8215006A802F046F90EB0BDE815
:10732000F0870000C44200202DE9FC4700251788A3
:107330000646158090F82D001446894630B13A462D
:107340002146484600F072FC050009D1B0784FF0A4
:107350000C0A18B32088C846001DB84202D950460E
:10736000BDE8FC87684679DF0028F9D12088032131
:1073700008F8001020881921401C80B2208008F8ED
:1073800000102088401C80B2208000EB0801BDF86E
:10739000000009F071F9218808442080F078022269
:1073A000C8B1218896F9033001F1030C4846BC4569
:1073B000D5D8425421884FF0010C491C89B2218054
:1073C00000F801C02188491C89B2218009F80130E8
:1073D0002088401C20807068B8B1218890F9003066
:1073E00001F1030C4846BC45B9D8425421880A2211
:1073F000491C89B2218042542188491C89B22180CC
:1074000009F801302088401C2080308950B1CDE936
:1074100000474B460622022106F1080009F016FA41
:1074200005009DD1308A50B1CDE900474B46072277
:10743000032106F1100009F009FA050090D1308B04
:1074400050B1CDE900474B461522142106F1180032
:1074500009F0FCF9050083D1306A30B13B46224681
:10746000494601F0A4FC0500DBD1706A30B13B460F
:107470002246494603F08CFD0500D2D196F82C0037
:1074800038B13B4622464946304608F049FA0500E5
:10749000C7D1307838B13B4622464946304603F0E2
:1074A00029FE0500BDD128465AE718B5044600203C
:1074B000ADF8000013466A46204600F006F80028A2
:1074C00002D0BDF80000204418BD70B588B182B16B
:1074D0000024158803E0065D641C3444A4B2A54270
:1074E00003D8061976789E4201D08C42F3D38C42A1
:1074F00001D3002070BDA11C1180005D401E80B230
:1075000070BD2DE9F0418AB006460020ADF81400A8
:107510001346102088468DF804000D4606AA01A9DE
:10752000184664DFA6B398BB9DF80400022804D077
:10753000042807D0102839D10DE003208DF8100061
:10754000022003E005208DF8100004208DF81100C2
:10755000002404AF0FE007208DF810000620F5E7A7
:107560003B5D05AA41463046FFF7AFFF641CE4B21D
:107570000546022C04D2BDF814000028F0D003E028
:10758000BDF81400002812D080B2064400240BE09D
:107590000CE030199DF8042006A9FEF7AEFF48B1B3
:1075A0009DF80400204484B2AC42F2D300200AB01B
:1075B000BDE8F0810120FAE780F8301070472DE92E
:1075C000F0410D00044606D02CB195F87A00002653
:1075D000012803D006E00E20BDE8F08195F8980060
:1075E000012829D0D5F8A000042825D0D5F89C0082
:1075F000042821D04FF00108A6702C2205F1780153
:10760000201DFEF741FF84F83060D5F8A4006063C8
:10761000D5F8A800A0634FF6FF70A4F8A80004F105
:107620009400C4F8A400C4F8AA60A4F8AE6084F87A
:10763000B060207810B104E00720CDE7FF2084F887
:10764000540004F155011F27C4F89410A4F8987051
:1076500004F198022846FFF767FE0028BCD115F117
:107660003C0F0ED004F17401C4F89C10A4F8A07073
:1076700004F1A00205F13C00FFF756FE0028ABD153
:1076800003E0C4F89C60A4F8A06084F85180208BCB
:10769000A4F8480084F83C80266484F8506060694F
:1076A0006064454604F13C02002104F1540072DF9D
:1076B000002891D125708FE710B50288102A1BD0C1
:1076C000112A20D0262A1DD1007A0C46012801D08B
:1076D000022817D1A0780521401CB0FBF1F201FB74
:1076E0001201204600F035F800280BD0A16B0029CC
:1076F00008D0BDE810400847C27B012A02D180882B
:10770000A1F8A80010BD0C46002184F8B2108088B2
:10771000B4F8A8108842F5D120790028F2D10121CF
:10772000DFE710B50C46022801D0032810D160789D
:1077300000280DD000206070A178204600F009F8E4
:10774000002805D0A16B002902D0BDE810400847F1
:1077500010BD2DE9F05F044600780F4638B1A770E0
:10776000002004F033FA012620B1667007E10820FA
:10777000BDE8F09F0025C4F8AA50A4F8AE5084F8E4
:10778000B050A07910B1A078012806D0E07968B196
:10779000A078012801D0022808D1616B21B184F8BA
:1077A000B1600820884701E084F8B15004F1AB01D2
:1077B00000200A5C0AB1304603E0401C0628F8D3DA
:1077C00000204FF002084FF0030B012F06D0022FCC
:1077D0000CD0032F0FD0042F15D110E0A17929B1BF
:1077E00094F8241011B908B130460DE0E17911B1D7
:1077F00008B1404608E0207A08B1584604E0607AB3
:1078000008B1042000E02846A070616B41B1032854
:1078100001D0042804D1607910B194F8B200A0B16D
:1078200084F8B35004F13C0018210746FEF753FEDC
:1078300004F12C0084F83C60814606F003FF58B147
:1078400094F82C0084F8510008E084F8B45084F8CF
:10785000B36007208847E5E784F8516094F8240076
:1078600050B1484606F0EEFE20B194F8280084F8A6
:10787000520001E084F8526084F85050A27804F17C
:10788000AA0104F194094FF0060A052A60D2DFE844
:1078900002F078030F223F0084F83160C4F8A4504E
:1078A000C4E9101584F83C808020A4F8480051E019
:1078B00084F8318094F82420384612B107220270EF
:1078C00001E080F800B0228A8281C4F8A4504160AF
:1078D000E168B9603EE06069B860208BB88194F8D7
:1078E00024003D4610B184F83CA001E084F83C60DF
:1078F000204608F06FFF40B185F81480042120462F
:1079000002F058F820BB05211EE084F831B01DE0DC
:10791000E069B860208CB88194F824003D4610B12D
:1079200084F83CA001E084F83C60204608F052FF57
:1079300048B185F814800421204602F03BF838B99C
:1079400084F831A002E0042184F83110C4F8A49036
:10795000A07878B13A4604F15400D4F8A41072DF4C
:1079600000287FF405AF94F8301094F8540073DFCA
:107970000028F6D1616B11B194F8310088470020DE
:10798000F6E684F83150F5E770B5040012D00146F0
:107990001C221448FEF778FD1248134D056020683C
:1079A00050B17ADF002806D120680168296040685C
:1079B000686005E00E2070BD0B487BDF0028FAD11F
:1079C00008484FF6FF711438084A20F8041B05498F
:1079D000343901600021FFF7E7FA0028EBD00320DB
:1079E00070BD0000F0470020744200206D070300C6
:1079F000054808B5C16800918168684603F0C1FC7C
:107A00000098FFF7BCF808BD0C48002010B50446EC
:107A100000F078F8002805D02146BDE81040024863
:107A200003F08BBC10BD00001C48002070B515464B
:107A30000E46044608F0DAFE002809D0054800EB9F
:107A4000840080692A463146BDE8704001F0F0BFED
:107A500070BD00000C48002070B50546002400F001
:107A600051F838B12946044803F067FC08B10224F4
:107A700000E00124204670BD1848002010B51821F0
:107A8000034803F035FC182800D0C0B210BD000038
:107A90000C48002070B505460C46084608F0A6FEC6
:107AA00060B1284600F02EF840B10548294600EBA9
:107AB0008400BDE87040183003F03FBC002070BD6A
:107AC0000C48002070B5054614460E46084608F0DE
:107AD0008DFE002812D0284600F014F800280DD0A2
:107AE0000748294600EB860018301CB1BDE87040FD
:107AF00003F02EBCBDE8704003F0DFBB70BD00009A
:107B00000C480020142801D300207047014601488A
:107B100003F013BC1048002070B540B10C4D29781B
:107B200039B1044607F024FB28B1002070BD0E20B7
:107B300070BD082070BDE868062807D20549226894
:107B400001EB8001401C0A60E860EEE7042070BD94
:107B50007C4200208448002040B1054900220123D6
:107B6000CA600B70C1E90102104670470E207047D1
:107B70007C42002070B504002DD000292BD0204875
:107B80000078002827D020880D46112815D03028ED
:107B900004D0322807D033281ED109E0211D284601
:107BA00005F0F8FF18E0211D284605F04FFE13E010
:107BB000211D284605F024FF0EE0A088B5F8CA1262
:107BC000884209D1002085F8C70285F8C8024FF61F
:107BD000FF70A5F8CA0270BD95F8C8020028FAD057
:107BE00020883028F7D34F28F5D8A088B5F8CA12D6
:107BF0008842F0D12846BDE8704001F07FBB00000C
:107C00007C42002048B1084A137843B1D26832B1AF
:107C100090F8C7222AB1112070470E207047082023
:107C2000704701F06BBB00007C4200207CB505462C
:107C300008880C460930904201D90C207CBD68466A
:107C40006DDF0028FAD121880820685420881B2184
:107C5000401C80B2208029542088401C80B22080A3
:107C60002844DDF801100160BDF8051081802088EE
:107C7000801D80B220809DF80010490800D00121AD
:107C800029542088401C208000207CBD10B504466B
:107C90008088FFF7E1FE01280BD02188262908D033
:107CA000022801D01D2912D12046BDE8104005F060
:107CB00071BC0749204600F0A8F90549204650311B
:107CC00000F01CFC2046BDE8104005F051BD10BD81
:107CD0007C44002010B51A4C0188606810290ED031
:107CE00011292BD1401E606028D1FEF79FFF00288C
:107CF00024D02168002921D0BDE810400847D0B920
:107D000000210122084600F089FD08B107280FD1A3
:107D100007220221012000F081FD08B1072807D1C8
:107D200004220221002000F079FD20B1072802D0B2
:107D3000216801B188476068401C606010BD000088
:107D40006C4200202DE9F04701883B4E40F2F319C8
:107D50004FF6FF7510291BD011293ED0122954D09F
:107D6000502946D1C188F289841D914241D161894F
:107D700002293ED18688304602F078FC050038D0D2
:107D800004F10C0000F0E6FBA8B3294630464EE0B3
:107D9000C17B8788044601292BD1A846284602F0DA
:107DA00065FC050017D02F80002028722348434629
:107DB0004A460168C5F80A104068C5F80E0004F18B
:107DC000100105F10A0002F01DFD6872F08900281B
:107DD0000FD129462AE0042013E0808802F046FCF7
:107DE000040006D06068FFF75FF908B107F0D2FC25
:107DF0002580BDE8F087FFE76868FFF755F90028A0
:107E0000F7D0BDE8F04707F0C5BC8788064638467E
:107E100002F02CFC0400ECD02B464A4606F1080187
:107E200004F10A0002F0EEFC607221463846BDE81B
:107E3000F04701F00DB80000F04700207442002028
:107E40002DE9F04F0746858802883E48012197B00A
:107E50008346102A09D0112A4BD01A2A6ED1387ABB
:107E6000B1EB101F47D2012246E0364C083CA06817
:107E7000C0430B9061680BA803F083FA0B990CA820
:107E800000F076FF2C220CA96846FEF7FDFA0026CA
:107E9000E946A04610E000BF09EB46005FF0000491
:107EA000B0F804A008EB84005146001D03F005FA69
:107EB000641C1D2CF6D3761C0098B042ECD8142D0F
:107EC00007D317B0E321BDE8F04F1FA20420FEF74F
:107ED000A1B92946584603F03BFA294608F10400A7
:107EE00003F036FAF87B012828D016482946001DF1
:107EF00015E029461AE000220221B1EB101F01D241
:107F0000012600E000260F49083901F11000041D88
:107F1000294682B103F01CFA36B12946204617B033
:107F2000BDE8F04F03F014BA2946204617B0BDE86B
:107F3000F04F03F0C2B903F0C0F9F5E717B0BDE8A0
:107F4000F08F0000144800202E2E5C2E2E5C2E2E6A
:107F50005C2E2E5C2E2E5C2E2E5C2E2E5C636F6DA6
:107F6000706F6E656E74735C626C655C636F6D6D73
:107F70006F6E5C626C655F636F6E6E5F737461746D
:107F8000652E630010B504460748007800280AD023
:107F9000204602F099F9204607F0A6FD2046BDE8EC
:107FA000104001F085BE10BDB442002038B5044633
:107FB00008682060087960714FF6FF702084002007
:107FC00084F82200A4F84C00142084F84E0001200C
:107FD0008DF8020041F60D000D46ADF80000A21D1F
:107FE00069460120A8DF00280ED12946204602F06C
:107FF00081F8002808D1A86828B12946204600F059
:10800000CFFA002800D1002038BD38B50288102AE8
:1080100015D0112A15D0502A16D130F8062F8B8989
:108020009A4211D10C46418902290DD121680029BB
:108030000AD00C3000F08EFA38B1002006E08088BB
:1080400001E04FF6FF70088438BD01208DF8000074
:10805000226869462046904738BD00002DE9F04768
:108060004A4E81460C4630880978032707EB0040CA
:1080700081B101292BD002297AD145A104F0D0F990
:108080003088B9F8022007EB0040BDE8F04744A172
:1080900004F0CAB94AA104F0C3F9618804F10E02E0
:1080A000484600F037F920B14AA240F21351FEF7DA
:1080B000B1F8484600F0D8F920B146A240F2165176
:1080C000FEF7A8F8308847A107EB004058E00025EC
:1080D00009E0A0684FA1425D308807EB004004F042
:1080E000A3F96D1CEDB2207BA842F2D8DFF82CA1D9
:1080F0000025B84631880AEB051708EB01407A885D
:1081000047A104F091F93188FA6808EB014048A1D1
:1081100004F08AF96D1CEDB2042DEBD3308845468E
:1081200008EB004046A104F07BF93088B9F8022042
:1081300005EB00404FA104F077F9308852A105EB20
:108140000040D9F80C2004F06FF93088A28805EBC4
:10815000004053A104F068F93088227B05EB004011
:1081600055A104F061F93088628805EB004000E019
:108170000AE056A104F058F9308859A105EB0040F7
:10818000BDE8F04704F04CB9BDE8F0876C4400202E
:10819000446973636F6E6E65637465642E000000DE
:1081A000646973636F6E6E656374656420636F6E7C
:1081B0006E5F68616E646C652025642000000000BD
:1081C000446973636F7665727920636F6D706C6557
:1081D00074652E002E2E5C2E2E5C2E2E5C6D616939
:1081E0006E2E6300436F6E6E656374656420746FFA
:1081F000206465766963652077697468204E6F72C4
:1082000064696320554152542053657276696365F1
:108210002E000000646174613A256300104600205E
:10822000636F6E6E5F68616E646C6520256400002C
:108230006576745F68616E646C652025640000007B
:108240006E75732D2D2D2D2D2D2D2D2D2D2D2D2D8F
:108250002D2D2D2D2D2D2D2D73746172742D2D2D01
:108260002D2D2D2D2D2D2D2D2D2D2D2D2D2D2D2D3E
:108270002D2D2D006E757320636F6E6E5F68616EBD
:10828000646C653A256400006E75735F63206576E3
:10829000656E742068616E646C653A256400000048
:1082A0006E75732064617461206D6178206C656EF9
:1082B000203A2564000000006E75732064617461CB
:1082C000206C656E203A2564000000006E75735FB7
:1082D0006576656E742068616E646C653A2564002D
:1082E0006E75732D2D2D2D2D2D2D2D2D2D2D2D2DEF
:1082F0002D2D2D2D2D2D2D2D656E642D2D2D2D2DFE
:108300002D2D2D2D2D2D2D2D2D2D2D2D2D2D2D2D9D
:108310002D00000048B141802AB15188C1801188E8
:10832000818091880181002070470E2070470000F5
:1083300030B5114B0D4604000FCB85B08DE80F0012
:1083400018D0BDB12146684662DF002810D12078E0
:108350008DF812000120ADF810004FF6FF7060801C
:108360002868E0600020A080208104A8FFF7D4FBEB
:1083700005B030BD0E20FBE7080F030010B5024624
:1083800086B008002ED0002A2CD041884FF6FF730B
:10839000994202D09488A14224D11488112C14D07F
:1083A000392C1FD1818800291CD053898B4219D1C7
:1083B000C168002916D001218DF8001002F11001CA
:1083C0000291917B8DF80C1009E092888A4209D1C4
:1083D000C168002906D002218DF800104380C268D0
:1083E0006946904706B010BD30B585B00C460546CD
:1083F00014216846FEF76FF8207804F10E0100287A
:1084000030D1A08801282DD1A0792A78904229D195
:10841000002217E002EBC20031F81030022B02D02C
:10842000032B0ED105E001EB40000089ADF81200EE
:1084300007E001EB40000389ADF80E304089ADF84C
:108440001000521C207A9042E4D8E868002809D035
:108450006088ADF8020000208DF80000EA686946E7
:108460002846904705B030BD1FB5010019D0488897
:10847000A0F57F42FF3A16D0C988A1B101228DF83C
:108480000C200A4B00228DF80D20D3E90423CDE9FE
:108490000023ADF8021003A902916946A3DF04B0DE
:1084A00010BD0E20FBE70820F9E70000080F0300CD
:1084B00038B50D4604001FD0F5B1286820604FF68E
:1084C000FF70E0826889208301208DF8020041F668
:1084D0001400ADF80000221D69460120A8DF002825
:1084E00009D12946204606F0B3FE002803D12946CB
:1084F000204606F063FE38BD0E2038BD38B5002991
:108500001FD000281DD00288102A15D0112A15D09E
:10851000502A16D130F8062F4B899A4211D10C46B9
:10852000418902290DD1216800290AD00C3000F0C0
:1085300011F838B1002006E0808801E04FF6FF70A6
:10854000C88238BD01208DF80000226869462046A7
:10855000904738BD007800F00100704708B504F07E
:10856000EFFA20B10D4A40F2C931FDF753FE002069
:1085700000906946012004F04DF920B1074A40F20D
:10858000CF31FDF747FE684604F0CAF9002804D051
:10859000024A40F2D331FDF73DFE08BD40AF020074
:1085A000F0B58FB00D4606461C216846FDF793FFD7
:1085B00000249DF80000039440F002008DF80000B4
:1085C000012701948DF8367042F638200494059402
:1085D0000694ADF834000C94E87B8DF83000287CCC
:1085E0008DF831009DF83200142120F00600801C27
:1085F00020F019008DF8320007A8FDF76CFF0DA8D8
:1086000007900CA8ADF824700890ADF82640ADF89E
:108610002870A8680B90F08806F1100307AA694635
:10862000AADF0FB0F0BD00000649095C4FF0A04082
:10863000D0F81005C84010F0010000D0012080F0F3
:10864000010070472E0D03002DE9FC410646C007CE
:108650004FF000050ED0104F00240122385D009528
:1086600000231146019503F031FC641C042CF4D363
:1086700000F046F8B0070DD5074E0024361D002245
:10868000305D032300951146019503F01FFC641C27
:10869000042CF4D3BDE8FC812A0D030007490B5CD0
:1086A0004FF0A041D1F804250120984020EA0203B0
:1086B000C1F808351040C1F80C0570472A0D0300B9
:1086C0000249085C012103F092BC00002A0D03005E
:1086D0000249085C002103F08ABC00002A0D030057
:1086E0000649095C4FF0A040D0F80405C84010F0DE
:1086F000010000D0012080F0010070472A0D030026
:1087000010B500242046FFF7DBFF641C042CF9D3CE
:1087100010BD10B500242046FFF7DAFF641C042CBE
:10872000F9D310BD10B50246064B4FF0FF300021C3
:108730005C5C944201D1084610BD491C0429F7D362
:1087400010BD00002E0D030070B50C4E0C004FF054
:10875000000530600BD0012000F05AF808B102206B
:1087600004E0002000F054F800B10B202070706885
:1087700010B9FEF75BFA0546284670BD6C42002032
:108780002DE9F0470D468146FFF7CCFF044604284B
:1087900036D2DFF874801B481C4EA8F10C0725B3B5
:1087A000012D0ED0022D2BD104EB4400304445782E
:1087B000002D25D0B968002922D02846BDE8F04711
:1087C000084704EB4401755C0E44717849B10E4AC8
:1087D0004FF40041093A8068FEF722FC08B987F897
:1087E0000390B17808F80410E2E78068FEF75CFCBB
:1087F00004EB4401314418F804008D78A842D7D026
:10880000BDE8F087340D0300684200209047002047
:10881000042801D2FFF708BF0020704770B500237D
:10882000042810D20D4D00EB4004012A02D1012989
:108830000CD00022094E00EB4000304461B1012908
:1088400006D0022906D00723184670BD0E30C2B2EA
:108850002A55F9E74270F7E78270F5E79047002064
:10886000044A014600201279D20702D0084600F0DF
:108870004DB870475C42002070B506461E48002483
:10888000C0E90161B00720D5002501221146284624
:10889000FFF7C4FF6D1C0446042D02D2002CF4D057
:1088A00013E094B940F2666204211448FEF754FACA
:1088B00004000AD1FEF73EFA040006D10F48104A20
:1088C0000021001FFEF770FB0446F00712D00120C4
:1088D000FFF7BAFE74B909480A4A00210C38FEF7BE
:1088E00063FB040006D10548074A01210838FEF75A
:1088F0005BFB0446204670BD5C420020400D030037
:10890000898B0200E5A80200236D02002DE9F05FCB
:108910006A4C054600266078B34618B184F801B069
:1089200001F0C8FF664F4FF47A694FF4C87A4FF0F0
:108930000108182D62D2DFE805F0AC0C0C31404D77
:1089400062676B746B74BE7D7D7D7D7DACAFB2B5AF
:10895000BEBE0020FFF7C4FE00284FF0000008D084
:10896000FFF7AEFE022D02D14FF4E16008E0484669
:1089700006E0FFF7ADFE022D01D1C82000E0504611
:10898000410CC0034FF4FA72801841F100012570C8
:1089900052000023FDF734FD01462AE00020FFF7D6
:1089A0009FFE00284FF0000004D0FFF789FE4FF42F
:1089B0004870E5E7FFF78CFEDFE70020FFF790FE49
:1089C00000284FF0000002D0FFF77AFECFE7FFF754
:1089D0007FFED4E70020FFF783FE00284FF0000061
:1089E00002D0FFF76DFE01E0FFF772FE257041F641
:1089F0009A1100223868FEF713FB064646E0002075
:108A0000FFF74CFE257008E0002051E025703DE0A6
:108A100084F801800120FFF741FE002240F6CD419D
:108A2000E8E784F801800120FFF738FE00224FF4C8
:108A30008041DFE77868FEF737FB0646D5F1110085
:108A400000D02EB10220FFF73BFE84F802B01DE0FB
:108A5000012816D980B2C8214843C117C90341EA89
:108A60005041C0034FF4FA72801841F100015200E6
:108A70000023FDF7C5FC014600227868FEF7D0FA16
:108A800006460220FFF724FE84F802803046BDE847
:108A9000F09F01F00FFFB9E701F00CFFB4E701F020
:108AA00009FF04E001F006FF0020FFF711FE01209E
:108AB000FFF70EFEAAE7FFF72CFEA7E75C420020B7
:108AC000340D03002DE9F8430546861C00208DF87F
:108AD000000090460F464FF001096846FEF7F4FA91
:108AE0001B4C20683860D4E90001401AA16804F2E8
:108AF0001C47081A0EE00121384602F03CFC02F047
:108B000021F90146384602F036FCD4E90001401A4A
:108B1000A168081A401C8642EDD8B8F1000F03D0B6
:108B2000052065F3891002E0062065F39F50A268D6
:108B30002168114004EB8101C86020683044206046
:108B40009DF80000FEF7E4FA4846BDE8F88300000F
:108B50009C52002030B482680468531C8360A15486
:108B6000D0E901128A4202D330BC02F05CBE30BCB4
:108B700070470000034803C8814201D101207047BB
:108B8000002070479C52002000780221FFF7F8BDBA
:108B900005494FF0FF32082841F8202002D308444D
:108BA00080F84820704700000C4E0020F0B54FF0D0
:108BB000FF3512B10023082601E008230C260C4CD7
:108BC00005E000BF54F823707F1C04D05B1CB34247
:108BD000F8D32846F0BD26185DB286F8305044F828
:108BE0002310002AF5D1E11881F84800F1E70000D0
:108BF0000C4E00200249084490F9300070470000F4
:108C00000C4E002008B5024690F8C6020B4600EB59
:108C10008001C1EB801002EB400092F8C52242B106
:108C2000521ED2B202EBC20100EB4102518A491C32
:108C300000E0C188ADF800100089ADF80200694677
:108C400018469DDF08BD70B504464FF6FF750A460D
:108C50002846AC4208D14FF480742146104605F0F6
:108C600069FEA04209D070BDFF2CFCD821461046F9
:108C700005F053FE08B1204670BD284670BD0000C7
:108C800070B5084C050009D010342168002907D0C0
:108C900008682060496828468847F6E70834F4E702
:108CA00070BD0000F84D0020054A012120B10128C7
:108CB00005D19170FFF7E4BF51700020FAE77047CB
:108CC000F84D00202DE9F05F26484168F1B3DFF848
:108CD00098B00E688146DBF8004087688078E11B19
:108CE00021F07F45ED1CB0B9DFF880804FF4803073
:108CF000C8F84403C8F804031120FDF70BFD112048
:108D0000FDF713FD4FF0010AC8F800A02F2004F072
:108D100057F889F802A0B54200D23546124BE8193F
:108D20003C3320F07F401860DBF800105A46091BE6
:108D300021F07F41001B20F07F40C91C81420FD9E8
:108D4000106818602F2004F03BF800E004E0BDE854
:108D5000F05F1120FDF7F4BCBDE8F05F06F008BB42
:108D6000BDE8F09F204300200415014000100140A1
:108D700073B58CB00646002000900D9880B1002499
:108D80006D4621460DA802F0D8FA30B1009805EBE7
:108D9000400084800098401C0090641C142CF0D388
:108DA0002C2269463046FDF76FFB0EB070BD2DE9F1
:108DB000F04117880646B81D14460D46984202D960
:108DC0000C20BDE8F0813188072206290AD34FF430
:108DD000486C4FF6FF73614501D9994202D1708802
:108DE000062801D21046ECE7604501D99842F9D136
:108DF000994203D0984201D08142F3D80520E8552A
:108E000020881221401C80B2208029542088401CD8
:108E100080B220804119308807F02EFC2188084458
:108E200080B220804119708807F026FC2188084410
:108E300020800020C5E7000001A2EC21FDF7EAB97F
:108E40002E2E5C2E2E5C2E2E5C6D61696E2E6300C4
:108E500038B54A7A0F4B62B100220A72596900296B
:108E600006D001228DF80020ADF802006846884740
:108E700038BD0A7A62B19B684C68024619462046A2
:108E8000FEF7CEF80028F3D0BDE8384006F082BCEB
:108E90005B68F1E7F0470020F0B585B016460F4655
:108EA00004461D4614220B496846FDF7EDFA0A48B0
:108EB0008DF80870ADF80240ADF80A608DF80C50DE
:108EC000017800222046FEF7FDFD684600F06CFBAD
:108ED00005B0F0BDC80E0300C4420020F0B587B055
:108EE000074600200490ADF810100590ADF8121060
:108EF0000190029001AA04A9384690DF060022D012
:108F000003F004FF114C0346012520883A4605EB87
:108F100000400F4903F08FFABDF8042012B9BDF8E4
:108F2000060038B12088BDF8063005EB004009A1E5
:108F300003F081FABDF808202AB12088154905EB15
:108F4000004003F071FA07B03046F0BD3044002015
:108F5000C812030054686520726571756573746585
:108F6000642054582F5258207061636B6574206CD4
:108F7000656E67746820697320746F6F206C6F6E04
:108F8000672062792025752F2575206F63746574BD
:108F9000732E00001413030010B5044642880948DC
:108FA00003211346008801EB004007A103F043FAB8
:108FB0006088154901EB00102146BDE810401038CB
:108FC000FFF712BA6C44002063616C6C20746F2050
:108FD000626C655F6C62735F6F6E5F64625F646931
:108FE00073635F65767420666F7220696E73746157
:108FF0006E636520256420616E64206C696E6B2051
:1090000030782578210000001046002030B5044655
:1090100085B000211B4805F080FC00282FD00025DA
:10902000204600F0D2FF68B1112812D086281BD04C
:10903000A0F54051023903D00146204606F0B2FBAC
:10904000294607E005B029462046BDE8304001F03A
:1090500057BE0121204601F053FE05B00021BDE8B6
:109060003040084805F08DBC142207496846FDF7DA
:109070000BFAADF80240684600F072FAE0E705B07E
:1090800030BD00008D420020F00D03007FB50C467E
:1090900010B1012004B070BD2079002638B141F62E
:1090A0001D5501281BD0022826D00F20F2E70220F0
:1090B000207102960396E0680190694601A805F0C8
:1090C000BDFF50B102988188E18000882081BDF801
:1090D0000010029806F030F8DCE70A20DAE70A4BC5
:1090E0006A460021A01D05F065FF38B10649183910
:1090F0008E61CE610A28CDD12846CBE7024881880F
:10910000019806F019F8F5E7604300202DE9F843CF
:10911000054690F8C6020F4600EB8001C1EB8010B7
:1091200005EB400695F8C542914604EBC40006EBFA
:1091300040013279601C0A31904226D16B460022F0
:10914000284601F081FB18B310E0401EA04201D177
:10915000002004E004EBC40006EB40001C30804615
:1091600002466B46284601F06FFB30B10020387094
:10917000694648469EDFBDE8F88395F8C50241463A
:10918000401C641C85F8C502E4B23079A042DCD8EA
:10919000012038700020EEE72DE9F0470025DFF8C8
:1091A0008C803CE06068002100EBC506012032782D
:1091B0009146FDF756F9D4E9062300EA020701EAD1
:1091C000030C57EA0C0728D082438B434846C4E976
:1091D000062303F0B7FE3278824691460120002133
:1091E000FDF73FF9D4E9042300EA020401EA03078A
:1091F0004A4650460021FDF734F944404F403C4375
:109200000BD17078012801D0012100E000217268A3
:1092100081EA0A010AB1484690476D1CEDB298F800
:10922000000044468542BDD3BDE8F08700430020DE
:109230002DE9F047894690F8C612904601EB81026D
:10924000C2EB811100EB4107384605F091FF0600A3
:109250002FD0194CA06806282BD2184D762205EB8A
:10926000C0103946A0F80280001DFDF70DF9002757
:10927000B9F1000F04D0A06805EBC010077004E03E
:10928000A168022005EBC1110870A06805EBC011B0
:10929000401CCE67A060E16888420AD1002604E045
:1092A00005EBC610C16F8847761CE0688642F7D38D
:1092B000A760BDE8F08700007C4200209C480020A9
:1092C00070B50E4690F8C612154601EB8102C2EB4E
:1092D0008111A0B000EB410005F04AFF040009D065
:1092E0007C2205496846FDF7CFF8ADF80250684684
:1092F0000196A04720B070BD600D030070B50E460A
:1093000004464FF43371FDF7E6F811480025A4F840
:10931000CA62856084F8C9520E4884F8C65284F83F
:10932000C552006820602246012130469BDF0121A2
:10933000112806D0002809D184F8C71284F8C85231
:1093400003E084F8C71284F8C812002070BD000042
:109350007C4200208448002010B50021024802F021
:1093600025F880F3100010BDB85600200E4910B546
:109370000A784C780023A24212D0521CD2B20A7052
:10938000022A00D10B70084A0B780C3252F82320C5
:1093900002608868104420F07F408860012010BD82
:1093A0000360002010BD00002043002013460A4641
:1093B0000021FFF771BD00002DE9F843104D0F4665
:1093C00080461E4691466946286801F04AFF04001F
:1093D00014D01C21FDF77FF801202071C4F81490EF
:1093E000380BC4F80080C4E902606946286801F0BF
:1093F00059FF05F073FD0020BDE8F8830420FBE76A
:10940000E00F030010B503780022072B06D2DFE837
:1094100003F005040610202930000A7010BD012356
:109420000B7003898B818388CB81C06888600A7444
:1094300010BD02220A7002898A818288CA81C268AC
:109440008A60807D062802D00020087410BD0120AB
:10945000FBE703220A70C2888A810289CA81C06838
:10946000886010BD04230B70C0888881CA818A601F
:1094700010BD0520087010BD70B5064D06460024CD
:1094800055F8241009B130468847641C042CF7D3E2
:1094900070BD00001C50002030B50446006887B045
:1094A0000D46806800281FD018216846FDF713F884
:1094B0000195A0680590207910B1012810D107E02E
:1094C00001208DF8000020690290E068039005E01B
:1094D00002208DF80000E0680003029060690490AB
:1094E000206881686846884707B030BD70B586B08F
:1094F00015460C00064619D0112C17D0082C15D093
:1095000014216846FCF7E7FFADF80260304601F031
:1095100001F8ADF804000D2C0AD0862C1CD00720D1
:109520008DF800000294684600F04CF806B070BD5B
:1095300003208DF8000025B12878C00701D0012054
:1095400000E002208DF8080000208DF80C0041F2A8
:109550000110ADF80A00E6E706208DF80000E2E70A
:1095600010B50446408800F0D5FFA080024801688D
:109570002046BDE810400847944200202DE9F04104
:1095800007460024064E074D05E000BF56F824109C
:1095900038468847641CE8788442F7DBBDE8F081F0
:1095A000AC4D0020B442002010B50446408800F0C5
:1095B000B1FFA080024801682046BDE8104008477E
:1095C0009C0E03000149096808470000040F0300CE
:1095D00070B586B0044614216846FCF77CFFA0896C
:1095E0000125A0F54040ADF8040020782A4E062859
:1095F00033D2DFE800F0320303032C48A08900F0E7
:10960000BDF930B9E08943F6FE71A0F540408842CB
:1096100023D8A07B8DF80800207803280FD00020E5
:109620008DF80900A0680390606850B109208DF89A
:10963000000060680490684604F0A6FD0DE001207B
:10964000EEE708208DF800008DF81050F3E7A089B0
:1096500000F094F908B1E08930B17078002801D0A9
:1096600004F0C2FE06B070BD606820B10B208DF81A
:1096700000007570DFE70A208DF80000BDF80400D7
:1096800004F03CFFF5E713208DF800004FF6FF7063
:10969000ADF80400CFE70000A442002038B504462E
:1096A0000E480078A8B1A4F57F40FF380FD0684677
:1096B00005F046FB78B10521017001210171C480DC
:1096C000684605F04BFB05F0FBFB002038BD04208D
:1096D00038BD022038BD082038BD00006843002096
:1096E0000C4808B5007888B1684605F029FB78B1C8
:1096F00006210170684605F031FB0748017809B181
:109700000121017305F0DCFB002008BD022008BD2B
:10971000082008BD68430020E0500020F0B587B065
:1097200014216846FCF7D7FE2B4C207818B1684608
:10973000FFF7A2FE4EE0201D01F01AFEB8BB4FF06D
:10974000102041690004026940694B1C01D100FBF3
:1097500002F1224800220161A1F54051C160204977
:1097600002F0F0F9002820D11F481C238C221D494B
:10977000006801F063FD04F0F7FA050014D0022838
:1097800012D000270126062D12D005A805F0D8FA20
:1097900088B106700C2D18D2DFE805F0170F170FEF
:1097A00017161716171113110B2007B0F0BD11E093
:1097B00026706760BBE70820F7E7077105E0032123
:1097C00000E00221017100E0067105A805F0C6FA6B
:1097D00005F076FB0020E8E76843002018440020ED
:1097E000F00F03002C500020580F030038B5040080
:1097F00014D0694605F022FCA0B1BDF8000000EBD2
:109800008001094800EB8100C16849B1A17A39B1F2
:10981000C168491EC1600020A07238BD052038BD56
:10982000062038BD0A2038BDB85000201FB501A958
:10983000684605F0BFFB04B010BD07B513460A46E5
:109840006946002005F0B6FB0EBD07B513460A4673
:109850000021684605F0AEFB0EBD20B119B10068CD
:10986000086000207047052070470000F8B50D46DD
:10987000040018D0BDB1694605F0E0FBA8B1BDF801
:1098800000000B4900EB800001EB800001210C304F
:10989000666801F070FD2E6060680C306860012021
:1098A000A0720020F8BD0520F8BD0A20F8BD000018
:1098B000B850002018B10323002207F001B9052099
:1098C00070470223002207F0FBB812B1022307F011
:1098D000F7B8052070470000084910B50A69042A46
:1098E0000AD0074A096942F82100044801211030D2
:1098F00001F041FD002010BD0C2010BD48430020A8
:109900001C50002038B5044609480D46007858B16F
:1099100064B16946284607F0CDF9002803D1BDF8A7
:1099200000102180658038BD022038BD052038BD7B
:109930006843002010B504460E48007898B1A4B1E1
:109940002188022913D80C4A01EB810002EB800226
:1099500060885289C31C934209D807F09FF9002000
:109960002080608010BD022010BD052010BD0420A5
:1099700010BD000068430020B850002043F6FE717F
:10998000A0F54040884201D8012070470020704770
:1099900010B504460078182802D1FEF76FF8207041
:1099A00010BD10B504460078182802D1FEF766F8FD
:1099B000207010BD70B50D460446B0F89810D0F870
:1099C00094000122FDF771FD00B1057004F13C0225
:1099D00004F1940104F1540072DF70BD70B51346B8
:1099E000002206461546862902D0112902D002E03F
:1099F000012200E001250D4C73B1A179FEF762F858
:109A00002A4661793046FEF75DF80022A17830469B
:109A1000FEF758F8002203E0A178FEF753F82A4633
:109A200061783046BDE87040FEF74CB8CC4200206B
:109A3000F7B517460E0011D00098002560B100243C
:109A40002146684601F079FC18B1A0B23946B0470A
:109A50006D1C641C142CF3D32846FEBD0020FEBDF3
:109A6000406805F08DB900000EB516A19DF80800FC
:109A700020F00F00401C20F0F00010308DF808009E
:109A8000052202A87CDF20B1104A40F22D41FCF7EC
:109A9000C1FB0020009001900621ADF80400ADF854
:109AA00000104FF4C8701821ADF80600ADF8021090
:109AB00068467ADF002804D0044A40F23741FCF7B8
:109AC000A9FB0EBD52656C617900000040AF020039
:109AD00070B508B1012070BD194C0025207B08B17C
:109AE000257301E000F0A0F82078082826D2DFE8EE
:109AF00000F02504080C10251420BDE8704000F08B
:109B000021B8BDE8704000F07DB8BDE8704000F0BD
:109B10005FB8BDE8704000F03BB86088084900EBD2
:109B20008000283901EB80004068BDE8704004F0F7
:109B3000FBB86560BDE8704004F004B90F2070BD4B
:109B4000E05000201149F0B48A1C00200346A1F126
:109B500028050C18A67A4EB1A37200EB800405EB21
:109B60008404E66816B9247C012C0AD0401C80B21B
:109B70000228EED30B704B804B60F0BC41F61D50B9
:109B800070471080F0BC00F03DB80000E0500020AD
:109B90000C48418801EB8102A0F1280101EB820110
:109BA000CA6852B10521017007480221818001680D
:109BB00000230122054801F02FBF042202704968EA
:109BC000F6E70000E0500020704300201844002019
:109BD00038B50A49084803240B684268898803EBB2
:109BE000810153880470DB1C00201B0400909B0B38
:109BF000034802F081F838BDE05000207043002097
:109C000018440020074910B54888091D05F066FA78
:109C100018B1BDE81040FFF7DBBFBDE81040FFF70B
:109C2000B7BF0000E0500020F0B51F481F490125D4
:109C3000067802248B88A0F12802082E19D2DFE8CA
:109C400006F00418181B222F2F170189491C0181C7
:109C50000021418080F80C1001EB810312F82330C1
:109C600043B100234418491C89B2A3720229F3D3DB
:109C70000570F0BD0123F5E742685288D21C1A44F2
:109C80008A800470F0BD46880D6806EB860602EBFC
:109C9000860256680E60556013818C80062100E0B4
:109CA00007210170F0BD0000E0500020704300204B
:109CB00030B501888488224D85B0502924D052299E
:109CC00002D0542931D103E0204600F0E5FF2CE01A
:109CD00014221C496846FCF7D7FBADF80240204629
:109CE00000F018FCADF8040000F022F900226979B8
:109CF0002046FDF7E7FE002229792046FDF7E2FE27
:109D00006846FFF72DFC10E0017B01290DD1817A17
:109D100001290AD10089A0F52451023905D1012178
:109D2000204600F0EDFF06F017FD00220649E87816
:109D3000FDF77CFE05B0BDE8304005F07FBD0000BA
:109D40008C420020180E03005572020010B5044624
:109D5000007800280FD1608800F09EFF608800F036
:109D600081F9002807D00449608801220979BDE8FB
:109D70001040FDF7A7BE10BD8C42002010B5124C5C
:109D800000202070FDF77AFEA070FDF777FEE070EE
:109D9000FDF774FE2071FDF771FE6071A17818293E
:109DA0000FD0E17818290CD02179182909D018286A
:109DB00007D00121601C04F0A9FD012020700020C3
:109DC00010BD032010BD00008C4200207CB504466D
:109DD000007808282FD1607A38BB207A4FF6FF75BB
:109DE00001280DD0072802D0082824D11EE0A08821
:109DF00000F0CEFAA8421ED0012100F081FF1AE047
:109E0000A0886A46012104F0D7F870B9019800785B
:109E100058B1A08800F0BCFAA8420CD00849012231
:109E20000979FDF74FFE05F009FD04E00448002123
:109E3000401C04F0A6FDBDE87C4006F08DBC00008F
:109E40008C42002010B504460A4841782046FDF7B0
:109E500021FE68B10848002101EB410200EB8202BB
:109E60005288A24201D1C8B210BD491C1429F3D3B3
:109E7000FF2010BD9E4200209C4B002070B5094D74
:109E8000094E002404EB440005EB80007178408803
:109E9000FDF700FE20B1641C142CF3D3FF2070BD2D
:109EA000E0B270BD9C4B00209E4200202DE9F041A5
:109EB0008046024601200021FCF7D3FA1A4F0546DE
:109EC0000E467868FDF7F0F800280CD1174CD4E95D
:109ED000062110462A4001EA06031A4305D0A8438A
:109EE000B143C4E90601BDE8F081404603F02AF819
:109EF00030B1D4E9040128433143C4E9040105E049
:109F0000D4E90410A943B043C4E90410D4E906011C
:109F100028433143C4E90601A1687868BDE8F041EF
:109F20000022FDF77DB800003C0F03000043002035
:109F30001CB5054AD2E90212CDE900120022694699
:109F400004F05FF81CBD0000300E030003484FF61C
:109F5000FF7181800121017000207047984200202C
:109F60002DE9FC41804600F0D5FA002403250127A5
:109F7000A0F57F412646FF3908D06A46082104F043
:109F80001BF818B90198841D8688056832462B464F
:109F900021464046B1DF042804D0082804D00B280D
:109FA00008D002E0112000E00020002F00D10B209B
:109FB000BDE8FC810027A80701D50125E6E7344369
:109FC000F5D0002426460325E0E72DE9FC41804634
:109FD00000F0A0FA0646A0F57F40FF380ED001251C
:109FE0002A466D1C0027ADB26B460821304604F0AE
:109FF0000DF8040006D0072C25D025E043F202001E
:10A00000BDE8FC81019903230A1D0B604046891DB0
:10A01000B2DF040004D00C2C09D0052C09D009E0D3
:10A0200032460821104604F067F804460CE0012788
:10A0300000E000240821304604F04AF800B103246F
:10A04000002FCDD100E00C242046D9E704488088B9
:10A05000A0F57F41FF3901D005F0FABB7047000041
:10A06000984200200EB502A9019100F053FA6A4609
:10A07000012103F0A1FF08B100200EBD0198007876
:10A080000EBD00002DE9F04107464FF6FF760A4865
:10A09000B3DF10B10320BDE8F081074C43F20305A4
:10A0A000A41E324661883846AFDFA842F3D16088EB
:10A0B000401C6080F5E700009A420020428800EBD7
:10A0C00082020C328A4201D9022070478188A1F5B0
:10A0D0007F42FF3A03D0008808B10020704701207A
:10A0E0007047884204D20068401C01D001207047AC
:10A0F0000020704770B594B00024054607949DF881
:10A100001C000E4620F00F00401C20F0F000103024
:10A110008DF81C00087B8DF81D009DF81E001C2189
:10A1200020F00600801C8DF81E006846FCF7D3F96D
:10A130009DF80000019440F010008DF8000007A881
:10A14000CDE9044001208DF84E00039442F63720FB
:10A150000694ADF84C000D94707B8DF83400B07B04
:10A160008DF835009DF83600142120F00600801C83
:10A1700020F0180040F001008DF8360008A8FCF728
:10A18000AAF913A808900DA809900EAA0021284644
:10A1900000F012F8ADF828001420ADF82C000EA83D
:10A1A000ADF82A400C90E88805F1080308AA694632
:10A1B000AADF14B070BD00002DE9F04104464079DB
:10A1C0009046002500B1042594F8220008B145F01E
:10A1D0000205CAB2FF2908D9090A88F8012045F00A
:10A1E000010588F80210032602E088F80120022603
:10A1F000B4F84C0008B145F0100500271BE000BF83
:10A2000094F84E10B21C91420BD2B4F84C0004EBFF
:10A210004701C01B420004F124002431FCF734F94B
:10A220000DE004EB470008EB0601808C0870000A83
:10A230004870D6B27F1CB4F84C00B842E0DC34F869
:10A240004C0FC01B208088F800503046BDE8F081DC
:10A250003EB5027802230C46B3EB520F17D1B0F88B
:10A260000110ADF80010C1788DF802108188ADF8AA
:10A27000041080798DF8060002AA01A92046FCF797
:10A2800027FD032202A96846FCF737F908B1002030
:10A290003EBD01203EBD000010B50C46FFF7D2FDCB
:10A2A000FF280CD0074900EB400001EB800041681B
:10A2B00021600189A180807AA071002010BD052055
:10A2C00010BD00009C4B002070B5018890B0102993
:10A2D00059D1011D2C226846FCF7D6F89DF80400E0
:10A2E0004FF6FF76032134466D46B1EB500F2AD06E
:10A2F00003F0B8FF9DF8040040080ED001280CD0F0
:10A30000022820D118E00D99281D1131FCF745FCD9
:10A3100018B100BFBDF82C4015E00CAA0BA907200E
:10A3200003F074FF0028EED10DE00D99281D491CA3
:10A33000FFF78EFF0028EDD10CAA0BA9072003F030
:10A3400065FF0028F1D1BDF80000291D00F020FFB5
:10A35000B44218D0BDF80000214600F0C5F8BDF8A1
:10A360000000ADF82E000020ADF83040074E8DF80B
:10A370002C000BAD044600BF56F824102846884731
:10A38000641C022CF8D310B070BD0000440E030012
:10A39000094A002101EB410332F82330834205D101
:10A3A00001EB410002EB800040887047491C1429F2
:10A3B000F0D34FF6FF7070479C4B00203EB50C4623
:10A3C000054603F04FFF0BE0BDF80000A04207D0A8
:10A3D0002846029900F02EF810B1BDF800003EBDED
:10A3E00001AA6946072003F011FF0028ECD14FF6BF
:10A3F000FF703EBD10B50D4C18200D4A6070002056
:10A400004FF6FF7100EB400302EB8303401C5980C1
:10A410001428F7D3FDF732FB6070182803D0012011
:10A420002070002010BD032010BD00009E420020BF
:10A430009C4B00202DE9F0410C46054600F1110728
:10A4400001F111061022491C401CFCF756F848B9CE
:10A45000681C00F01FFA28B1601C00F01BFA08B15C
:10A46000012400E0002431463846FCF796FB3B7897
:10A470000222B2EB530F0CD00321B1EB530F08D0E3
:10A480003378B2EB530F04D0B1EB530F01D001215D
:10A4900000E00021084201D18C4302D00120BDE838
:10A4A000F0810020FBE7018811B9421892780AB1C7
:10A4B00001207047491C0829F7D30020704710B5C8
:10A4C0000C460346FFF7EFFF00280AD018882188C2
:10A4D000884205D10822A11C981CFCF70EF808B18F
:10A4E000002010BD012010BD04F05CB870B504461A
:10A4F000FFF74EFF0546204603F061FD4FF6FF7162
:10A5000004468D4203D014B9284604F04BF8204687
:10A5100070BD000010B5FFF795FCFF2805D0044979
:10A5200000EB400031F8200010BD4FF6FF7010BD69
:10A530009C4B00203EB5044603F094FE0EE00199CA
:10A5400020464631FFF7BBFF28B9019920462A3142
:10A55000FFF7B5FF10B1BDF808003EBD6A4602A97D
:10A56000072003F053FE0028E9D14FF6FF703EBDEF
:10A5700010B50A4941600A4800F0FAFE58B902F0E5
:10A580002DFB07491C238C22087404488C39001FBA
:10A59000006800F053FE002010BD0000E40F03002F
:10A5A0007C5100202DE9F0412D4F002518B17D6030
:10A5B0000120BDE8F0810879012258B1294E012817
:10A5C0000CD0274C4FF002080834022821D0032871
:10A5D00042D128E00A7103F0B5FB3BE05FF00000D8
:10A5E00000EB800116F82110022908D0401C80B22F
:10A5F0000228F5D33A707D6041F61D50D9E700EB93
:10A60000800006F8205006EB8000406803F08CFBC9
:10A6100020E00D71A4F80480002301221248216873
:10A6200001F0FAF916E00D71206803F07DFB0D4989
:10A6300023682831498801EB810206EB8201D1F8B9
:10A6400004C0C4F800C04B60A3880B81A4F8048048
:10A6500006F822500028ACD07D600E20A9E700004B
:10A6600068430020B85000201844002001460348E9
:10A6700002888A4200D0002070470000DC4700209A
:10A680002DE9FC5F0E008346DDE90C47C6F10000B2
:10A6900098469246814600D40846012503E000BF53
:10A6A00090FBFAF06D1C5045FADAA84500D94546F2
:10A6B00024B1002E01DB780700D5641EB80702D54F
:10A6C000B8F1000F0AD0F80708D13CB1A54205D275
:10A6D00020215846641EFEF73DFAF6E7002E02DA06
:10A6E0004E462D2102E0780703D52B215846FEF770
:10A6F00031FA07F0030002280BD1B8F1000F08D19E
:10A700003CB1A54205D230215846641EFEF722FA1C
:10A71000F6E7CDE90047434652463146584605F034
:10A72000C1FFBDE8FC9F000070B50D4604460068FF
:10A730004FF4887102F00AFB4FF49071206802F028
:10A7400005FB4FF49271206802F000FB4FF4A271F8
:10A75000206802F0FBFA20681249C0F80413206850
:10A760006907000B40B2090E002806DA00F00F005E
:10A7700000F1E02080F8141D03E000F1E02080F8F3
:10A78000001420680121000B40B200F01F0291402C
:10A790004009800000F1E020C0F88012C0F80011EC
:10A7A00070BD0000100302000246002012689307EB
:10A7B00002D0530702D47047500714D502F00300AB
:10A7C000012802D002280CD105E0C2F383100B68E7
:10A7D000801C184404E00223086803EB92521044E2
:10A7E000086001207047086800EB9253C2F389109B
:10A7F000401CEEE70248007A002800D00120704794
:10A800007C510020F0B58488A518944200D82246D7
:10A81000A41AC288D6189A4200D81346D21A4B8876
:10A820000788BB420CD34088834209D88888A0425D
:10A8300006D3A84204D8C888904201D3B04201D9B7
:10A840000020F0BD0120F0BD10B509892AB1D088E3
:10A85000491C814218D1002010BD90F8C62202EB9D
:10A860008204C4EB821200EB420212899142F2D0C0
:10A87000491C198090F8C61201EB8102C2EB8111CC
:10A8800000EB4100008902E01980D088401E58800A
:10A89000012010BD0021425C0AB101207047491C13
:10A8A0001029F8D300207047800701D0002070479E
:10A8B000012070470A4810B5807860B1002401E09B
:10A8C000022C06D02046FDF7FBFE641C042CF7D3B7
:10A8D00010BD0324F6E7BDE81040FDF711BF0000EE
:10A8E0005C42002003480179C90702D00078FEF7D6
:10A8F0000DB870475C420020172101804180002183
:10A90000017141711B218171C17170472DE9FE4FA9
:10A910002B4D984691460F00824601D000260DE04F
:10A92000684600F061FC6A460021504603F0B3FA25
:10A930002878009E10B99DF8090098B14A46314622
:10A94000504605F03FFA0446014600225046FFF704
:10A9500045F80D2C32D008DC84B3082C2ED00B2CFB
:10A960000BD12BE00520BDE8FE8F112C10D0862CDA
:10A970001AD0A4F54050023820D00325B8F1000FBA
:10A9800004D0324621465046FEF7B0FD2846EAE79D
:10A990003A4629795046FDF795F84A46E9785046F7
:10A9A000FDF790F80025E9E73A4629795046FDF78A
:10A9B00089F84A46E9785046FDF784F82546DDE7F0
:10A9C000CC4200207CB50D4606466A460721284643
:10A9D00003F0F2FA040005D0052C0FD0112C1DD085
:10A9E00003241BE0019C94F84400183410F001008B
:10A9F00001D0019C34340CB110B106E011240DE0FB
:10AA000004F11200FFF74FFD38B1224604F11201A4
:10AA1000304685DF04000FD000E00B240021002227
:10AA2000304604F071FE4CB1002200232946304626
:10AA300004F04EFE20467CBD0121F0E70122F4E740
:10AA40002DE9FC4716000D4681464FF002084FF0F5
:10AA5000000710D03078C00720D04FF6FF744FF0B9
:10AA60000108A54203D103F09DFA05460127A5423E
:10AA700006D1032417E0002148467EDF04461BE090
:10AA80006B4601220721284603F0C0FA04000AD1D0
:10AA90000721284603F044FB040004D13146484610
:10AAA0007EDF04001CD00721284603F011FB18B1FB
:10AAB000052801D0032404E0042C01D084B100E077
:10AAC000112400214246484604F01EFE54B10022E3
:10AAD0003B462946484604F0FBFD2046BDE8FC877E
:10AAE0000121EFE70122F3E72DE9F041204F0E4667
:10AAF000154604463978FCF7CDFF002835D02046AE
:10AB000003F0C0F950B32046FFF704FD804620460D
:10AB1000B978FCF7BFFF08B1012700E00227204603
:10AB200003F058FC0028404602D0FFF7DFFC0DE0A0
:10AB3000A8F57F41FF3909D0072103F0C9FA0100C8
:10AB400004D0052902D0204604F040FE2B463246B0
:10AB500039462046BDE8F041FEF79EB92A46314607
:10AB60002046BDE8F041FEF721BCBDE8F0810000C1
:10AB7000C442002070B5094D0646E978FCF78AFF0B
:10AB8000044629793046FCF785FF014622463046C7
:10AB9000BDE870400123FFF7B9BE0000CC420020A1
:10ABA0002DE9F047394E002780463D46DFF8E0901A
:10ABB000D6F804A057E003D00446D0F81C8035E056
:10ABC00099F8002002EB4201521CD2B289F8002011
:10ABD00009EBC10199F80230091D9A4201D189F8A7
:10ABE000005048680A780446012A12D0022A02D08E
:10ABF000032A3BD108E005F023FB00B101272574AF
:10AC000034E00574C06900E070680028F9D1706014
:10AC10002CE0207C50BB88686060C868A060086930
:10AC2000E0604869A061F07800B165606268B16871
:10AC3000184B501A20F07F40984202D2A168084475
:10AC400006E0881AA16820F07F40814202D9081AE4
:10AC5000206000E0256065600120A560207420462A
:10AC6000E56105F0CFFAB8F10000A4D199F8001021
:10AC700099F801008142A3D117B97168514502D0FA
:10AC80000120BDE8F0870020FBE700002043002002
:10AC9000F84E0020FFFF7F0030B585B00546002448
:10ACA00014216846FBF717FCA5F57F40ADF802506C
:10ACB000FF3815D02846FFF753F998B10B2815D067
:10ACC000112811D0A0F54051023903D00146284681
:10ACD00004F068FD09482246C1782846FCF7F2FED8
:10ACE00005B030BD0E2002E00124F3E70F208DF8FF
:10ACF00000006846FEF734FCECE700008C420020C0
:10AD00000A4602498978FCF7DDBE00008C4200202B
:10AD1000F8B5054600780C46002620420FD10020E9
:10AD20008DF800006846FCF7CFF92878204202D160
:10AD30002043287001269DF80000FCF7E9F9304611
:10AD4000F8BD00002DE9FF410026234800F00DFB6F
:10AD50002148001F074600F008FB204C6068009067
:10AD6000A56800E000986946284004EB80000C309C
:10AD7000FFF71AFD0028F5D101AA009901EA0503A1
:10AD800004EB8303491CDB6842F82030401C00912F
:10AD90000228F2D3019800F0030001280BD002280A
:10ADA00010D10198032101EB90500099BDF80A6081
:10ADB00001EB900005E00198BDF80A60C0F3831034
:10ADC00008440090384600F0CDFA08B10098606061
:10ADD00004B03046BDE8F081B45600209C520020FB
:10ADE00088B04FF40041002001F0A8FB20B154A22C
:10ADF00040F2E641FBF70EFA01F0F4F9FCF7E6F851
:10AE000020B14FA240F20751FBF704FA00210320C2
:10AE1000FDF732FD20B14AA240F21441FBF7FAF9E6
:10AE200069460020FDF790FC20B145A240F2174191
:10AE3000FBF7F0F99DF80000022875D05FF00006DE
:10AE400001F09AFC20B13EA240F2F241FBF7E2F998
:10AE5000FDF784FBFEF708FE00213D4800F01BFBD8
:10AE600020B137A24FF48861FBF7D4F91C21684662
:10AE7000FBF731FB00204FF42031CDE900014FF406
:10AE80007021032502918DF80C504FF6FF7105904B
:10AE9000ADF80E102F48012106908DF8101068466D
:10AEA000FCF772FD20B126A240F25741FBF7B2F940
:10AEB0002948FCF751FE20B121A240F27741FBF76F
:10AEC000A9F903F07DFB2548254F002440F24B589B
:10AED000CDF8000007EB04106946FDF729FA18B118
:10AEE00017A24146FBF796F9641CE4B2042CF1D397
:10AEF00004F05AFDFBF7B6FE1A4C1BA1208805EBA7
:10AF0000004001F08DFA8EB120881DA105EB0040B4
:10AF100001F086FA03F044FE50B109A240F2054167
:10AF2000FBF778F904E0FFE7012689E7FBF75AFE13
:10AF300001F066F90028FBD101F032FCF8E70000CF
:10AF40002E2E5C2E2E5C2E2E5C6D61696E2E6300A3
:10AF5000E8440020398E0200998F02005D800200D3
:10AF6000104600206C44002052656C6179206578A1
:10AF7000616D706C6520737461727465642E00007D
:10AF8000457261736520626F6E647321000000007A
:10AF900070B5144682880E4605462088111D01446E
:10AFA000921C994201D8FE2A01D90C2070BD521C76
:10AFB00032542088FF21401C80B2208031542088E8
:10AFC000401C80B220808119288805F055FB21881B
:10AFD000084480B22080AA8842B1A96841B13044B7
:10AFE000FBF752FA2088A98808442080002070BD11
:10AFF000072070BD2DE9F047C7880446181D164686
:10B000008946B0FBF7F1B0FBF7F207FB12009A1983
:10B010003A44D21CB2FBF7F2DDF820A001E024682C
:10B02000491E0029FBD13D1A8846B54216D818E0C2
:10B03000BAF1000F05D0211809EB08002A46091DB6
:10B0400004E0204409EB08012A46001DFBF71CFA26
:10B0500000202468761BA844B74201D9354600E099
:10B060003D46002EE4D1BDE8F087000030B5024631
:10B0700059B101F08FFA0021074C09E004EB81037C
:10B0800015685B88AB4202D11160002030BD491CBD
:10B090008142F3D3052030BD2C44002010B5104B65
:10B0A00000224FF6FF7400BF02EB420103EB810167
:10B0B0004988A14210D102EB420103EB8102014613
:10B0C000104600F0B3FA002809D0BDE8104005A2F0
:10B0D0004FF41C71FBF79EB8521C052AE4D310BD37
:10B0E0001C4500202E2E5C2E2E5C2E2E5C6D616980
:10B0F0006E2E6300F8B50F46017814460546012907
:10B1000001D1687830B12088821C9A422DD801295B
:10B1100002D006E00720F8BD69780144891C9942F5
:10B1200023D8181A801E86B2ADF800602188B81C9A
:10B13000084469467DDF0028EDD12878022805D132
:10B14000BDF80010B14201D809210AE00821012808
:10B1500005D16878B04202D8ADF8000001E0ADF842
:10B160000060BDF80000FE2801D90C20F8BD22883F
:10B17000401CB8542088401C80B22080395420885C
:10B18000401C2080BDF80010084420800020F8BD3D
:10B1900070B505460C004FF0FF0020D04FF6FF764B
:10B1A000B5421CD00E48012241782846FCF78AFCA3
:10B1B0002846FEF747FEFF2803D1FEF75FFEFF2873
:10B1C0000DD0084B00EB400203EB82014D8023F8C9
:10B1D000226022684A60A2880A81A2798A7270BDC0
:10B1E0009E4200209C4B0020034A00219268C0E947
:10B1F0000021816070470000CC42002070B54FF6FE
:10B20000FF750E46A84201D1002000E0401C84B228
:10B2100008E02146304603F0A8FB08B1204670BD87
:10B22000641CA4B2FF2CF4D9284670BD10B5FBF7FE
:10B230004AF808B1002010BD112010BD10B531B181
:10B24000B2FBF3F403FB14241CB1092010BD0E2043
:10B2500010BD01600021416081608281C381084688
:10B2600010BD70B50C460546FAF7E2FF002802D083
:10B2700021882868084470BD10B50A8849888A4228
:10B2800003D1FBF717F8012010BD002010BD70B5E9
:10B290000C460546FAF7F1FF002802D061882868BD
:10B2A000084470BD10B50A8849888A4203D1FAF76C
:10B2B000DBFF012010BD002010BD01F01F030122A3
:10B2C0009A40D243490900EB8100114600F059B879
:10B2D0000A4601F01F030121994010B552090C469E
:10B2E00000EB820000F05DF8204000D0012010BD8E
:10B2F0002DE9F04180460D460024481E012101EB56
:10B30000501716E058F82400C04390FAA0F0B0FAA5
:10B3100080F020280CD200EB4416AE4208D2314611
:10B320004046FFF7D5FF0028ECD13046BDE8F0815C
:10B33000641CA742E6D82846F8E74A0950F82200DC
:10B3400001F01F0201219140084000D00120704708
:10B3500001F01F0301229A40490900EB81001146C8
:10B3600000F029B8002100F017B8012100F023B83F
:10B37000012100F016B808B56A46FAF7F0FF009808
:10B3800008BD08B56A46FAF7D0FF009808BD08B5B1
:10B390006A46FAF7E4FF08BD08B56A46FAF7C5FF42
:10B3A00008BD08B56A46FAF7B3FF08BD08B56A4696
:10B3B000FAF7A2FF08BD08B56A46FAF7A9FF009898
:10B3C00008BD08B56A46FAF7D7FF009808BD38B53A
:10B3D000044600258DF800506846FBF775FE21688D
:10B3E0006268086890420ED9401E08600178A38AFE
:10B3F000E26801FB0325227A2168101AC0B20A799B
:10B40000824200D208719DF80000FBF781FE2846B9
:10B4100038BD38B5054600208DF800000C4668465A
:10B42000FBF752FEE868A98A201AB0FBF1F12A68FE
:10B430001068431C136001709DF80000FBF768FE64
:10B4400038BD10B530B1017A42680368891AC9B2B3
:10B450001A6006E00E2010BD03681A68541C1C60B8
:10B460001170491EC9B2F7D2006800210171084667
:10B4700010BDC20800F007030120895C9840084015
:10B48000704710B5C20800F00703885C01249C4097
:10B490002043885410BD70B5040010D017202163DC
:10B4A000208060801B202071002504EBC500801DDA
:10B4B000FFF722FA6D1C052DF7D3002070BD0E207A
:10B4C00070BD00002DE9F04185888EB00C46052D39
:10B4D0007ED20188464E4FF00008242940D006DC79
:10B4E000102909D011290CD023295FD154E03A2921
:10B4F0000DD055295AD12EE00146204602F030FAEF
:10B5000054E004EBC500801DFFF7F6F94EE0294634
:10B5100004EBC107408937F8062F824200D8104655
:10B520007880172800D217207880206B70B1787946
:10B5300060B1D6E90002CDE90002ADF802107888CA
:10B54000ADF80400226B20466946904787F80580D5
:10B5500087F804802AE00146204602F0C9FA25E077
:10B56000011D2C226846FAF78FFFBDF80000BDF8D8
:10B57000042004EBC0014A73226BBAB1D6E904235C
:10B58000CDE90B23ADF82E00487B8DF83000226BFF
:10B5900020460BA9904709E004EBC503017A187B0C
:10B5A000884200D201462846FDF798FC04EBC5040A
:10B5B000A07A002818D0E1882846A5DF012580B1AF
:10B5C000112811D001F0A2FB02460A48008800E0D1
:10B5D0000AE00EB005EB0040BDE8F04106A100F026
:10B5E00023BF84F80A80E5720EB0BDE8F081000048
:10B5F0004C0E03003044002073645F626C655F672B
:10B60000617474635F65786368616E67655F6D74AC
:10B61000755F72657175657374282920726574751C
:10B62000726E65642025732E0000000020B1027840
:10B63000DE2A03D0082070470E207047418000208A
:10B64000704760B159B10278DE2A0AD009684160BA
:10B65000DE2101704FF6FF714180002070470E20FF
:10B660007047082070477FB5054600294DD0002D52
:10B670004BD008780C46DE2847D1A88861888842DC
:10B6800002D1204605F0B8F82888012825D00228E4
:10B690003BD011283AD0512837D135F8040F6188B2
:10B6A000884232D1A978A81C02292ED1017A042916
:10B6B00003D0062901D0052927D1002100910222BB
:10B6C0008DF8002001914FF4C07202910391ADF802
:10B6D0000420007A05280FD010E0297A204601299D
:10B6E00013D1A988428891420FD10121017204B07F
:10B6F000BDE8704005F080B8ADF8041028886946B0
:10B70000B0DF002801D0616888477FBDA8886188C4
:10B710008842FAD14FF6FF7060807FBD00F1804013
:10B720000068002800D00120704708B500F1804073
:10B73000002101600068009008BD000070B50B4C4E
:10B74000207808B185250FE00020A06060602061AE
:10B75000E060074801F016FB054601F03FFA08B922
:10B7600001F0FAFA01202070284670BDF84D002043
:10B77000A98C020038B500258DF800506846FBF70B
:10B78000A3FC074CE068401EE060E06810B901F0DF
:10B7900009FBA5709DF80000FBF7BAFC38BD00005E
:10B7A000F84D0020F0B505460478154889B01646D6
:10B7B00040F82420124A0869121DA2F1080742F835
:10B7C0002400487F385520226846FAF75DFE04942D
:10B7D0002878385C48B10EB10A4A00E00022694678
:10B7E000281D01F05FFD09B0F0BD0EB1064A00E072
:10B7F0000022694605F10C0001F026FCF3E7000089
:10B80000E842002055050300990303000FB408B572
:10B810000399002904D004AA00926A4600F00FF8A8
:10B8200001B05DF814FB10B582680446002A05D00B
:10B83000D4E90403216898470020A06010BD2DE9D9
:10B84000FC4791460C00804676D014F8011B39B1B4
:10B8500025290ED04046FDF77DF920780028F4D147
:10B8600098F80C00002867D04046BDE8FC47FFF779
:10B87000DABF0020012221782B291BD02D2902D0EC
:10B88000302908D102E040F0010001E040F0020060
:10B89000641C002AEFD100252A290ED02178A1F1BD
:10B8A00030020A2A11D205EB850201EB4205641C25
:10B8B000303DF1E740F00400EAE7D9F800100B1D35
:10B8C000C9F800300968641C0D44217800232E2932
:10B8D0000BD114F8011FA1F130020A2A05D203EBA3
:10B8E000830201EB4203303BF3E76C290DD068295A
:10B8F0000BD0692921D00BDC252918D0582931D04B
:10B9000063290ED0642915D117E014F8011FECE764
:10B91000702969D0732932D075291BD0782909D1B3
:10B9200020E0D9F80000011DC9F800100178404658
:10B93000FDF710F9641C90E76CE0D9F800100A1DBF
:10B94000C9F800200968CDE900500A224046FEF7F8
:10B9500097FEEFE7D9F800100A1DC9F80020096822
:10B960000A2206E0D9F800100A1DC9F8002009686B
:10B970001022CDE90050404604F094FEDAE7D9F8F1
:10B98000001000270A1DC9F800200E68C00705D165
:10B9900012E04046761C7F1CFDF7DCF83178002968
:10B9A000F7D104E0202140466D1EFDF7D3F8BD42DB
:10B9B000C0D9002DF6D1BDE74EB13046FAF796FD5D
:10B9C000074604E0202140466D1EFDF7C3F8BD4246
:10B9D00006D9002DF6D103E04046761CFDF7BAF8F3
:10B9E00031780029F8D1A5E7D9F80000011DC9F880
:10B9F0000010056830214046FDF7ACF8782140463C
:10BA0000FDF7A8F808200021CDE900010346102227
:10BA10002946B0E7BDE8FC872DE9F84F2B4E04001E
:10BA20009A4630884FF001031546894603EB0040E3
:10BA300024D0216800292BD0002D32D062684946DD
:10BA40004FF010071268A2F1010C1CEA090F11D186
:10BA500098466A432046FBF7B9F800282AD02068A8
:10BA600053462A46066901B049462046B446BDE819
:10BA7000F04F6047164B17A2009721E00E2100916E
:10BA8000134B1EA21FA100F0DEFC0E20BDE8F88FB4
:10BA9000082100910E4B26A21AA100F0D4FC082028
:10BAA000F4E7092100910A4B24A216A100F0CBFC77
:10BAB0000920EBE700973188054B214A08EB01404C
:10BAC00010A100F0C0FC1020E0E700005C44002062
:10BAD000CB0F0300616464725F69735F70616765B7
