:020000040002F8
:1060000090760020DD630200E5630200E763020092
:10601000E9630200EB630200ED6302000000000090
:10602000000000000000000000000000EF6302001C
:10603000F163020000000000F3630200F563020058
:1060400079670200F7630200196B0200F763020030
:10605000F7630200F7630200B1650200F763020014
:10606000F7630200F7630200F7630200F7630200C0
:10607000F7630200F7630200F7630200F7630200B0
:10608000F7630200D1670200F7630200F7630200C2
:10609000F5670200F7630200F9670200F763020088
:1060A000F7630200F7630200F7630200F763020080
:1060B000F7630200F7630200000000000000000028
:1060C000F7630200F7630200F7630200F763020060
:1060D000F7630200F7630200F763020000000000AC
:1060E00000000000000000000000000000000000B0
:1060F00000000000000000000000000000000000A0
:10610000000000000000000000000000000000008F
:10611000000000000000000000000000000000007F
:10612000000000000000000000000000000000006F
:10613000000000000000000000000000000000005F
:10614000000000000000000000000000000000004F
:10615000000000000000000000000000000000003F
:10616000000000000000000000000000000000002F
:10617000000000000000000000000000000000001F
:10618000000000000000000000000000000000000F
:1061900000000000000000000000000000000000FF
:1061A00000000000000000000000000000000000EF
:1061B00000000000000000000000000000000000DF
:1061C00000000000000000000000000000000000CF
:1061D00000000000000000000000000000000000BF
:1061E00000000000000000000000000000000000AF
:1061F000000000000000000000000000000000009F
:10620000DFF80CD000F096F90048004795AA02008C
:106210009076002000B583B002900091019244F284
:10622000010071466A4600F0D3FD03B000BD0000D6
:1062300030B450E8012F93B2C48923448489A34227
:1062400028BF1B1B0489A34202BFBFF32F8F00206E
:1062500007E0C3EA020340E80134002CE9D14FF023
:1062600001000A6030BC704750E8012FC2EA0242C8
:1062700040E801210029F7D1704730B450E8022FDF
:106280001FFAA2F3C488A34202BFBFF32F8F0020DE
:106290000DE0C48923448489A34228BF1B1BC2EAA2
:1062A000034340E80234002CE8D14FF001000A60BB
:1062B00030BC704750E8022FC2EA224240E8022177
:1062C0000029F7D17047034653E8022FD988B2EB73
:1062D000324F4FF0000017BF92B241EA014142EA4B
:1062E000014104E05A68B2EB324F08BF012043E895
:1062F0000212002AE8D1704730B4044654E8000F77
:106300000D4644E80053002BF8D1156030BC7047AF
:1063100030B4044654E8000F40EA010544E8005355
:10632000002BF7D1156030BC704730B4044654E8F8
:10633000000F00EA010544E80053002BF7D1156077
:1063400030BC704730B4044654E8000F80EA0105C1
:1063500044E80053002BF7D1156030BC704730B4CF
:10636000044654E8000F00EB010544E80053002BFD
:10637000F7D1156030BC704730B4044654E8000FC4
:10638000A0EB010544E80053002BF7D1156030BCA9
:10639000704770B404464FF0000054E8006F0D6879
:1063A000AE4207BF44E80023012044E800630E60CA
:1063B000002B1CBF0020F0E770BC704730B40446CF
:1063C00054E8000F88422CBF451A054644E80053A4
:1063D000002BF5D1156030BC70470000064880479F
:1063E00006480047FEE7FEE7FEE7FEE7FEE7FEE7BA
:1063F000FEE7FEE7FEE7FEE7FD670200016202003E
:106400002DE9F05F0546002092469B4688460646E9
:10641000814640241BE0284641464746224600F07C
:1064200079F853465A46C01A914110D3114618467E
:10643000224600F016F82D1A67EB01084F46224657
:106440000120002100F00DF817EB00094E41201E3D
:10645000A4F10104DFDC484631462A464346BDE844
:10646000F09F202A04DB203A00FA02F10020704756
:106470009140C2F1200320FA03F319439040704782
:1064800000487047340C030010B5431A934209D2F8
:106490008318881803E010F8011D03F8011D521E2F
:1064A000F9D210BD40EA01039B0703D009E008C9F7
:1064B000121F08C0042AFAD203E011F8013B00F8C9
:1064C000013B521EF9D210BDD2B201E000F8012BFF
:1064D000491EFBD270470022F6E710B513460A4664
:1064E00004461946FFF7F0FF204610BD421C10F885
:1064F000011B0029FBD1801A704730B504460020EB
:10650000034600E05B1C934203D2E05CCD5C401B81
:10651000F8D030BD202A04DB203A21FA02F0002115
:10652000704721FA02F3D040C2F1200291400843A3
:1065300019467047064C074D06E0E06840F001033D
:1065400094E8070098471034AC42F6D3FFF75CFE9E
:106550003C1403005C14030070B58C1810F8015B48
:1065600015F0070301D110F8013B2A1106D110F8EC
:10657000012B03E010F8016B01F8016B5B1EF9D1F0
:106580002B0705D40023521E0DD401F8013BFAE776
:1065900010F8013BCB1A921C03E013F8015B01F8E1
:1065A000015B521EF9D5A142D8D3002070BD000076
:1065B0002DE9F04700268AB0DFF85091B0464FF43D
:1065C0008075012437460696284605F07FFB38B1D2
:1065D000D9F80403204203D0284605F06DFB26437A
:1065E0002D1D64007F1CADB2082FEDD34FF4BE7497
:1065F000204605F06BFB48B1204605F05DFB46F0F8
:10660000004606AA0121002005F042FB404D16F08D
:10661000FF0F15D00127002437420DD009EB84016C
:10662000D1F81005D1F81015C0F3042055F8242036
:10663000C1F3014102B190477F00641C082CEBD3E9
:10664000002E5FDA4FF0FF30CDF8108054E02819AB
:1066500010F8507F90F9000027F0C008401C3BD094
:1066600007A9404604F05DFD10B34FEA9719404674
:1066700002F0C8F955F820701FB1B9F1030F03D02B
:1066800006E0B9F1030F27D104A9404604F051FDFB
:106690004FF0A04101EB8800D0F8000706A9C0F335
:1066A000014A404604F03DFD18B1BAF1020F03D093
:1066B00012E0BAF1030F0FD1B9F1030F08D1BAF10B
:1066C000020F1DD00221404605F0C6FA761CF6B234
:1066D00017B149464046B847641C042CB7D3002E76
:1066E00010D06A460121002005F0D2FA06990098E0
:1066F000884207D006900498002634460790A6E703
:106700000321E0E70AB0BDE8F08700000060004028
:10671000DC4D002000F01F02012191404009800063
:1067200000F1E020C0F88012704700F01F02012144
:1067300091404009800000F1E020C0F8001170474E
:1067400000F01F02012191404009800000F1E0208B
:10675000C0F8001270474907090E002806DA00F059
:106760000F0000F1E02080F8141D704700F1E020D8
:1067700080F800147047000070B54FF48076304602
:1067800004F012FE114CB50560B1304604F013FE62
:106790000120C5F80803607920B9012060712168E3
:1067A000002088474FF48276304604F0FDFD002833
:1067B0000AD0304604F0FFFD0220C5F80803216826
:1067C000BDE870400120084770BD00001443002060
:1067D00007480021C0F84011C0F84411C0F8481122
:1067E000C0F84C11C0F80011C0F8041109F038BA13
:1067F0000010014009F082B906F018B8F0B5B548AC
:106800000023021D0178101D01254FF08054062938
:106810000BD11678360708D10678C6F30316032E77
:1068200006D0042E04D0052E02D0062907D00EE093
:10683000B4F82463A84FC6F304263E6002E016783D
:10684000360704D10678C6F30316032E02D00629B4
:1068500004D00FE0A24FA14E7E670EE016783607F7
:1068600008D10678C6F30316032E06D0042E04D0F2
:10687000052E02D0062907D00EE0D4F84462994FC5
:10688000C6F342363E6002E01678360704D1067839
:10689000C6F30316032E02D0062906D011E0924E4D
:1068A000376827F0807737600EE01678360708D112
:1068B0000678C6F30316032E06D0042E04D0052E48
:1068C00002D006290AD011E04FF08046C6F80C31FC
:1068D000C6F81031834E361F336002E01678360753
:1068E00004D10678C6F30316032E02D0062905D07C
:1068F0000CE07C4F032664373E600AE016783607CA
:1069000004D10678C6F30316032E02D006290DD053
:1069100014E0764F05263E60744E78363560734E2F
:10692000083633603F263F1D3E6002E0167836078A
:1069300004D10678C6F30316052E02D0062957D0D7
:1069400062E06B4E36686B4F3E60694E361D3668AE
:106950003F1D3E60664E083636683F1D3E60644E01
:106960000C3636683F1D3E60614E103636683F1D5E
:106970003E605F4E143636683F1D3E605C4E1836F2
:1069800036685C4F20373E60594E1C3636683F1DD6
:106990003E60574E203636683F1D3E60544E2436CA
:1069A00036683F1D3E60524E283636683F1D3E60B9
:1069B0004F4E2C3636683F1D3E604D4E30363668A1
:1069C0004C4F40373E604A4E343636683F1D3E607D
:1069D000474E383636683F1D3E60454E3C36366879
:1069E0003F1D3E60424E403636683F1D3E6002E02D
:1069F0001678360708D10678C6F30316032E06D09C
:106A0000042E04D0052E02D0062907D019E0D4F8B0
:106A10005812394A01F04F01116002E0117809075C
:106A20000FD10078C0F30310032803D0042801D04D
:106A3000052806D131480168C90702D06FF001016D
:106A40000160D4F83001062808D1D4F834010628B2
:106A500004D12B48016841F48061016022487438F8
:106A6000016841F470010160BFF34F8FBFF36F8F76
:106A70004FF01021D1F80002002803DBD1F8040206
:106A8000002822DA1F4A15601F480468002CFCD039
:106A90001524C1F800420568002DFCD0C1F804425D
:106AA00001680029FCD0136001680029FCD0BFF305
:106AB0004F8F0D48F0380168144A01F4E06111432A
:106AC0000160BFF34F8F00BFFDE712491048086017
:106AD000F0BD0000E00F00F0403501400DF0ADBA10
:106AE00000C007403C050040FCED00E010560040AF
:106AF0000404001020C50040E40E004000040040E3
:106B00003C17004004E5014000E401400400FA05A0
:106B10000090D0033C44002001480068004700007A
:106B20001C43002002E008C8121F08C1002AFAD145
:106B300070477047002001E001C1121F002AFBD1FD
:106B4000704700000121202803DA814005480140F8
:106B500003E0402802DA2038814009B10120704763
:106B600000207047FC06FFBD082806D228B1012886
:106B700003D0042801D0012070470020704731B5B0
:106B800000252C462146684604F02FFA00B16D1C02
:106B9000641C142CF6D3284638BD10B560B159B129
:106BA00002780B785208B2EB530F05D10622401C35
:106BB000491CFFF7A2FC08B1002010BD012010BD48
:106BC000800701D00020704701207047C3688B42C6
:106BD00006D811440069491E814201D8012070473E
:106BE0000020704710B5002004F036FE002811D1B7
:106BF00008F07AF9002001F073FC0321064800F048
:106C0000A8FD002806D0BDE8104004A240F21B11E8
:106C1000FFF700BB10BD0000284500202E2E5C2E83
:106C20002E5C2E2E5C6D61696E2E630010B5012204
:106C30000221002001F0FAFC08B1072810D1072238
:106C40000221012001F0F2FC08B1072808D100213F
:106C50000A22084601F0EAFC08B1072800D100200A
:106C600010BD000000B5ABB0AC216846FFF733FCA7
:106C700002208DF8000001218DF802100622ADF8E7
:106C800010008DF803200E4805904FF49670229066
:106C900044F250608DF87C1023900A482990694690
:106CA000094800F08CFC20B1084A40F2E341FFF7AC
:106CB000B1FA0121044800F07FFC2BB000BD0000B8
:106CC0003E370020E1D0020028450020F0AB020052
:106CD00070B58CB015460E4600236C46C3F10F010B
:106CE000415CE1545B1C102BF8D30D2104F1100022
:106CF000FFF7F1FB0020C0F10F02315C2244401C81
:106D000011740328F7D3684646DF0020C0F10F0155
:106D1000214491F820102954401C0328F6D30CB0CC
:106D200070BD022001F0C2BB0149097900F0B2BE7A
:106D3000E842002070B50024064D06E06868012195
:106D400010F8340005F07EFE641C28788442F5D3E8
:106D5000002070BD28430020F8B515460C460646B5
:106D6000052A01D20720F8BD05F068FF18B905F023
:106D70002DFF0028F7D1124900224E600C708D6063
:106D8000C1E90422C1E906220E4D0DE006EBC40064
:106D90002968009181788DF8011000780A4A6946C7
:106DA00005F0A2FE0028DED1641EE4B2EED2BDE8FA
:106DB000F84004480021054A001D00F0F5B8000025
:106DC00028430020B4080300BD9C0200A98F0200E4
:106DD0002DE9FE4314460F46804672B605F038FA98
:106DE00005F054F80028FBD10125274EB8F1010F1A
:106DF00028D06FF4805118EB010028D0B0F5405F27
:106E00002CD06FF44051C84208D13088238805EB5C
:106E100000401EA1626805F054F906E030883A4649
:106E200005EB004020A105F045F925480068C007A2
:106E300000D000BE224603B039464046BDE8F043CC
:106E400000F080B830881FA105EB004003E03088D7
:106E500024A105EB004005F029F9E6E7A06805F05C
:106E60008FFD0346D4E90001CDE900100297308878
:106E700025A105EB0040A26805F034F930882CA16B
:106E800005EB0040E7E700009444002041535345E0
:106E90005254494F4E204641494C4544206174208C
:106EA00025733A2575000000554E4B4E4F574E2026
:106EB0004641554C542061742030782530385800B4
:106EC000F0ED00E0534F46544445564943453A20BF
:106ED000415353455254494F4E204641494C454435
:106EE00000000000534F46544445564943453A205C
:106EF000494E56414C4944204D454D4F5259204131
:106F000043434553530000004552524F52202575CC
:106F1000205B25735D2061742025733A25750D0A69
:106F200050432061743A20307825303878000000D2
:106F3000456E64206F66206572726F722072657094
:106F40006F72740008B501238DF800309DF8003091
:106F5000144B186059609A606FF48041401807D054
:106F600001280FD1DA60D86800889861D86807E0F6
:106F70001A61186980685861186900689861186911
:106F80004068D861186858689868D868186958695E
:106F90009869D86972B600BF9DF800000028FBD13F
:106FA00062B608BDA84E0020074B9B7823B12AB1DA
:106FB00020B10068037C1BB1082070470720704790
:106FC0004174426100207047C84E002070B507F040
:106FD0002BFF104800240B21047044700E4D81706B
:106FE00014206C602C706C70FFF794FB0721142048
:106FF000FFF7B1FB1420FFF798FB08480460072156
:107000001120FFF7A8FB0548001F0068A8600020BA
:1070100070BD0000C84E0020484300200815014004
:107020002DE9FC47DFF8789099F8023073B368B324
:10703000052902D20720BDE8FC87436933B3437CAE
:10704000012B25D0002704460025884616468DF8DA
:107050000050684600F038F801A809F09BF8C8B164
:10706000012101700F4944600968C0E90218C0E9B4
:1070700004769DF8040089F801009DF8000000F0F6
:1070800047F81420FFF75CFB2846D4E70820D2E736
:107090000F46D8E704259DF8000000F039F8F3E723
:1070A000C84E0020041501400649897839B130B135
:1070B000416921B100210174022108F0ADBD082011
:1070C00070470000C84E002030B5EFF3108172B653
:1070D0000D4A9468012324B10370002900D162B6DF
:1070E00030BD93604FF0E023D3F88051074C25402A
:1070F0001560C3F88041D3F8844154605A17C3F82F
:10710000842100220270E8E7D44F0020FC06FFBD76
:107110000B498A68002A11D000280FD1EFF31080A4
:1071200072B60B684FF0E022C2F800314B68C2F82B
:10713000043100228A60002800D162B67047000046
:10714000D44F00202DE9F041064608680C46411C4A
:107150004FF0A0474FF0010506D005FA00F1C7F83F
:107160000815206804F064FD6068411C02D000210D
:1071700004F04CFD3168A069C1F82405607D227DD2
:1071800031681043C1F86C05D4E900123068C0F8CA
:107190001425C0F80C15207D012815D1A068411CCC
:1071A00002D0002104F032FDE068411C05D085408A
:1071B000C7F80855E06804F03BFDD4E902123068D6
:1071C000C0F80825C0F81015BDE8F0812DE9F041A0
:1071D000064608680C46411C4FF0A0474FF00105D9
:1071E00006D005FA00F1C7F80815206804F02AFD5A
:1071F0006068411C02D0002104F011FD3168A069D3
:10720000C1F82405607D217D32680843C2F86C0511
:10721000D4E900123068C0F80C15C0F81425207DA0
:10722000012815D1A068411C02D0002104F0F7FC10
:10723000E068411C05D08540C7F80855E06804F0B7
:1072400001FDD4E902123068C0F80825C0F8101515
:10725000BDE8F08103F07ABB2DE9F04707460088CE
:107260008EB0804602F0B0FF824604462D480025CD
:107270002A460178404600F025FC7879400734D54D
:1072800001254FF6FF7603AB2A460721504606F04C
:10729000F3FC010004D0404607F0F4FF00252BE08A
:1072A000B1463146049802F0E3FE064648450FD049
:1072B00004460146404602F071FF4046FFF734FDA8
:1072C00030B9404607F0B0FF4046FFF72DFD48B10A
:1072D00022460721504606F045FD010003D04046F6
:1072E00007F0D0FF00254E4506D0404606F0A8FE28
:1072F00010B1504602F054FF02208DF81800ADF88E
:107300001A807879400701D5012000E002208DF82D
:1073100020008DF8215006A802F04EF80EB0BDE80E
:10732000F0870000E84200202DE9FC47002517887F
:107330000646158090F82D001446894630B13A462D
:107340002146484600F072FC050009D1B0784FF0A4
:107350000C0A18B32088C846001DB84202D950460E
:10736000BDE8FC87684679DF0028F9D12088032131
:1073700008F8001020881921401C80B2208008F8ED
:1073800000102088401C80B2208000EB0801BDF86E
:10739000000008F02DFE218808442080F0780222A9
:1073A000C8B1218896F9033001F1030C4846BC4569
:1073B000D5D8425421884FF0010C491C89B2218054
:1073C00000F801C02188491C89B2218009F80130E8
:1073D0002088401C20807068B8B1218890F9003066
:1073E00001F1030C4846BC45B9D8425421880A2211
:1073F000491C89B2218042542188491C89B22180CC
:1074000009F801302088401C2080308950B1CDE936
:1074100000474B460622022106F1080008F0D2FE82
:1074200005009DD1308A50B1CDE900474B46072277
:10743000032106F1100008F0C5FE050090D1308B45
:1074400050B1CDE900474B461522142106F1180032
:1074500008F0B8FE050083D1306A30B13B462246C1
:10746000494601F0ACFB0500DBD1706A30B13B4608
:107470002246494603F0E4FB0500D2D196F82C00E1
:1074800038B13B4622464946304607F0A5FF050085
:10749000C7D1307838B13B4622464946304603F0E2
:1074A00081FC0500BDD128465AE718B504460020E6
:1074B000ADF8000013466A46204600F006F80028A2
:1074C00002D0BDF80000204418BD70B588B182B16B
:1074D0000024158803E0065D641C3444A4B2A54270
:1074E00003D8061976789E4201D08C42F3D38C42A1
:1074F00001D3002070BDA11C1180005D401E80B230
:1075000070BD2DE9F0418AB006460020ADF81400A8
:107510001346102088468DF804000D4606AA01A9DE
:10752000184664DFA6B398BB9DF80400022804D077
:10753000042807D0102839D10DE003208DF8100061
:10754000022003E005208DF8100004208DF81100C2
:10755000002404AF0FE007208DF810000620F5E7A7
:107560003B5D05AA41463046FFF7AFFF641CE4B21D
:107570000546022C04D2BDF814000028F0D003E028
:10758000BDF81400002812D080B2064400240BE09D
:107590000CE030199DF8042006A9FEF7AEFF48B1B3
:1075A0009DF80400204484B2AC42F2D300200AB01B
:1075B000BDE8F0810120FAE780F8301070472DE92E
:1075C000F0410D00044606D02CB195F87A00002653
:1075D000012803D006E00E20BDE8F08195F8980060
:1075E000012829D0D5F8A000042825D0D5F89C0082
:1075F000042821D04FF00108A6702C2205F1780153
:10760000201DFEF741FF84F83060D5F8A4006063C8
:10761000D5F8A800A0634FF6FF70A4F8A80004F105
:107620009400C4F8A400C4F8AA60A4F8AE6084F87A
:10763000B060207810B104E00720CDE7FF2084F887
:10764000540004F155011F27C4F89410A4F8987051
:1076500004F198022846FFF767FE0028BCD115F117
:107660003C0F0ED004F17401C4F89C10A4F8A07073
:1076700004F1A00205F13C00FFF756FE0028ABD153
:1076800003E0C4F89C60A4F8A06084F85180208BCB
:10769000A4F8480084F83C80266484F8506060694F
:1076A0006064454604F13C02002104F1540072DF9D
:1076B000002891D125708FE710B50288102A1BD0C1
:1076C000112A20D0262A1DD1007A0C46012801D08B
:1076D000022817D1A0780521401CB0FBF1F201FB74
:1076E0001201204600F035F800280BD0A16B0029CC
:1076F00008D0BDE810400847C27B012A02D180882B
:10770000A1F8A80010BD0C46002184F8B2108088B2
:10771000B4F8A8108842F5D120790028F2D10121CF
:10772000DFE710B50C46022801D0032810D160789D
:1077300000280DD000206070A178204600F009F8E4
:10774000002805D0A16B002902D0BDE810400847F1
:1077500010BD2DE9F05F044600780F4638B1A770E0
:10776000002004F079F8012620B1667007E10820B6
:10777000BDE8F09F0025C4F8AA50A4F8AE5084F8E4
:10778000B050A07910B1A078012806D0E07968B196
:10779000A078012801D0022808D1616B21B184F8BA
:1077A000B1600820884701E084F8B15004F1AB01D2
:1077B00000200A5C0AB1304603E0401C0628F8D3DA
:1077C00000204FF002084FF0030B012F06D0022FCC
:1077D0000CD0032F0FD0042F15D110E0A17929B1BF
:1077E00094F8241011B908B130460DE0E17911B1D7
:1077F00008B1404608E0207A08B1584604E0607AB3
:1078000008B1042000E02846A070616B41B1032854
:1078100001D0042804D1607910B194F8B200A0B16D
:1078200084F8B35004F13C0018210746FEF753FEDC
:1078300004F12C0084F83C60814606F039FD58B113
:1078400094F82C0084F8510008E084F8B45084F8CF
:10785000B36007208847E5E784F8516094F8240076
:1078600050B1484606F024FD20B194F8280084F871
:10787000520001E084F8526084F85050A27804F17C
:10788000AA0104F194094FF0060A052A60D2DFE844
:1078900002F078030F223F0084F83160C4F8A4504E
:1078A000C4E9101584F83C808020A4F8480051E019
:1078B00084F8318094F82420384612B107220270EF
:1078C00001E080F800B0228A8281C4F8A4504160AF
:1078D000E168B9603EE06069B860208BB88194F8D7
:1078E00024003D4610B184F83CA001E084F83C60DF
:1078F000204608F02BFC40B185F814800421204676
:1079000001F060FF20BB05211EE084F831B01DE0CE
:10791000E069B860208CB88194F824003D4610B12D
:1079200084F83CA001E084F83C60204608F00EFC9E
:1079300048B185F814800421204601F043FF38B98E
:1079400084F831A002E0042184F83110C4F8A49036
:10795000A07878B13A4604F15400D4F8A41072DF4C
:1079600000287FF405AF94F8301094F8540073DFCA
:107970000028F6D1616B11B194F8310088470020DE
:10798000F6E684F83150F5E770B5040012D00146F0
:107990001C221448FEF778FD1248134D056020683C
:1079A00050B17ADF002806D120680168296040685C
:1079B000686005E00E2070BD0B487BDF0028FAD11F
:1079C00008484FF6FF711438084A20F8041B05498F
:1079D000343901600021FFF7E7FA0028EBD00320DB
:1079E00070BD0000C047002098420020E500030061
:1079F000054808B5C16800918168684603F019FB25
:107A00000098FFF7BCF808BDDC47002010B504461D
:107A100000F078F8002805D02146BDE81040024863
:107A200003F0E3BA10BD0000EC47002070B5154626
:107A30000E46044608F096FB002809D0054800EBE6
:107A4000840080692A463146BDE8704001F0F8BEE6
:107A500070BD0000DC47002070B50546002400F032
:107A600051F838B12946044803F0BFFA08B102249E
:107A700000E00124204670BDE847002010B5182121
:107A8000034803F08DFA182800D0C0B210BD0000E2
:107A9000DC47002070B505460C46084608F062FB3E
:107AA00060B1284600F02EF840B10548294600EBA9
:107AB0008400BDE87040183003F097BA002070BD14
:107AC000DC47002070B5054614460E46084608F00F
:107AD00049FB002812D0284600F014F800280DD0E9
:107AE0000748294600EB860018301CB1BDE87040FD
:107AF00003F086BABDE8704003F037BA70BD0000ED
:107B0000DC470020142801D30020704701460148BB
:107B100003F06BBAE047002070B540B10C4D2978F6
:107B200039B1044607F05AF928B1002070BD0E2083
:107B300070BD082070BDE868062807D20549226894
:107B400001EB8001401C0A60E860EEE7042070BD94
:107B5000A04200205448002040B1054900220123E2
:107B6000CA600B70C1E90102104670470E207047D1
:107B7000A042002070B504002DD000292BD0204851
:107B80000078002827D020880D46112815D03028ED
:107B900004D0322807D033281ED109E0211D284601
:107BA00005F02EFE18E0211D284605F085FC13E0A7
:107BB000211D284605F05AFD0EE0A088B5F8CA122E
:107BC000884209D1002085F8C70285F8C8024FF61F
:107BD000FF70A5F8CA0270BD95F8C8020028FAD057
:107BE00020883028F7D34F28F5D8A088B5F8CA12D6
:107BF0008842F0D12846BDE8704001F087BA000005
:107C0000A042002048B1084A137843B1D26832B18B
:107C100090F8C7222AB1112070470E207047082023
:107C2000704701F073BA0000A04200207CB5054601
:107C300008880C460930904201D90C207CBD68466A
:107C40006DDF0028FAD121880820685420881B2184
:107C5000401C80B2208029542088401C80B22080A3
:107C60002844DDF801100160BDF8051081802088EE
:107C7000801D80B220809DF80010490800D00121AD
:107C800029542088401C208000207CBD10B504466B
:107C90008088FFF7E1FE01280BD02188262908D033
:107CA000022801D01D2909D12046BDE8104005F069
:107CB000ABBA2046BDE8104005F090BB10BD0000F7
:107CC00010B51A4C0188606810290ED011292BD1EB
:107CD000401E606028D1FEF7A9FF002824D021684B
:107CE000002921D0BDE810400847D0B90021012269
:107CF000084600F09BFC08B107280FD1072202219B
:107D0000012000F093FC08B1072807D104220221CA
:107D1000002000F08BFC20B1072802D0216801B1BF
:107D200088476068401C606010BD000090420020E1
:107D30002DE9F04701883B4E40F2F3194FF6FF75ED
:107D400010291BD011293ED0122954D0502946D1D8
:107D5000C188F289841D914241D1618902293ED1B5
:107D60008688304602F0DCFA050038D004F10C00B9
:107D700000F03CFBA8B3294630464EE0C17B878823
:107D8000044601292BD1A846284602F0C9FA05006D
:107D900017D02F8000202872234843464A460168A6
:107DA000C5F80A104068C5F80E0004F1100105F18D
:107DB0000A0002F081FB6872F08900280FD1294681
:107DC0002AE0042013E0808802F0AAFA040006D01A
:107DD0006068FFF769F908B107F038FA2580BDE857
:107DE000F087FFE76868FFF75FF90028F7D0BDE884
:107DF000F04707F02BBA87880646384602F090FA1B
:107E00000400ECD02B464A4606F1080104F10A00B2
:107E100002F052FB607221463846BDE8F04700F0A0
:107E20001FBF0000C0470020984200202DE9F04FFE
:107E30000746858802883E48012197B08346102A6C
:107E400009D0112A4BD01A2A6ED1387AB1EB101F03
:107E500047D2012246E0364C083CA068C0430B9054
:107E600061680BA803F0E5F80B990CA800F088FEF8
:107E70002C220CA96846FEF707FB0026E946A0461F
:107E800010E000BF09EB46005FF00004B0F804A06A
:107E900008EB84005146001D03F067F8641C1D2C9C
:107EA000F6D3761C0098B042ECD8142D07D317B047
:107EB000E321BDE8F04F1FA20420FEF7ABB929462D
:107EC000584603F09DF8294608F1040003F098F89D
:107ED000F87B012828D016482946001D15E02946C0
:107EE0001AE000220221B1EB101F01D2012600E0AE
:107EF00000260F49083901F11000041D294682B1FE
:107F000003F07EF836B12946204617B0BDE8F04FA1
:107F100003F076B82946204617B0BDE8F04F03F0CD
:107F200024B803F022F8F5E717B0BDE8F08F0000A1
:107F3000E44700202E2E5C2E2E5C2E2E5C2E2E5C16
:107F40002E2E5C2E2E5C2E2E5C636F6D706F6E6518
:107F50006E74735C626C655C636F6D6D6F6E5C629A
:107F60006C655F636F6E6E5F73746174652E630022
:107F700010B504460748007800280AD0204601F0D2
:107F8000FDFF204607F06CFA2046BDE8104001F0E6
:107F900097BD10BDD84200202DE9F0474A4E8146DA
:107FA0000C4630880978032707EB004081B101298E
:107FB0002BD002297AD145A104F078F83088B9F89D
:107FC000022007EB0040BDE8F04744A104F072B87E
:107FD0004AA104F06BF8618804F10E02484600F0F3
:107FE00037F920B14AA240F21B51FEF713F9484677
:107FF00000F0D8F920B146A240F21E51FEF70AF96E
:10800000308847A107EB004058E0002509E0A06850
:108010004FA1425D308807EB004004F04BF86D1C27
:10802000EDB2207BA842F2D8DFF82CA10025B8469B
:1080300031880AEB051708EB01407A8847A104F064
:1080400039F83188FA6808EB014048A104F032F8A9
:108050006D1CEDB2042DEBD33088454608EB004093
:1080600046A104F023F83088B9F8022005EB00405F
:108070004FA104F01FF8308852A105EB0040D9F859
:108080000C2004F017F83088A28805EB004053A1BB
:1080900004F010F83088227B05EB004055A104F075
:1080A00009F83088628805EB004000E00AE056A13C
:1080B00004F000F8308859A105EB0040BDE8F04716
:1080C00003F0F4BFBDE8F087944400204469736373
:1080D0006F6E6E65637465642E000000646973637F
:1080E0006F6E6E656374656420636F6E6E5F68614A
:1080F0006E646C6520256420000000004469736391
:108100006F7665727920636F6D706C6574652E0093
:108110002E2E5C2E2E5C2E2E5C6D61696E2E630001
:10812000436F6E6E656374656420746F206465765A
:108130006963652077697468204E6F726469632093
:108140005541525420536572766963652E000000D4
:10815000646174613A256300E0450020636F6E6ED0
:108160005F68616E646C6520256400006576745FED
:1081700068616E646C652025640000006E75732D67
:108180002D2D2D2D2D2D2D2D2D2D2D2D2D2D2D2D1F
:108190002D2D2D2D73746172742D2D2D2D2D2D2DC2
:1081A0002D2D2D2D2D2D2D2D2D2D2D2D2D2D2D002C
:1081B0006E757320636F6E6E5F68616E646C653A96
:1081C000256400006E75735F63206576656E7420AC
:1081D00068616E646C653A25640000006E757320FA
:1081E00064617461206D6178206C656E203A25644D
:1081F000000000006E75732064617461206C656E10
:10820000203A2564000000006E75735F6576656E28
:10821000742068616E646C653A2564006E75732D18
:108220002D2D2D2D2D2D2D2D2D2D2D2D2D2D2D2D7E
:108230002D2D2D2D656E642D2D2D2D2D2D2D2D2DBE
:108240002D2D2D2D2D2D2D2D2D2D2D2D2D000000E5
:1082500048B141802AB15188C180118881809188BC
:108260000181002070470E207047000030B5114B8F
:108270000D4604000FCB85B08DE80F0018D0BDB1BE
:108280002146684662DF002810D120788DF8120060
:108290000120ADF810004FF6FF7060802868E060A4
:1082A0000020A080208104A8FFF736FC05B030BD77
:1082B0000E20FBE78008030010B5024686B00800D8
:1082C0002ED0002A2CD041884FF6FF73994202D05D
:1082D0009488A14224D11488112C14D0392C1FD198
:1082E000818800291CD053898B4219D1C16800298B
:1082F00016D001218DF8001002F110010291917B3E
:108300008DF80C1009E092888A4209D1C1680029D1
:1083100006D002218DF800104380C268694690475C
:1083200006B010BD30B585B00C4605461421684630
:10833000FEF7D1F8207804F10E01002830D1A08892
:1083400001282DD1A0792A78904229D1002217E066
:1083500002EBC20031F81030022B02D0032B0ED1F9
:1083600005E001EB40000089ADF8120007E001EBE9
:1083700040000389ADF80E304089ADF81000521C62
:10838000207A9042E4D8E868002809D06088ADF8E7
:10839000020000208DF80000EA68694628469047F0
:1083A00005B030BD1FB5010019D04888A0F57F4247
:1083B000FF3A16D0C988A1B101228DF80C200A4BD2
:1083C00000228DF80D20D3E90423CDE90023ADF878
:1083D000021003A902916946A3DF04B010BD0E206C
:1083E000FBE70820F9E7000080080300007800F0B0
:1083F0000100704708B504F0DDF920B10D4A40F2E4
:10840000D131FDF707FF002000906946012004F0FC
:1084100039F820B1074A40F2D731FDF7FBFE684634
:1084200004F0B8F8002804D0024A40F2DB31FDF72E
:10843000F1FE08BDF0AB02000649095C4FF0A04018
:10844000D0F81005C84010F0010000D0012080F0E5
:1084500001007047A60603002DE9FC410646C0074F
:108460004FF000050ED0104F00240122385D00951A
:1084700000231146019503F06FFB641C042CF4D318
:1084800000F046F8B0070DD5074E0024361D002237
:10849000305D032300951146019503F05DFB641CDC
:1084A000042CF4D3BDE8FC81A206030007490B5C51
:1084B0004FF0A041D1F804250120984020EA0203A2
:1084C000C1F808351040C1F80C057047A20603003A
:1084D0000249085C012103F0D0BB0000A2060300A2
:1084E0000249085C002103F0C8BB0000A20603009B
:1084F0000649095C4FF0A040D0F80405C84010F0D0
:10850000010000D0012080F001007047A2060300A6
:1085100010B500242046FFF7DBFF641C042CF9D3C0
:1085200010BD10B500242046FFF7DAFF641C042CB0
:10853000F9D310BD10B50246064B4FF0FF300021B5
:108540005C5C944201D1084610BD491C0429F7D354
:1085500010BD0000A606030070B50C4E0C004FF0D5
:10856000000530600BD0012000F05AF808B102205D
:1085700004E0002000F054F800B10B202070706877
:1085800010B9FEF753FB0546284670BD9042002007
:108590002DE9F0470D468146FFF7CCFF044604283D
:1085A00036D2DFF874801B481C4EA8F10C0725B3A7
:1085B000012D0ED0022D2BD104EB44003044457820
:1085C000002D25D0B968002922D02846BDE8F04703
:1085D000084704EB4401755C0E44717849B10E4ABA
:1085E0004FF40041093A8068FEF71AFD08B987F890
:1085F0000390B17808F80410E2E78068FEF754FDB4
:1086000004EB4401314418F804008D78A842D7D017
:10861000BDE8F087AC0603008C42002060470020D4
:10862000042801D2FFF708BF0020704770B500236F
:10863000042810D20D4D00EB4004012A02D101297B
:108640000CD00022094E00EB4000304461B10129FA
:1086500006D0022906D00723184670BD0E30C2B2DC
:108660002A55F9E74270F7E78270F5E76047002086
:10867000044A014600201279D20702D0084600F0D1
:108680004DB870478042002070B506461E48002451
:10869000C0E90161B00720D5002501221146284616
:1086A000FFF7C4FF6D1C0446042D02D2002CF4D049
:1086B00013E094B940F2666204211448FEF74CFBC3
:1086C00004000AD1FEF736FB040006D10F48104A19
:1086D0000021001FFEF768FC0446F00712D00120BD
:1086E000FFF7BAFE74B909480A4A00210C38FEF7B0
:1086F0005BFC040006D10548074A01210838FEF753
:1087000053FC0446204670BD80420020B80603009A
:108710009989020099A50200236D02002DE9F05FFE
:108720006A4C054600266078B34618B184F801B05B
:1087300001F01AFF664F4FF47A694FF4C87A4FF090
:108740000108182D62D2DFE805F0AC0C0C31404D69
:1087500062676B746B74BE7D7D7D7D7DACAFB2B5A1
:10876000BEBE0020FFF7C4FE00284FF0000008D076
:10877000FFF7AEFE022D02D14FF4E16008E048465B
:1087800006E0FFF7ADFE022D01D1C82000E0504603
:10879000410CC0034FF4FA72801841F100012570BA
:1087A00052000023FDF72CFE01462AE00020FFF7CF
:1087B0009FFE00284FF0000004D0FFF789FE4FF421
:1087C0004870E5E7FFF78CFEDFE70020FFF790FE3B
:1087D00000284FF0000002D0FFF77AFECFE7FFF746
:1087E0007FFED4E70020FFF783FE00284FF0000053
:1087F00002D0FFF76DFE01E0FFF772FE257041F633
:108800009A1100223868FEF70BFC064646E000206D
:10881000FFF74CFE257008E0002051E025703DE098
:1088200084F801800120FFF741FE002240F6CD418F
:10883000E8E784F801800120FFF738FE00224FF4BA
:108840008041DFE77868FEF72FFC0646D5F111007E
:1088500000D02EB10220FFF73BFE84F802B01DE0ED
:10886000012816D980B2C8214843C117C90341EA7B
:108870005041C0034FF4FA72801841F100015200D8
:108880000023FDF7BDFD014600227868FEF7C8FB16
:1088900006460220FFF724FE84F802803046BDE839
:1088A000F09F01F061FEB9E701F05EFEB4E701F070
:1088B0005BFE04E001F058FE0020FFF711FE0120EE
:1088C000FFF70EFEAAE7FFF72CFEA7E78042002085
:1088D000AC0603002DE9F8430546861C00208DF800
:1088E000000090460F464FF001096846FEF7ECFB8A
:1088F0001B4C20683860D4E90001401AA16804F2DA
:108900001C47081A0EE00121384602F08CFB02F0E9
:1089100073F80146384602F086FBD4E90001401A9C
:10892000A168081A401C8642EDD8B8F1000F03D0A8
:10893000052065F3891002E0062065F39F50A268C8
:108940002168114004EB8101C86020683044206038
:108950009DF80000FEF7DCFB4846BDE8F883000008
:108960006C52002030B482680468531C8360A154A8
:10897000D0E901128A4202D330BC02F09ABD30BC69
:1089800070470000034803C8814201D101207047AD
:10899000002070476C52002000780221FFF7F8BDDC
:1089A00005494FF0FF32082841F8202002D308443F
:1089B00080F8482070470000DC4D0020F0B54FF0F3
:1089C000FF3512B10023082601E008230C260C4CC9
:1089D00005E000BF54F823707F1C04D05B1CB34239
:1089E000F8D32846F0BD26185DB286F8305044F81A
:1089F0002310002AF5D1E11881F84800F1E70000C2
:108A0000DC4D00200249084490F930007047000016
:108A1000DC4D002008B5024690F8C6020B4600EB7C
:108A20008001C1EB801002EB400092F8C52242B1F8
:108A3000521ED2B202EBC20100EB4102518A491C24
:108A400000E0C188ADF800100089ADF80200694669
:108A500018469DDF08BD70B504464FF6FF750A46FF
:108A60002846AC4208D14FF480742146104605F0E8
:108A700097FDA04209D070BDFF2CFCD821461046BE
:108A800005F081FD08B1204670BD284670BD00008C
:108A900070B5084C050009D010342168002907D0B2
:108AA00008682060496828468847F6E70834F4E7F4
:108AB00070BD0000C84D0020054A012120B10128E9
:108AC00005D19170FFF7E4BF51700020FAE77047BD
:108AD000C84D00202DE9F05F26484168F1B3DFF86A
:108AE00098B00E688146DBF8004087688078E11B0B
:108AF00021F07F45ED1CB0B9DFF880804FF4803065
:108B0000C8F84403C8F804031120FDF703FE112040
:108B1000FDF70BFE4FF0010AC8F800A02F2003F06C
:108B200089FF89F802A0B54200D23546124BE819F8
:108B30003C3320F07F401860DBF800105A46091BD8
:108B400021F07F41001B20F07F40C91C81420FD9DA
:108B5000106818602F2003F06DFF00E004E0BDE80E
:108B6000F05F1120FDF7ECBDBDE8F05F06F05CB9E9
:108B7000BDE8F09F4843002004150140001001406B
:108B800073B58CB00646002000900D9880B100248B
:108B90006D4621460DA802F028FA30B1009805EB89
:108BA000400084800098401C0090641C142CF0D37A
:108BB0002C2269463046FDF767FC0EB070BD2DE9EA
:108BC000F04117880646B81D14460D46984202D952
:108BD0000C20BDE8F0813188072206290AD34FF422
:108BE000486C4FF6FF73614501D9994202D17088F4
:108BF000062801D21046ECE7604501D99842F9D128
:108C0000994203D0984201D08142F3D80520E8551B
:108C100020881221401C80B2208029542088401CCA
:108C200080B220804119308807F0E2F92188084499
:108C300080B220804119708807F0DAF92188084451
:108C400020800020C5E7000001A2F421FDF7E2BA70
:108C50002E2E5C2E2E5C2E2E5C6D61696E2E6300B6
:108C600038B54A7A0F4B62B100220A72596900295D
:108C700006D001228DF80020ADF802006846884732
:108C800038BD0A7A62B19B684C6802461946204694
:108C9000FEF7C6F90028F3D0BDE8384006F0D6BA92
:108CA0005B68F1E7C0470020F0B585B016460F4677
:108CB00004461D4614220B496846FDF7E5FB0A48A9
:108CC0008DF80870ADF80240ADF80A608DF80C50D0
:108CD000017800222046FEF7F5FE684600F06CFBA6
:108CE00005B0F0BD40080300E8420020F0B587B0B1
:108CF000074600200490ADF810100590ADF8121052
:108D00000190029001AA04A9384690DF060022D003
:108D100003F036FE114C0346012520883A4605EB48
:108D200000400F4903F0CDF9BDF8042012B9BDF899
:108D3000060038B12088BDF8063005EB004009A1D7
:108D400003F0BFF9BDF808202AB12088154905EBCA
:108D5000004003F0AFF907B03046F0BD58440020A2
:108D6000380C03005468652072657175657374650D
:108D7000642054582F5258207061636B6574206CC6
:108D8000656E67746820697320746F6F206C6F6EF6
:108D9000672062792025752F2575206F63746574AF
:108DA000732E0000840C030010B504464288094865
:108DB00003211346008801EB004007A103F081F96D
:108DC0006088154901EB00102146BDE810401038BD
:108DD000FFF7A8BA9444002063616C6C20746F2084
:108DE000626C655F6C62735F6F6E5F64625F646923
:108DF00073635F65767420666F7220696E73746149
:108E00006E636520256420616E64206C696E6B2042
:108E10003078257821000000E045002030B5044678
:108E200085B000211B4805F0AEFB00282FD000259F
:108E3000204600F0D2FF68B1112812D086281BD03E
:108E4000A0F54051023903D00146204606F006FA4B
:108E5000294607E005B029462046BDE8304001F02C
:108E6000A9BD0121204601F0A5FD05B00021BDE806
:108E70003040084805F0BBBB142207496846FDF79F
:108E800003FBADF80240684600F072FAE0E705B077
:108E900030BD0000B1420020680703007FB50C46DA
:108EA00010B1012004B070BD2079002638B141F620
:108EB0001D5501281BD0022826D00F20F2E70220E2
:108EC000207102960396E0680190694601A805F0BA
:108ED000EBFE50B102988188E18000882081BDF8C6
:108EE0000010029805F05EFFDCE70A20DAE70A4B83
:108EF0006A460021A01D05F093FE38B106491839D5
:108F00008E61CE610A28CDD12846CBE70248818800
:108F1000019805F047FFF5E7884300202DE9F84365
:108F2000054690F8C6020F4600EB8001C1EB8010A9
:108F300005EB400695F8C542914604EBC40006EBEC
:108F400040013279601C0A31904226D16B460022E2
:108F5000284601F0D3FA18B310E0401EA04201D118
:108F6000002004E004EBC40006EB40001C30804607
:108F700002466B46284601F0C1FA30B10020387035
:108F8000694648469EDFBDE8F88395F8C50241462C
:108F9000401C641C85F8C502E4B23079A042DCD8DC
:108FA000012038700020EEE72DE9F0470025DFF8BA
:108FB0008C803CE06068002100EBC506012032781F
:108FC0009146FDF74EFAD4E9062300EA020701EACA
:108FD000030C57EA0C0728D082438B434846C4E968
:108FE000062303F0E9FD32788246914601200021F4
:108FF000FDF737FAD4E9042300EA020401EA030783
:109000004A4650460021FDF72CFA44404F403C436D
:109010000BD17078012801D0012100E00021726895
:1090200081EA0A010AB1484690476D1CEDB298F8F2
:10903000000044468542BDD3BDE8F08728430020A8
:109040002DE9F047894690F8C612904601EB81025F
:10905000C2EB811100EB4107384605F0BFFE060068
:109060002FD0194CA06806282BD2184D762205EB7C
:10907000C0103946A0F80280001DFDF705FA002750
:10908000B9F1000F04D0A06805EBC010077004E030
:10909000A168022005EBC1110870A06805EBC011A2
:1090A000401CCE67A060E16888420AD1002604E037
:1090B00005EBC610C16F8847761CE0688642F7D37F
:1090C000A760BDE8F0870000A04200206C480020A7
:1090D00070B50E4690F8C612154601EB8102C2EB40
:1090E0008111A0B000EB410005F078FE040009D02A
:1090F0007C2205496846FDF7C7F9ADF8025068467D
:109100000196A04720B070BDD806030070B50E468A
:1091100004464FF43371FDF7DEF911480025A4F839
:10912000CA62856084F8C9520E4884F8C65284F831
:10913000C552006820602246012130469BDF012194
:10914000112806D0002809D184F8C71284F8C85223
:1091500003E084F8C71284F8C812002070BD000034
:10916000A04200205448002010B50021024801F020
:1091700075FF80F3100010BD885600200E4910B511
:109180000A784C780023A24212D0521CD2B20A7044
:10919000022A00D10B70084A0B780C3252F82320B7
:1091A00002608868104420F07F408860012010BD74
:1091B0000360002010BD00004843002013460A460B
:1091C0000021FFF771BD00002DE9F843104D0F4657
:1091D00080461E4691466946286801F09AFE0400C2
:1091E00014D01C21FDF777F901202071C4F81490E8
:1091F000380BC4F80080C4E902606946286801F0B1
:10920000A9FE05F0A1FC0020BDE8F8830420FBE7DF
:109210005009030010B503780022072B06D2DFE8BF
:1092200003F005040610202930000A7010BD012348
:109230000B7003898B818388CB81C06888600A7436
:1092400010BD02220A7002898A818288CA81C2689E
:109250008A60807D062802D00020087410BD01209D
:10926000FBE703220A70C2888A810289CA81C0682A
:10927000886010BD04230B70C0888881CA818A6011
:1092800010BD0520087010BD70B5064D06460024BF
:1092900055F8241009B130468847641C042CF7D3D4
:1092A00070BD0000EC4F002030B50446006887B068
:1092B0000D46806800281FD018216846FDF70BF97D
:1092C0000195A0680590207910B1012810D107E020
:1092D00001208DF8000020690290E068039005E00D
:1092E00002208DF80000E06800030290606904909D
:1092F000206881686846884707B030BD70B586B081
:1093000015460C00064619D0112C17D0082C15D084
:1093100014216846FDF7DFF8ADF80260304600F032
:1093200053FFADF804000D2C0AD0862C1CD007206A
:109330008DF800000294684600F04CF806B070BD4D
:1093400003208DF8000025B12878C00701D0012046
:1093500000E002208DF8080000208DF80C0041F29A
:109360000110ADF80A00E6E706208DF80000E2E7FC
:1093700010B50446408800F027FFA080024801682D
:109380002046BDE810400847B84200202DE9F041D2
:1093900007460024064E074D05E000BF56F824108E
:1093A00038468847641CE8788442F7DBBDE8F081E2
:1093B0007C4D0020D842002010B50446408800F0C3
:1093C00003FFA080024801682046BDE8104008471E
:1093D0001408030001490968084700007C080300DD
:1093E00070B586B0044614216846FDF774F8A0896C
:1093F0000125A0F54040ADF8040020782A4E06284B
:1094000033D2DFE800F0320303032C48A08900F0D8
:10941000BDF930B9E08943F6FE71A0F540408842BD
:1094200023D8A07B8DF80800207803280FD00020D7
:109430008DF80900A0680390606850B109208DF88C
:10944000000060680490684604F0D4FC0DE0012040
:10945000EEE708208DF800008DF81050F3E7A089A2
:1094600000F094F908B1E08930B17078002801D09B
:1094700004F0F0FD06B070BD606820B10B208DF8DF
:1094800000007570DFE70A208DF80000BDF80400C9
:1094900004F06AFEF5E713208DF800004FF6FF7028
:1094A000ADF80400CFE70000C842002038B50446FC
:1094B0000E480078A8B1A4F57F40FF380FD0684669
:1094C00005F074FA78B10521017001210171C480A1
:1094D000684605F079FA05F029FB002038BD042024
:1094E00038BD022038BD082038BD00009043002060
:1094F0000C4808B5007888B1684605F057FA78B18D
:1095000006210170684605F05FFA0748017809B145
:109510000121017305F00AFB002008BD022008BDEF
:10952000082008BD90430020B0500020F0B587B05F
:1095300014216846FCF7CFFF2B4C207818B1684601
:10954000FFF7A2FE4EE0201D01F06AFDB8BB4FF010
:10955000102041690004026940694B1C01D100FBE5
:1095600002F1224800220161A1F54051C160204969
:1095700002F02EF9002820D11F481C238C221D49FF
:10958000006801F0B3FC04F025FA050014D00228AD
:1095900012D000270126062D12D005A805F006FAE4
:1095A00088B106700C2D18D2DFE805F0170F170FE1
:1095B00017161716171113110B2007B0F0BD11E085
:1095C00026706760BBE70820F7E7077105E0032115
:1095D00000E00221017100E0067105A805F0F4F930
:1095E00005F0A4FA0020E8E7904300204044002062
:1095F00060090300FC4F0020C808030038B50400D0
:1096000014D0694605F050FBA0B1BDF8000000EB96
:109610008001094800EB8100C16849B1A17A39B1E4
:10962000C168491EC1600020A07238BD052038BD48
:10963000062038BD0A2038BD885000201FB501A97A
:10964000684605F0EDFA04B010BD07B513460A46AA
:109650006946002005F0E4FA0EBD07B513460A4638
:109660000021684605F0DCFA0EBD20B119B1006892
:10967000086000207047052070470000F8B50D46CF
:10968000040018D0BDB1694605F00EFBA8B1BDF8C5
:1096900000000B4900EB800001EB800001210C3041
:1096A000666801F0C0FC2E6060680C3068600120C4
:1096B000A0720020F8BD0520F8BD0A20F8BD00000A
:1096C0008850002018B10323002206F0B5BE052003
:1096D00070470223002206F0AFBE12B1022306F04B
:1096E000ABBE052070470000084910B50A69042A7E
:1096F0000AD0074A096942F82100044801211030C4
:1097000001F091FC002010BD0C2010BD7043002022
:10971000EC4F002038B5044609480D46007858B192
:1097200064B16946284606F081FF002803D1BDF8E0
:1097300000102180658038BD022038BD052038BD6D
:109740009043002010B504460E48007898B1A4B1AB
:109750002188022913D80C4A01EB810002EB800218
:1097600060885289C31C934209D806F053FF002039
:109770002080608010BD022010BD052010BD042097
:1097800010BD0000904300208850002043F6FE7179
:10979000A0F54040884201D8012070470020704762
:1097A00010B504460078182802D1FEF767F920703A
:1097B00010BD10B504460078182802D1FEF75EF9F6
:1097C000207010BD70B50D460446B0F89810D0F862
:1097D00094000122FDF769FE00B1057004F13C021E
:1097E00004F1940104F1540072DF70BD70B51346AA
:1097F000002206461546862902D0112902D002E031
:10980000012200E001250D4C73B1A179FEF75AF950
:109810002A4661793046FEF755F90022A178304694
:10982000FEF750F9002203E0A178FEF74BF92A4633
:1098300061783046BDE87040FEF744B9F042002040
:10984000F7B517460E0011D00098002560B100242E
:109850002146684601F0C9FB18B1A0B23946B047AD
:109860006D1C641C142CF3D32846FEBD0020FEBDE5
:10987000406805F0BBB800000EB516A19DF80800C1
:1098800020F00F00401C20F0F00010308DF8080090
:10989000052202A87CDF20B1104A40F23541FCF7D6
:1098A000B9FC0020009001900621ADF80400ADF84D
:1098B00000104FF4C8701821ADF80600ADF8021082
:1098C00068467ADF002804D0044A40F23F41FCF7A2
:1098D000A1FC0EBD52656C6179000000F0AB020086
:1098E00070B508B1012070BD194C0025207B08B16E
:1098F000257301E000F0A0F82078082826D2DFE8E0
:1099000000F02504080C10251420BDE8704000F07C
:1099100021B8BDE8704000F07DB8BDE8704000F0AF
:109920005FB8BDE8704000F03BB86088084900EBC4
:109930008000283901EB80004068BDE8704004F0E9
:1099400029B86560BDE8704004F032B80F2070BDE2
:10995000B05000201149F0B48A1C00200346A1F148
:1099600028050C18A67A4EB1A37200EB800405EB13
:109970008404E66816B9247C012C0AD0401C80B20D
:109980000228EED30B704B804B60F0BC41F61D50AB
:1099900070471080F0BC00F03DB80000B0500020CF
:1099A0000C48418801EB8102A0F1280101EB820102
:1099B000CA6852B1052101700748022181800168FF
:1099C00000230122054801F06DBE0422027049689F
:1099D000F6E70000B05000209843002040440020EB
:1099E00038B50A49084803240B684268898803EBA4
:1099F000810153880470DB1C00201B0400909B0B2A
:109A0000034801F0BFFF38BDB0500020984300204C
:109A100040440020074910B54888091D05F094F915
:109A200018B1BDE81040FFF7DBBFBDE81040FFF7FD
:109A3000B7BF0000B0500020F0B51F481F490125F6
:109A4000067802248B88A0F12802082E19D2DFE8BC
:109A500006F00418181B222F2F170189491C0181B9
:109A60000021418080F80C1001EB810312F82330B3
:109A700043B100234418491C89B2A3720229F3D3CD
:109A80000570F0BD0123F5E742685288D21C1A44E4
:109A90008A800470F0BD46880D6806EB860602EBEE
:109AA000860256680E60556013818C80062100E0A6
:109AB00007210170F0BD0000B05000209843002045
:109AC00030B501888488224D85B0502924D0522990
:109AD00002D0542931D103E0204600F037FF2CE0BA
:109AE00014221C496846FCF7CFFCADF80240204622
:109AF00000F06AFBADF8040000F022F90022697959
:109B00002046FDF7DFFF002229792046FDF7DAFF26
:109B10006846FFF72DFC10E0017B01290DD1817A09
:109B200001290AD10089A0F52451023905D101216A
:109B3000204600F03FFF06F0CBFA00220649E87805
:109B4000FDF774FF05B0BDE8304005F0D3BB000061
:109B5000B0420020900703005572020010B5044681
:109B6000007800280FD1608800F0F0FE608800F0D7
:109B700081F9002807D00449608801220979BDE8ED
:109B80001040FDF79FBF10BDB042002010B5124C31
:109B900000202070FDF772FFA070FDF76FFFE070EE
:109BA000FDF76CFF2071FDF769FF6071A17818293E
:109BB0000FD0E17818290CD02179182909D018285C
:109BC00007D00121601C04F0D7FC01202070002088
:109BD00010BD032010BD0000B04200207CB504463B
:109BE000007808282FD1607A38BB207A4FF6FF75AD
:109BF00001280DD0072802D0082824D11EE0A08813
:109C000000F020FAA8421ED0012100F0D3FE1AE095
:109C1000A0886A46012104F005F870B9019800781F
:109C200058B1A08800F00EFAA8420CD008490122D1
:109C30000979FDF747FF05F05DFB04E004480021CA
:109C4000401C04F0D4FCBDE87C4006F041BA0000A2
:109C5000B042002010B504460A4841782046FDF77E
:109C600019FF68B10848002101EB410200EB8202B4
:109C70005288A24201D1C8B210BD491C1429F3D3A5
:109C8000FF2010BDC24200206C4B002070B5094D72
:109C9000094E002404EB440005EB800071784088F5
:109CA000FDF7F8FE20B1641C142CF3D3FF2070BD27
:109CB000E0B270BD6C4B0020C24200202DE9F041A3
:109CC0008046024601200021FCF7CBFB1A4F0546D7
:109CD0000E467868FDF7E8F900280CD1174CD4E956
:109CE000062110462A4001EA06031A4305D0A8437C
:109CF000B143C4E90601BDE8F081404602F05CFFD3
:109D000030B1D4E9040128433143C4E9040105E03A
:109D1000D4E90410A943B043C4E90410D4E906010E
:109D200028433143C4E90601A1687868BDE8F041E1
:109D30000022FDF775B90000B40803002843002095
:109D40001CB5054AD2E90212CDE90012002269468B
:109D500003F08DFF1CBD0000A807030003484FF669
:109D6000FF7181800121017000207047BC420020FA
:109D70002DE9FC41804600F027FA00240325012745
:109D8000A0F57F412646FF3908D06A46082103F036
:109D900049FF18B90198841D8688056832462B460C
:109DA00021464046B1DF042804D0082804D00B28FF
:109DB00008D002E0112000E00020002F00D10B208D
:109DC000BDE8FC810027A80701D50125E6E734435B
:109DD000F5D0002426460325E0E72DE9FC41804626
:109DE00000F0F2F90646A0F57F40FF380ED00125BD
:109DF0002A466D1C0027ADB26B460821304603F0A1
:109E00003BFF040006D0072C25D025E043F20200DA
:109E1000BDE8FC81019903230A1D0B604046891DA2
:109E2000B2DF040004D00C2C09D0052C09D009E0C5
:109E300032460821104603F095FF04460CE0012746
:109E400000E000240821304603F078FF00B103242D
:109E5000002FCDD100E00C242046D9E704488088AB
:109E6000A0F57F41FF3901D005F04EBA70470000E0
:109E7000BC4200200EB502A9019100F0A5F96A4686
:109E8000012103F0CFFE08B100200EBD019800783B
:109E90000EBD00002DE9F04107464FF6FF760A4857
:109EA000B3DF10B10320BDE8F081074C43F2030596
:109EB000A41E324661883846AFDFA842F3D16088DD
:109EC000401C6080F5E70000BE420020428800EBA5
:109ED00082020C328A4201D9022070478188A1F5A2
:109EE0007F42FF3A03D0008808B10020704701206C
:109EF0007047884204D20068401C01D0012070479E
:109F0000002070473EB5027802230C46B3EB520F97
:109F100017D1B0F80110ADF80010C1788DF802101B
:109F20008188ADF8041080798DF8060002AA01A995
:109F30002046FCF7CDFE032202A96846FCF7DDFAB5
:109F400008B100203EBD01203EBD000010B50C460A
:109F5000FFF780FEFF280CD0074900EB400001EB23
:109F60008000416821600189A180807AA071002071
:109F700010BD052010BD00006C4B002070B501889D
:109F800090B0102959D1011D2C226846FCF77CFAAB
:109F90009DF804004FF6FF76032134466D46B1EB81
:109FA000500F2AD003F094FF9DF8040040080ED013
:109FB00001280CD0022820D118E00D99281D11315C
:109FC000FCF7EBFD18B100BFBDF82C4015E00CAA62
:109FD0000BA9072003F050FF0028EED10DE00D99EA
:109FE000281D491CFFF78EFF0028EDD10CAA0BA9F4
:109FF000072003F041FF0028F1D1BDF80000291D22
:10A0000000F01EFFB44218D0BDF80000214600F059
:10A01000C5F8BDF80000ADF82E000020ADF83040C6
:10A02000074E8DF82C000BAD044600BF56F82410E7
:10A0300028468847641C022CF8D310B070BD00007D
:10A04000BC070300094A002101EB410332F8233029
:10A05000834205D101EB410002EB8000408870474C
:10A06000491C1429F0D34FF6FF7070476C4B002049
:10A070003EB50C46054603F02BFF0BE0BDF8000093
:10A08000A04207D02846029900F02EF810B1BDF882
:10A0900000003EBD01AA6946072003F0EDFE00283E
:10A0A000ECD14FF6FF703EBD10B50D4C18200D4A97
:10A0B000607000204FF6FF7100EB400302EB83035A
:10A0C000401C59801428F7D3FDF7D8FC607018287D
:10A0D00003D001202070002010BD032010BD00001F
:10A0E000C24200206C4B00202DE9F0410C46054691
:10A0F00000F1110701F111061022491C401CFCF768
:10A10000FCF948B9681C00F01FFA28B1601C00F087
:10A110001BFA08B1012400E0002431463846FCF760
:10A120003CFD3B780222B2EB530F0CD00321B1EB84
:10A13000530F08D03378B2EB530F04D0B1EB530F69
:10A1400001D0012100E00021084201D18C4302D05E
:10A150000120BDE8F0810020FBE7018811B9421819
:10A1600092780AB101207047491C0829F7D30020D2
:10A17000704710B50C460346FFF7EFFF00280AD0E2
:10A1800018882188884205D10822A11C981CFCF758
:10A19000B4F908B1002010BD012010BD04F038B89A
:10A1A00070B50446FFF74EFF0546204603F03DFD1F
:10A1B0004FF6FF7104468D4203D014B9284604F0CF
:10A1C00027F8204670BD000010B5FFF743FDFF28BB
:10A1D00005D0044900EB400031F8200010BD4FF6D7
:10A1E000FF7010BD6C4B00203EB5044603F070FEBE
:10A1F0000EE0019920464631FFF7BBFF28B90199CF
:10A2000020462A31FFF7B5FF10B1BDF808003EBD6A
:10A210006A4602A9072003F02FFE0028E9D14FF675
:10A22000FF703EBD10B50A4941600A4800F0F8FED3
:10A2300058B902F00DFB07491C238C22087404480E
:10A240008C39001F006800F051FE002010BD000096
:10A25000540903004C5100202DE9F0412D4F0025F9
:10A2600018B17D600120BDE8F0810879012258B164
:10A27000294E01280CD0274C4FF002080834022840
:10A2800021D0032842D128E00A7103F091FB3BE082
:10A290005FF0000000EB800116F82110022908D0C1
:10A2A000401C80B20228F5D33A707D6041F61D5003
:10A2B000D9E700EB800006F8205006EB80004068EC
:10A2C00003F068FB20E00D71A4F804800023012254
:10A2D0001248216801F0E6F916E00D71206803F0DC
:10A2E00059FB0D4923682831498801EB810206EBAF
:10A2F0008201D1F804C0C4F800C04B60A3880B8170
:10A30000A4F8048006F822500028ACD07D600E200E
:10A31000A9E700009043002088500020404400201E
:10A320000146034802888A4200D00020704700009E
:10A33000AC4700202DE9FC5F0E008346DDE90C47A9
:10A34000C6F1000098469246814600D40846012591
:10A3500003E000BF90FBFAF06D1C5045FADAA84507
:10A3600000D9454624B1002E01DB780700D5641ED4
:10A37000B80702D5B8F1000F0AD0F80708D13CB1F0
:10A38000A54205D220215846641EFEF7EBFAF6E7F7
:10A39000002E02DA4E462D2102E0780703D52B214C
:10A3A0005846FEF7DFFA07F0030002280BD1B8F198
:10A3B000000F08D13CB1A54205D230215846641E99
:10A3C000FEF7D0FAF6E7CDE900474346524631465C
:10A3D000584605F023FEBDE8FC9F000070B50D4611
:10A3E000044600684FF4887102F0EAFA4FF4907165
:10A3F000206802F0E5FA4FF49271206802F0E0FA6A
:10A400004FF4A271206802F0DBFA20681249C0F80C
:10A41000041320686907000B40B2090E002806DA11
:10A4200000F00F0000F1E02080F8141D03E000F1BF
:10A43000E02080F8001420680121000B40B200F0F9
:10A440001F0291404009800000F1E020C0F8801216
:10A45000C0F8001170BD0000100302000246002089
:10A460001268930702D0530702D47047500714D5DF
:10A4700002F00300012802D002280CD105E0C2F34B
:10A4800083100B68801C184404E00223086803EB67
:10A4900092521044086001207047086800EB925304
:10A4A000C2F38910401CEEE70248007A002800D071
:10A4B000012070474C510020F0B58488A5189442C3
:10A4C00000D82246A41AC288D6189A4200D8134649
:10A4D000D21A4B880788BB420CD34088834209D8E4
:10A4E0008888A04206D3A84204D8C888904201D3E5
:10A4F000B04201D90020F0BD0120F0BD10B509899E
:10A500002AB1D088491C814218D1002010BD90F892
:10A51000C62202EB8204C4EB821200EB42021289D3
:10A520009142F2D0491C198090F8C61201EB8102C9
:10A53000C2EB811100EB4100008902E01980D08854
:10A54000401E5880012010BD0021425C0AB101204C
:10A550007047491C1029F8D300207047800701D0AC
:10A5600000207047012070470A4810B5807860B11C
:10A57000002401E0022C06D02046FDF7A9FF641C50
:10A58000042CF7D310BD0324F6E7BDE81040FDF717
:10A59000BFBF00008042002003480179C90702D0F4
:10A5A0000078FEF7BBB87047804200201721018079
:10A5B00041800021017141711B218171C17170477E
:10A5C0002DE9FE4F2B4D984691460F00824601D053
:10A5D00000260DE0684600F05FFC6A460021504608
:10A5E00003F08FFA2878009E10B99DF8090098B101
:10A5F0004A463146504605F0A1F80446014600227D
:10A600005046FFF7F3F80D2C32D008DC84B3082C49
:10A610002ED00B2C0BD12BE00520BDE8FE8F112C8A
:10A6200010D0862C1AD0A4F54050023820D0032533
:10A63000B8F1000F04D0324621465046FEF75EFEC8
:10A640002846EAE73A4629795046FDF73BFA4A465A
:10A65000E9785046FDF736FA0025E9E73A462979C8
:10A660005046FDF72FFA4A46E9785046FDF72AFA98
:10A670002546DDE7F04200207CB50D4606466A46D9
:10A680000721284603F0CEFA040005D0052C0FD090
:10A69000112C1DD003241BE0019C94F844001834B5
:10A6A00010F0010001D0019C34340CB110B106E06F
:10A6B00011240DE004F11200FFF74FFD38B12246DE
:10A6C00004F11201304685DF04000FD000E00B24B6
:10A6D00000210022304604F073FD4CB1002200231B
:10A6E0002946304604F050FD20467CBD0121F0E7AC
:10A6F0000122F4E72DE9FC4716000D4681464FF094
:10A7000002084FF0000710D03078C00720D04FF675
:10A71000FF744FF00108A54203D103F079FA054612
:10A720000127A54206D1032417E0002148467EDF19
:10A7300004461BE06B4601220721284603F09CFAE1
:10A7400004000AD10721284603F020FB040004D1AD
:10A75000314648467EDF04001CD00721284603F01E
:10A76000EDFA18B1052801D0032404E0042C01D02F
:10A7700084B100E0112400214246484604F020FD47
:10A7800054B100223B462946484604F0FDFC2046D1
:10A79000BDE8FC870121EFE70122F3E72DE9F04155
:10A7A000204F0E46154604463978FDF773F9002808
:10A7B00035D0204603F09CF950B32046FFF704FD46
:10A7C00080462046B978FDF765F908B1012700E019
:10A7D0000227204603F034FC0028404602D0FFF751
:10A7E000DFFC0DE0A8F57F41FF3909D0072103F018
:10A7F000A5FA010004D0052902D0204604F042FD4C
:10A800002B46324639462046BDE8F041FEF74CBAA9
:10A810002A4631462046BDE8F041FEF7CFBCBDE8F0
:10A82000F0810000E842002070B5094D0646E97845
:10A83000FDF730F9044629793046FDF72BF901463A
:10A8400022463046BDE870400123FFF7B9BE000044
:10A85000F04200202DE9F047394E002780463D4662
:10A86000DFF8E090D6F804A057E003D00446D0F813
:10A870001C8035E099F8002002EB4201521CD2B254
:10A8800089F8002009EBC10199F80230091D9A42AC
:10A8900001D189F8005048680A780446012A12D08C
:10A8A000022A02D0032A3BD108E005F085F900B165
:10A8B0000127257434E00574C06900E07068002841
:10A8C000F9D170602CE0207C50BB88686060C8685B
:10A8D000A0600869E0604869A061F07800B1656037
:10A8E0006268B168184B501A20F07F40984202D23B
:10A8F000A168084406E0881AA16820F07F408142E0
:10A9000002D9081A206000E0256065600120A5607A
:10A9100020742046E56105F031F9B8F10000A4D1BA
:10A9200099F8001099F801008142A3D117B9716814
:10A93000514502D00120BDE8F0870020FBE7000070
:10A9400048430020C84E0020FFFF7F0030B585B08F
:10A950000546002414216846FBF7BDFDA5F57F40A0
:10A96000ADF80250FF3815D02846FFF701FA98B12C
:10A970000B2815D0112811D0A0F54051023903D071
:10A980000146284604F06AFC09482246C178284658
:10A99000FDF798F805B030BD0E2002E00124F3E782
:10A9A0000F208DF800006846FEF7E2FCECE700009F
:10A9B000B04200200A4602498978FDF783B80000BA
:10A9C000B0420020F8B5054600780C46002620422B
:10A9D0000FD100208DF800006846FCF775FB287841
:10A9E000204202D12043287001269DF80000FCF788
:10A9F0008FFB3046F8BD00002DE9FF4100262348BB
:10AA000000F00BFB2148001F074600F006FB204C1E
:10AA100060680090A56800E000986946284004EB53
:10AA200080000C30FFF71AFD0028F5D101AA00992B
:10AA300001EA050304EB8303491CDB6842F820307C
:10AA4000401C00910228F2D3019800F00300012875
:10AA50000BD0022810D10198032101EB90500099EE
:10AA6000BDF80A6001EB900005E00198BDF80A60AE
:10AA7000C0F3831008440090384600F0CBFA08B1C8
:10AA80000098606004B03046BDE8F0818456002034
:10AA90006C52002088B04FF40041002001F094FB7C
:10AAA00020B153A240F2EE41FBF7B4FB01F0E0F914
:10AAB000FCF78CFA20B14EA240F20F51FBF7AAFB33
:10AAC00000210320FDF7E0FD20B149A240F21C4126
:10AAD000FBF7A0FB69460020FDF73EFD20B144A234
:10AAE00040F21F41FBF796FB9DF80000022873D04F
:10AAF0005FF0000601F086FC20B13DA240F2FA4171
:10AB0000FBF788FBFDF776FCFEF7B6FE00213C481C
:10AB100000F019FB20B136A24FF48961FBF77AFBF4
:10AB20001C216846FBF7D7FC00204FF42031CDE90B
:10AB300000014FF47021032502918DF80C504FF65F
:10AB4000FF710590ADF80E102E48012106908DF88A
:10AB500010106846FCF718FF20B125A240F25F41B3
:10AB6000FBF758FB2848FCF7F7FF20B120A240F282
:10AB70007F41FBF74FFB03F059FB2448244F00248F
:10AB800040F25258CDF8000007EB04106946FDF77B
:10AB90006DFB18B116A24146FBF73CFB641CE4B206
:10ABA000042CF1D3FCF75EF81A4C1BA1208805EBAE
:10ABB000004001F07BFA8EB120881DA105EB00401A
:10ABC00001F074FA03F022FE50B109A240F20D41E7
:10ABD000FBF720FB04E0FFE701268BE7FCF702F818
:10ABE00001F054F90028FBD101F020FCF8E7000047
:10ABF0002E2E5C2E2E5C2E2E5C6D61696E2E6300F7
:10AC0000B8440020498C0200A98D0200997F0200FF
:10AC1000E04500209444002052656C6179206578FD
:10AC2000616D706C6520737461727465642E0000D0
:10AC3000457261736520626F6E64732100000000CD
:10AC400070B5144682880E4605462088111D0144C1
:10AC5000921C994201D8FE2A01D90C2070BD521CC9
:10AC600032542088FF21401C80B22080315420883B
:10AC7000401C80B220808119288805F0B9F921880C
:10AC8000084480B22080AA8842B1A96841B130440A
:10AC9000FBF7FAFB2088A98808442080002070BDBB
:10ACA000072070BD2DE9F047C7880446181D1646D9
:10ACB0008946B0FBF7F1B0FBF7F207FB12009A19D7
:10ACC0003A44D21CB2FBF7F2DDF820A001E0246880
:10ACD000491E0029FBD13D1A8846B54216D818E016
:10ACE000BAF1000F05D0211809EB08002A46091D0A
:10ACF00004E0204409EB08012A46001DFBF7C4FBD1
:10AD000000202468761BA844B74201D9354600E0EC
:10AD10003D46002EE4D1BDE8F087000030B5024684
:10AD200059B101F07DFA0021074C09E004EB8103E1
:10AD300015685B88AB4202D11160002030BD491C10
:10AD40008142F3D3052030BD5444002010B5104B90
:10AD500000224FF6FF7400BF02EB420103EB8101BA
:10AD60004988A14210D102EB420103EB8102014666
:10AD7000104600F0B3FA002809D0BDE8104005A243
:10AD80004FF41E71FBF746BA521C052AE4D310BDDE
:10AD9000EC4400202E2E5C2E2E5C2E2E5C6D616904
:10ADA0006E2E6300F8B50F4601781446054601295A
:10ADB00001D1687830B12088821C9A422DD80129AF
:10ADC00002D006E00720F8BD69780144891C994249
:10ADD00023D8181A801E86B2ADF800602188B81CEE
:10ADE000084469467DDF0028EDD12878022805D186
:10ADF000BDF80010B14201D809210AE0082101285C
:10AE000005D16878B04202D8ADF8000001E0ADF895
:10AE10000060BDF80000FE2801D90C20F8BD228892
:10AE2000401CB8542088401C80B2208039542088AF
:10AE3000401C2080BDF80010084420800020F8BD90
:10AE400070B505460C004FF0FF0020D04FF6FF769E
:10AE5000B5421CD00E48012241782846FCF732FE4C
:10AE60002846FEF7F7FEFF2803D1FEF70FFFFF2865
:10AE70000DD0084B00EB400203EB82014D8023F81C
:10AE8000226022684A60A2880A81A2798A7270BD13
:10AE9000C24200206C4B0020034A00219268C0E9A6
:10AEA0000021816070470000F042002070B54FF62D
:10AEB000FF750E46A84201D1002000E0401C84B27C
:10AEC00008E02146304603F086FB08B1204670BDFD
:10AED000641CA4B2FF2CF4D9284670BD10B5FBF752
:10AEE000F2F908B1002010BD112010BD10B531B12C
:10AEF000B2FBF3F403FB14241CB1092010BD0E2097
:10AF000010BD01600021416081608281C3810846DB
:10AF100010BD70B50C460546FBF78AF9002802D033
:10AF200021882868084470BD10B50A8849888A427B
:10AF300003D1FBF7BFF9012010BD002010BD70B593
:10AF40000C460546FBF799F9002802D0618828686D
:10AF5000084470BD10B50A8849888A4203D1FBF7BE
:10AF600083F9012010BD002010BD01F01F03012254
:10AF70009A40D243490900EB8100114600F059B8CC
:10AF80000A4601F01F030121994010B552090C46F1
:10AF900000EB820000F05DF8204000D0012010BDE1
:10AFA0002DE9F04180460D460024481E012101EBA9
:10AFB000501716E058F82400C04390FAA0F0B0FAF9
:10AFC00080F020280CD200EB4416AE4208D2314665
:10AFD0004046FFF7D5FF0028ECD13046BDE8F081B0
:10AFE000641CA742E6D82846F8E74A0950F8220030
:10AFF00001F01F0201219140084000D0012070475C
:10B0000001F01F0301229A40490900EB810011461B
:10B0100000F029B8002100F017B8012100F023B892
:10B02000012100F016B808B56A46FBF798F90098B8
:10B0300008BD08B56A46FBF778F9009808BD08B561
:10B040006A46FBF78CF908BD08B56A46FBF76DF94F
:10B0500008BD08B56A46FBF75BF908BD08B56A4646
:10B06000FBF74AF908BD08B56A46FBF751F90098A5
:10B0700008BD08B56A46FBF77FF9009808BD38B5EA
:10B08000044600258DF800506846FCF71DF821683D
:10B090006268086890420ED9401E08600178A38A51
:10B0A000E26801FB0325227A2168101AC0B20A79EE
:10B0B000824200D208719DF80000FCF729F828466A
:10B0C00038BD38B5054600208DF800000C466846AE
:10B0D000FBF7FAFFE868A98A201AB0FBF1F12A68A9
:10B0E0001068431C136001709DF80000FCF710F815
:10B0F00038BD10B530B1017A42680368891AC9B207
:10B100001A6006E00E2010BD03681A68541C1C600B
:10B110001170491EC9B2F7D20068002101710846BA
:10B1200010BDC20800F007030120895C9840084068
:10B13000704710B5C20800F00703885C01249C40EA
:10B140002043885410BD70B5040010D0172021632F
:10B15000208060801B202071002504EBC500801D2D
:10B16000FFF724FA6D1C052DF7D3002070BD0E20CB
:10B1700070BD00002DE9F04185888EB00C46052D8C
:10B180007ED20188464E4FF00008242940D006DCCC
:10B19000102909D011290CD023295FD154E03A2974
:10B1A0000DD055295AD12EE00146204602F00EFA64
:10B1B00054E004EBC500801DFFF7F8F94EE0294686
:10B1C00004EBC107408937F8062F824200D81046A9
:10B1D0007880172800D217207880206B70B178799A
:10B1E00060B1D6E90002CDE90002ADF8021078881E
:10B1F000ADF80400226B20466946904787F8058029
:10B2000087F804802AE00146204602F0A7FA25E0EC
:10B21000011D2C226846FBF737F9BDF80000BDF888
:10B22000042004EBC0014A73226BBAB1D6E90423AF
:10B23000CDE90B23ADF82E00487B8DF83000226B52
:10B2400020460BA9904709E004EBC503017A187B5F
:10B25000884200D201462846FDF748FD04EBC504AC
:10B26000A07A002818D0E1882846A5DF012580B102
:10B27000112811D001F084FB02460A48008800E042
:10B280000AE00EB005EB0040BDE8F04106A100F079
:10B2900011BF84F80A80E5720EB0BDE8F0810000AD
:10B2A000C40703005844002073645F626C655F67E5
:10B2B000617474635F65786368616E67655F6D7400
:10B2C000755F726571756573742829207265747570
:10B2D000726E65642025732E0000000020B1027894
:10B2E000DE2A03D0082070470E20704741800020DE
:10B2F00070477FB5054600294DD0002D4BD008780A
:10B300000C46DE2847D1A8886188884202D12046B1
:10B3100004F02EFF2888012825D002283BD01128D0
:10B320003AD0512837D135F8040F6188884232D19C
:10B33000A978A81C02292ED1017A042903D0062954
:10B3400001D0052927D10021009102228DF800208B
:10B3500001914FF4C07202910391ADF80420007A7C
:10B3600005280FD010E0297A2046012913D1A98899
:10B37000428891420FD10121017204B0BDE87040B2
:10B3800004F0F6BEADF8041028886946B0DF002846
:10B3900001D0616888477FBDA88861888842FAD15A
:10B3A0004FF6FF7060807FBD00F18040006800288C
:10B3B00000D00120704708B500F1804000210160F5
:10B3C0000068009008BD000070B50B4C207808B1F3
:10B3D00085250FE00020A06060602061E0600748E4
:10B3E00001F00AFB054601F033FA08B901F0EEFA64
:10B3F00001202070284670BDC84D0020B98A020087
:10B4000038B500258DF800506846FBF75DFE074C07
:10B41000E068401EE060E06810B901F0FDFAA57038
:10B420009DF80000FBF774FE38BD0000C84D0020F9
:10B43000F0B505460478154889B0164640F8242032
:10B44000124A0869121DA2F1080742F82400487F39
:10B45000385520226846FBF717F804942878385CA2
:10B4600048B10EB10A4A00E000226946281D01F0E9
:10B4700053FD09B0F0BD0EB1064A00E00022694656
:10B4800005F10C0001F01AFCF3E700000C4300206A
:10B49000CDFE020011FD02000FB408B5039900298A
:10B4A00004D004AA00926A4600F00FF801B05DF8DB
:10B4B00014FB10B582680446002A05D0D4E90403C1
:10B4C000216898470020A06010BD2DE9FC479146F7
:10B4D0000C00804676D014F8011B39B125290ED016
:10B4E0004046FDF73FFA20780028F4D198F80C0088
:10B4F000002867D04046BDE8FC47FFF7DABF0020D0
:10B50000012221782B291BD02D2902D0302908D1E6
:10B5100002E040F0010001E040F00200641C002A5B
:10B52000EFD100252A290ED02178A1F130020A2A74
:10B5300011D205EB850201EB4205641C303DF1E7B9
:10B5400040F00400EAE7D9F800100B1DC9F80030FC
:10B550000968641C0D44217800232E290BD114F8AE
:10B56000011FA1F130020A2A05D203EB830201EB8D
:10B570004203303BF3E76C290DD068290BD06929D1
:10B5800021D00BDC252918D0582931D063290ED0C1
:10B59000642915D117E014F8011FECE7702969D070
:10B5A000732932D075291BD0782909D120E0D9F828
:10B5B0000000011DC9F8001001784046FDF7D2F9DE
:10B5C000641C90E76CE0D9F800100A1DC9F800204F
:10B5D0000968CDE900500A224046FEF7ABFEEFE7CE
:10B5E000D9F800100A1DC9F8002009680A2206E0EF
:10B5F000D9F800100A1DC9F8002009681022CDE909
:10B600000050404604F00AFDDAE7D9F800100027A0
:10B610000A1DC9F800200E68C00705D112E0404697
:10B62000761C7F1CFDF79EF931780029F7D104E0E4
:10B63000202140466D1EFDF795F9BD42C0D9002D71
:10B64000F6D1BDE74EB13046FAF750FF074604E0A9
:10B65000202140466D1EFDF785F9BD4206D9002D1B
:10B66000F6D103E04046761CFDF77CF931780029DD
:10B67000F8D1A5E7D9F80000011DC9F80010056848
:10B6800030214046FDF76EF978214046FDF76AF912
:10B6900008200021CDE90001034610222946B0E729
:10B6A000BDE8FC872DE9F84F2B4E04009A46308800
:10B6B0004FF001031546894603EB004024D0216872
:10B6C00000292BD0002D32D0626849464FF0100778
:10B6D0001268A2F1010C1CEA090F11D198466A43C5
:10B6E0002046FBF773FA00282AD0206853462A46E2
:10B6F000066901B049462046B446BDE8F04F6047B0
:10B70000164B17A2009721E00E210091134B1EA2A9
:10B710001FA100F0DEFC0E20BDE8F88F082100918B
:10B720000E4B26A21AA100F0D4FC0820F4E7092150
:10B7300000910A4B24A216A100F0CBFC0920EBE7F4
:10B7400000973188054B214A08EB014010A100F019
:10B75000C0FC1020E0E70000844400203B09030007
:10B76000616464725F69735F706167655F616C6972
:10B77000676E656428705F66732C20706167655F13
:10B780006164647229000000705F6673000000004D
:10B79000257320636865636B206661696C6564204E
:10B7A000696E202573282920776974682076616C7A
:10B7B000756520307825782E00000000705F667374
:10B7C0002D3E705F617069006C656E00DC0C0300DB
:10B7D00038B503000F484FF001054FF00E04008804
:10B7E00005EB004009D061B119600C6801B0A446B6
:10B7F000BDE83040114618466047074B07A2009449
:10B8000002E0054B07A2009408A100F062FC0E20A4
:10B8100038BD000084440020F0080300705F6673A8
:10B8200000000000705F61706900000025732063F4
:10B830006865636B206661696C656420696E2025AC
:10B8400073282920776974682076616C75652030CB
:10B850007825782E000000002DE9F04128B101681C
:10B8600019B1C969BDE8F04108470D4D0D480024E4
:10B87000461B14270DE000BF04EB840005EB80009D
:10B88000016829B1C969884710B10120BDE8F0817C
:10B89000641CB6FBF7F0A042EED80020F6E70000EB
:10B8A0004044002054440020044801214174007A9F
:10B8B00008B1002070470120704700004C51002063
:10B8C000012801D0032808D10449002201284A7424
:10B8D00000D00020087403F0D9B870474C51002004
:10B8E00070B50246022801D0032A45D1234C207AA4
:10B8F000002841D0012833D0022831D1204800232C
:10B90000022A006802D0032A2AD11BE0E3600179F1
:10B9100011B1012924D10DE0D0E90565711B4FF467
:10B920008056B14200D33146294481614569A9421C
:10B930000ED015E00169491C0161426991420FD1A5
:10B94000237213E0E168491CE160082908D9E3602B
:10B950002372022A0AD00D21FDF7A6FC03F03CF861
:10B96000607C28B1BDE8704000F078BF0021F3E7AB
:10B97000BDE8704003F08AB870BD00004C51002053
:10B98000B44300202DE9F84F3A4D04008B46288837
:10B990004FF00106DDF828A0984691464FF00E01C1
:10B9A00006EB00401AD0B9F1000F1BD02168002926
:10B9B00020D00921B8F1000F25D062685368B8FB88
:10B9C000F3F703FB1782002A21D02B4B2BA2009107
:10B9D00035A100F07EFB0920BDE8F88F264B3DA283
:10B9E000009102E0244B3DA200912FA100F071FBD9
:10B9F0000E20F1E7082100911F4B3AA22AA100F086
:10BA000068FB0820E8E71C4B39A20091E0E75846A4
:10BA1000FBF7D6F8102798B14846FBF7D1F8B0B13C
:10BA2000424659462046FBF7D1F8B8B1CDF800A000
:10BA3000206843464A46C56859462046A847CBE792
:10BA4000009728880C4B06EB00402AA20CE00097D8
:10BA50002888094B06EB00402CA205E000972888B7
:10BA6000054B06EB004032A20FA100F032FB102084
:10BA7000B2E70000844400202809030021286C65F7
:10BA80006E202520705F66732D3E705F666C61735B
:10BA9000685F696E666F2D3E70726F6772616D5F71
:10BAA000756E697429000000257320636865636BF7
:10BAB000206661696C656420696E202573282920E1
:10BAC000776974682076616C756520307825782EEA
:10BAD00000000000705F667300000000705F73720A
