:020000040002F8
:1060000020880020C1630200C9630200CB63020044
:10601000CD630200CF630200D163020000000000E4
:10602000000000000000000000000000D363020038
:10603000D563020000000000D7630200D9630200AC
:10604000C1660200DB630200616A0200DB630200DA
:10605000DB630200DB630200F9640200DB63020021
:10606000DB630200DB630200DB630200DB63020030
:10607000DB630200DB630200DB630200DB63020020
:10608000DB63020019670200DB630200DB630200CE
:106090003D670200DB63020041670200DB63020030
:1060A000DB630200DB630200DB630200DB630200F0
:1060B000DB630200DB630200000000000000000060
:1060C000DB630200DB630200DB630200DB630200D0
:1060D000DB630200DB630200DB6302000000000000
:1060E00000000000000000000000000000000000B0
:1060F00000000000000000000000000000000000A0
:10610000000000000000000000000000000000008F
:10611000000000000000000000000000000000007F
:10612000000000000000000000000000000000006F
:10613000000000000000000000000000000000005F
:10614000000000000000000000000000000000004F
:10615000000000000000000000000000000000003F
:10616000000000000000000000000000000000002F
:10617000000000000000000000000000000000001F
:10618000000000000000000000000000000000000F
:1061900000000000000000000000000000000000FF
:1061A00000000000000000000000000000000000EF
:1061B00000000000000000000000000000000000DF
:1061C00000000000000000000000000000000000CF
:1061D00000000000000000000000000000000000BF
:1061E00000000000000000000000000000000000AF
:1061F000000000000000000000000000000000009F
:10620000DFF80CD000F03AF9004800475582020050
:106210002088002030B450E8012F93B2C489234471
:106220008489A34228BF1B1B0489A34202BFBFF37A
:106230002F8F002007E0C3EA020340E80134002C5E
:10624000E9D14FF001000A6030BC704750E8012FDF
:10625000C2EA024240E801210029F7D1704730B478
:1062600050E8022F1FFAA2F3C488A34202BFBFF373
:106270002F8F00200DE0C48923448489A34228BFC6
:106280001B1BC2EA034340E80234002CE8D14FF064
:1062900001000A6030BC704750E8022FC2EA224277
:1062A00040E802210029F7D17047034653E8022F46
:1062B000D988B2EB324F4FF0000017BF92B241EADB
:1062C000014142EA014104E05A68B2EB324F08BF93
:1062D000012043E80212002AE8D1704730B4044696
:1062E00054E8000F0D4644E80053002BF8D1156028
:1062F00030BC704730B4044654E8000F40EA010552
:1063000044E80053002BF7D1156030BC704730B41F
:10631000044654E8000F00EA010544E80053002B4E
:10632000F7D1156030BC704730B4044654E8000F14
:1063300080EA010544E80053002BF7D1156030BC1A
:10634000704730B4044654E8000F00EB010544E800
:106350000053002BF7D1156030BC704730B40446B1
:1063600054E8000FA0EB010544E80053002BF7D1DF
:10637000156030BC704770B404464FF0000054E81C
:10638000006F0D68AE4207BF44E80023012044E8D7
:1063900000630E60002B1CBF0020F0E770BC70474C
:1063A00030B4044654E8000F88422CBF451A054615
:1063B00044E80053002BF5D1156030BC7047000055
:1063C0000648804706480047FEE7FEE7FEE7FEE78F
:1063D000FEE7FEE7FEE7FEE7FEE7FEE745670200B1
:1063E00001620200202A04DB203A00FA02F10020B8
:1063F00070479140C2F1200320FA03F31943904003
:106400007047000000487047ECB3020040EA010307
:106410009B0703D009E008C9121F08C0042AFAD25A
:1064200003E011F8013B00F8013B521EF9D270471E
:10643000D2B201E000F8012B491EFBD270470022C6
:10644000F6E710B513460A4604461946FFF7F0FF73
:10645000204610BD421C10F8011B0029FBD1801AF8
:10646000704730B504460020034600E05B1C9342B1
:1064700003D2E05CCD5C401BF8D030BD064C074D2C
:1064800006E0E06840F0010394E807009847103404
:10649000AC42F6D3FFF7B8FE28BB020048BB0200AF
:1064A00070B58C1810F8015B15F0070301D110F8D6
:1064B000013B2A1106D110F8012B03E010F8016B03
:1064C00001F8016B5B1EF9D12B0705D40023521E86
:1064D0000DD401F8013BFAE710F8013BCB1A921CEE
:1064E00003E013F8015B01F8015B521EF9D5A142EC
:1064F000D8D3002070BD00002DE9F04700268AB0F7
:10650000DFF85091B0464FF4807501243746069667
:10651000284602F0A5FB38B1D9F80403204203D085
:10652000284602F093FB26432D1D64007F1CADB26C
:10653000082FEDD34FF4BE74204602F091FB48B112
:10654000204602F083FB46F0004606AA0121002007
:1065500002F068FB404D16F0FF0F15D00127002414
:1065600037420DD009EB8401D1F81005D1F8101590
:10657000C0F3042055F82420C1F3014102B1904733
:106580007F00641C082CEBD3002E5FDA4FF0FF3045
:10659000CDF8108054E0281910F8507F90F90000D1
:1065A00027F0C008401C3BD007A9404601F0D6FFA9
:1065B00010B34FEA9719404601F04CF955F8207096
:1065C0001FB1B9F1030F03D006E0B9F1030F27D1D2
:1065D00004A9404601F0CAFF4FF0A04101EB88003A
:1065E000D0F8000706A9C0F3014A404601F0B6FF03
:1065F00018B1BAF1020F03D012E0BAF1030F0FD1B4
:10660000B9F1030F08D1BAF1020F1DD002214046A3
:1066100002F0ECFA761CF6B217B149464046B8478C
:10662000641C042CB7D3002E10D06A460121002030
:1066300002F0F8FA06990098884207D0069004986C
:10664000002634460790A6E70321E0E70AB0BDE83C
:10665000F0870000006000406C60002000F01F0226
:10666000012191404009800000F1E020C0F8801233
:10667000704700F01F02012191404009800000F1A5
:10668000E020C0F80011704700F01F020121914086
:106690004009800000F1E020C0F80012704749076F
:1066A000090E002806DA00F00F0000F1E02080F863
:1066B000141D704700F1E02080F8001470470000BE
:1066C00070B54FF48076304602F024F8114CB505D1
:1066D00060B1304602F025F80120C5F80803607962
:1066E00020B9012060712168002088474FF482762C
:1066F000304602F00FF800280AD0304602F011F8B8
:106700000220C5F808032168BDE870400120084751
:1067100070BD0000045A002007480021C0F8401155
:10672000C0F84411C0F84811C0F84C11C0F800116D
:10673000C0F8041104F01EBA0010014004F068B95A
:1067400003F002B8F0B5B5480023021D0178101D12
:1067500001254FF0805406290BD11678360708D151
:106760000678C6F30316032E06D0042E04D0052E99
:1067700002D0062907D00EE0B4F82463A84FC6F370
:1067800004263E6002E01678360704D10678C6F388
:106790000316032E02D0062904D00FE0A24FA14E0B
:1067A0007E670EE01678360708D10678C6F3031622
:1067B000032E06D0042E04D0052E02D0062907D0C1
:1067C0000EE0D4F84462994FC6F342363E6002E0D0
:1067D0001678360704D10678C6F30316032E02D0C6
:1067E000062906D011E0924E376827F0807737608F
:1067F0000EE01678360708D10678C6F30316032E86
:1068000006D0042E04D0052E02D006290AD011E0AD
:106810004FF08046C6F80C31C6F81031834E361F53
:10682000336002E01678360704D10678C6F3031603
:10683000032E02D0062905D00CE07C4F03266437D6
:106840003E600AE01678360704D10678C6F30316D0
:10685000032E02D006290DD014E0764F05263E60A7
:10686000744E78363560734E083633603F263F1DD0
:106870003E6002E01678360704D10678C6F30316A8
:10688000052E02D0062957D062E06B4E36686B4F5A
:106890003E60694E361D36683F1D3E60664E0836C6
:1068A00036683F1D3E60644E0C3636683F1D3E60C4
:1068B000614E103636683F1D3E605F4E14363668B6
:1068C0003F1D3E605C4E183636685C4F20373E6098
:1068D000594E1C3636683F1D3E60574E203636688E
:1068E0003F1D3E60544E243636683F1D3E60524E7A
:1068F000283636683F1D3E604F4E2C3636683F1DA9
:106900003E604D4E303636684C4F40373E604A4E02
:10691000343636683F1D3E60474E383636683F1D78
:106920003E60454E3C3636683F1D3E60424E403626
:1069300036683F1D3E6002E01678360708D10678BB
:10694000C6F30316032E06D0042E04D0052E02D063
:10695000062907D019E0D4F85812394A01F04F013E
:10696000116002E0117809070FD10078C0F303101D
:10697000032803D0042801D0052806D13148016836
:10698000C90702D06FF001010160D4F83001062878
:1069900008D1D4F83401062804D12B48016841F409
:1069A0008061016022487438016841F4700101601F
:1069B000BFF34F8FBFF36F8F4FF01021D1F800025C
:1069C000002803DBD1F80402002822DA1F4A1560F0
:1069D0001F480468002CFCD01524C1F8004205684B
:1069E000002DFCD0C1F8044201680029FCD01360DE
:1069F00001680029FCD0BFF34F8F0D48F0380168C3
:106A0000144A01F4E06111430160BFF34F8F00BFEE
:106A1000FDE7124910480860F0BD0000E00F00F0EB
:106A2000403501400DF0ADBA00C007403C050040C4
:106A3000FCED00E0105600400404001020C50040AA
:106A4000E40E0040000400403C17004004E5014013
:106A500000E401400400FA050090D003E85A002049
:106A600001480068004700000C5A002002E008C8F6
:106A7000121F08C1002AFAD170477047002001E0B8
:106A800001C1121F002AFBD17047000001212028FC
:106A900003DA81400548014003E0402802DA20384B
:106AA000814009B10120704700207047FC06FFBDFE
:106AB000082806D228B1012803D0042801D00120DB
:106AC00070470020704731B500252C4621466846A6
:106AD00001F0B5FC00B16D1C641C142CF6D32846E3
:106AE00038BD10B501220221002000F0C5FD08B11B
:106AF000072810D107220221012000F0BDFD08B1B6
:106B0000072808D100210A22084600F0B5FD08B187
:106B1000072800D1002010BD70B50024084D05E005
:106B2000686810F8340002F0F9FE641C287884428A
:106B3000F6D304484068BDE8704000F01DB900007D
:106B4000185A002004B1020070B50024064D06E07A
:106B50006868012110F8340002F004FF641C2878F2
:106B60008442F5D3002070BD185A0020F8B51546B0
:106B70000C460646052A01D20720F8BD02F0EEFFBA
:106B800018B902F0B3FF0028F7D1124900224E6075
:106B90000C708D60C1E90422C1E906220E4D0DE0A2
:106BA00006EBC4002968009181788DF80110007807
:106BB0000A4A694602F028FF0028DED1641EE4B2CA
:106BC000EED2BDE8F84004480021054A001D00F05F
:106BD00053B80000185A002004B102009D7D020045
:106BE000357B020072B602F0D9FA00BF02F018F944
:106BF0000028FBD1104C0121208801EB00400FA19F
:106C000002F01EFA10480068C00700D000BE2088BD
:106C1000022101EB00400DA102F012FABFF34F8FE9
:106C20000948E43801680D4A01F4E061114301604C
:106C3000BFF34F8F00BFFDE7205B0020466174610A
:106C40006C206572726F7200F0ED00E0537973741E
:106C5000656D207265736574000000000400FA051C
:106C60000EB500210091CDE901106A4644F2010001
:106C7000FFF7B8FF0EBD0000074B9B7823B12AB188
:106C800020B10068037C1BB10820704707207047C3
:106C900041744261002070473861002070B503F0F4
:106CA0000BFD104800240B21047044700E4D8170C0
:106CB00014206C602C706C70FFF7D0FC072114203E
:106CC000FFF7EDFC1420FFF7D4FC0848046007210F
:106CD0001120FFF7E4FC0548001F0068A8600020B1
:106CE00070BD000038610020385A002008150140AE
:106CF0002DE9FC47DFF8789099F8023073B368B358
:106D0000052902D20720BDE8FC87436933B3437CE1
:106D1000012B25D0002704460025884616468DF80D
:106D20000050684600F038F801A804F065F9C8B1D1
:106D3000012101700F4944600968C0E90218C0E9E7
:106D400004769DF8040089F801009DF8000000F029
:106D500047F81420FFF798FC2846D4E70820D2E72C
:106D60000F46D8E704259DF8000000F039F8F3E756
:106D700038610020041501400649897839B130B1E5
:106D8000416921B100210174022103F0CFBE082026
:106D9000704700003861002030B5EFF3108172B603
:106DA0000D4A9468012324B10370002900D162B612
:106DB00030BD93604FF0E023D3F88051074C25405D
:106DC0001560C3F88041D3F8844154605A17C3F862
:106DD000842100220270E8E744620020FC06FFBD27
:106DE0000B498A68002A11D000280FD1EFF31080D8
:106DF00072B60B684FF0E022C2F800314B68C2F85F
:106E0000043100228A60002800D162B67047000079
:106E1000446200202DE9F041064608680C46411CFA
:106E20004FF0A0474FF0010506D005FA00F1C7F872
:106E30000815206801F0C6FE6068411C02D00021E0
:106E400001F0AEFE3168A069C1F82405607D227DA5
:106E500031681043C1F86C05D4E900123068C0F8FD
:106E60001425C0F80C15207D012815D1A068411CFF
:106E700002D0002101F094FEE068411C05D085405D
:106E8000C7F80855E06801F09DFED4E902123068A9
:106E9000C0F80825C0F81015BDE8F0812DE9F041D3
:106EA000064608680C46411C4FF0A0474FF001050C
:106EB00006D005FA00F1C7F80815206801F08CFE2D
:106EC0006068411C02D0002101F073FE3168A069A6
:106ED000C1F82405607D217D32680843C2F86C0545
:106EE000D4E900123068C0F80C15C0F81425207DD4
:106EF000012815D1A068411C02D0002101F059FEE3
:106F0000E068411C05D08540C7F80855E06801F0ED
:106F100063FED4E902123068C0F80825C0F81015E5
:106F2000BDE8F08178210148FFF789BA285C00208C
:106F3000F8B506464FF000001500ADF8000015D07A
:106F400009236A46304600F015F80446BDF80000F3
:106F5000064458B154B12846FFF77CFAA04205D147
:106F6000224631462846FFF77CFA08B10020F8BDDA
:106F70000120F8BD70B588B182B10024158803E006
:106F8000065D641C3444A4B2A54203D80619767881
:106F90009E4201D08C42F3D38C4201D3002070BDBD
:106FA000A11C1180005D401E80B270BD054808B56F
:106FB000C16800918168684601F062FA0098FFF7A5
:106FC00082FD08BD285C0020FFF7ACBF70B540B162
:106FD0000C4D297839B1044603F052FB28B100204A
:106FE00070BD0E2070BD082070BDE868062807D26D
:106FF0000549226801EB8001401C0A60E860EEE769
:10700000042070BDE0590020A05C002040B105497B
:1070100000220123CA600B70C1E9010210467047CB
:107020000E207047E059002070B504002DD00029D3
:107030002BD020480078002827D020880D46112822
:1070400015D0302804D0322807D033281ED109E0CB
:10705000211D284603F0B8F918E0211D284603F049
:107060000FF813E0211D284603F0E4F80EE0A08895
:10707000B5F8CA12884209D1002085F8C70285F800
:10708000C8024FF6FF70A5F8CA0270BD95F8C80295
:107090000028FAD020883028F7D34F28F5D8A088C8
:1070A000B5F8CA128842F0D12846BDE8704000F019
:1070B000F3BD0000E059002048B1084A137843B1FD
:1070C000D26832B190F8C7222AB1112070470E2041
:1070D00070470820704700F0DFBD0000E059002035
:1070E00038B50188041D1F2968D012DC3F484FF0D5
:1070F00003021029008802EB004014D0112946D069
:107100001B2968D01D2966D1201DBDE8384002F03A
:1071100077BF212956D03B295ED056295BD1808884
:10712000132176DF5BE0228831A101F08DFF2088FA
:10713000082802D30020FFF793FD21883948002258
:1071400000EB011000F072F908B1FFF789FD21880A
:10715000B320354A484302EB8000FFF7ADFF11280A
:1071600002D008B1FFF77CFD012000F073FAFFF7B1
:107170001DFF08284FF0000005D000F06BFABDE8B5
:10718000384003F0E7BABDE8384000F05BBA237935
:10719000228826A101F05FFFFFF708FF38B9FFF74B
:1071A000BBFC08B1FFF75CFD012000F04BFA03F0D7
:1071B000D1FABDE83840002000F04CBA2088211DEB
:1071C00075DF0CE000210091808869468FDF002880
:1071D00001D0FFF745FD38BD8088132176DF0028F8
:1071E000F9D0BDE83840FFF73BBD0000205B002030
:1071F000436F6E6E656374696F6E203078257820FA
:1072000065737461626C69736865642C2073746162
:107210007274696E6720444220646973636F766597
:1072200072792E007C5B0020784300204C42532072
:1072300063656E7472616C206C696E6B20307825AA
:107240007820646973636F6E6E656374656420286B
:10725000726561736F6E3A203078257829000000DE
:1072600010B51A4C0188606810290ED011292BD155
:10727000401E606028D1FFF734FC002824D021682C
:10728000002921D0BDE810400847D0B900210122D3
:10729000084600F0F1F908B107280FD107220221B2
:1072A000012000F0E9F908B1072807D104220221E2
:1072B000002000F0E1F920B1072802D0216801B1D7
:1072C00088476068401C606010BD0000D8590020ED
:1072D0002DE9F04F0746858802883D48012197B087
:1072E0008346102A09D0112A49D01A2A6CD1387A3B
:1072F000B1EB101F45D2012244E0354C083CA06898
:10730000C0430B9061680BA801F0BAF80B990CA868
:1073100000F042FB2C220CA96846FFF777F8002604
:10732000E946A04610E000BF09EB46005FF000040C
:10733000B0F804A008EB84005146001D01F074F879
:10734000641C1D2CF6D3761C0098B042ECD8142D8A
:1073500005D317B00420BDE8F04FFFF781BC2946E4
:10736000584601F077F8294608F1040001F072F858
:10737000F87B012828D016482946001D15E029462B
:107380001AE000220221B1EB101F01D2012600E019
:1073900000260F49083901F11000041D294682B169
:1073A00001F058F836B12946204617B0BDE8F04F35
:1073B00001F050B82946204617B0BDE8F04F01F063
:1073C00033B801F031F8F5E717B0BDE8F08F0000F1
:1073D000305C002070B518B30288A2F57F41FF39F8
:1073E0001CD0104C4388104D206800EB8001401CDD
:1073F00000F00700206005EB810102204B81C8816D
:10740000081D086100248C810120087208714C71EC
:107410000A80887003F0E8FB204670BD082070BD2C
:107420000E2070BDF0590020B85F002040B10180EF
:1074300022B11168C0F802109188C1800020704705
:107440000E20704730B5134D040085B02DCD8DE86A
:107450002D001DD0E1B10868D0B100206080A0806F
:10746000E0804FF6FF7020800868A06004F10C01F6
:10747000684662DF002809D1207B8DF8120041F2B6
:107480002350ADF8100004A8FFF7A0FD05B030BDF3
:107490000E20FBE7E8B002000EB5002921D000283D
:1074A0001FD00288112A25D0382A1BD0392A18D19A
:1074B0000A4609888388994213D141899388994261
:1074C0000FD1C18901290CD102218DF8001011883A
:1074D000ADF80210007C8DF80400936869461046F0
:1074E00098470EBD098880888142FAD1BDE80E40D8
:1074F00003F07ABB0A8880888242F2D14FF6FF708F
:107500000880002048808880C8800EBD70B518B300
:107510000288A2F57F43FF3B1CD0104C104D23681E
:1075200003EB83025B1C03F00703236005EB82027D
:10753000C38853810123D381141D146100249481D5
:1075400002241472117100881080937003F04CFBB8
:10755000002070BD082070BD0E2070BDF0590020C5
:10756000B85F00203EB50A78002A40D18A88A2F58B
:10757000A853233B3BD18A79037B9A4237D101221E
:107580008DF800204A88ADF80220002218E000BFE4
:1075900002EBC20301EB430333F80E4F04F6DC2485
:1075A000B4F5005405D0012C09D11B89ADF8083081
:1075B00005E01C89ADF806405B89ADF80430521C2B
:1075C0000B7A9342E4D80188A1F57F42FF3A0BD0B1
:1075D000C18849B9818839B9418829B90199C0F868
:1075E0000210BDF80810C1808268694690473EBD10
:1075F0002DE9FC410646C0074FF000050ED0104FA4
:1076000000240122385D009500231146019501F008
:107610006DFA641C042CF4D300F024F8B0070DD5E7
:10762000074E0024361D0022305D032300951146CD
:10763000019501F05BFA641C042CF4D3BDE8FC81D5
:107640004CB002000249085C012101F0E0BA0000E0
:107650004CB002000249085C002101F0D8BA0000D9
:107660004CB0020010B500242046FFF7EBFF641C6D
:10767000042CF9D310BD000070B50023042810D2EB
:107680000D4D00EB4004012A02D101290CD000224B
:10769000094E00EB4000304461B1012906D00229B7
:1076A00006D00723184670BD0E30C2B22A55F9E73E
:1076B0004270F7E78270F5E71B5C00202DE9F84384
:1076C0000546861C00208DF8000090460F464FF0BE
:1076D00001096846FFF760FB1B4C20683860D4E95D
:1076E0000001401AA16804F21C47081A0EE00121AB
:1076F000384600F0BFFE00F05FFD0146384600F05E
:10770000B9FED4E90001401AA168081A401C86425B
:10771000EDD8B8F1000F03D0052065F3891002E021
:10772000062065F39F50A2682168114004EB810197
:10773000C8602068304420609DF80000FFF750FBCF
:107740004846BDE8F8830000FC63002030B482683E
:107750000468531C8360A154D0E901128A4202D309
:1077600030BC01F05CB830BC70470000034803C86F
:10777000814201D10120704700207047FC63002046
:107780002DE9F0410D460D2803D0BDE8F041FFF78B
:1077900067BA0F4E002443F2020700BF06EB041045
:1077A0002946FFF7B3FE18B1B84201D008280DD121
:1077B000641C082CF2D307482A4603210088BDE840
:1077C000F04101EB004004A101F03EBCBDE8F081B6
:1077D0007C5B0020205B00204C4253207772697450
:1077E00065204C4544207374617465202564000055
:1077F00005494FF0FF32082841F8202002D3084401
:1078000080F84820704700006C600020F0B54FF011
:10781000FF3512B10023082601E008230C260C4C8A
:1078200005E000BF54F823707F1C04D05B1CB342FA
:10783000F8D32846F0BD26185DB286F8305044F8DB
:107840002310002AF5D1E11881F84800F1E7000083
:107850006C6000200249084490F930007047000035
:107860006C60002008B5024690F8C6020B4600EB9B
:107870008001C1EB801002EB400092F8C52242B1BA
:10788000521ED2B202EBC20100EB4102518A491CE6
:1078900000E0C188ADF800100089ADF8020069462B
:1078A00018469DDF08BD000070B5084C050009D0E2
:1078B00010342168002907D00868206049682846EC
:1078C0008847F6E70834F4E770BD000058600020F0
:1078D000054A012120B1012805D19170FFF7E4BFCD
:1078E00051700020FAE77047586000202DE9F05FE2
:1078F00026484168F1B3DFF898B00E688146DBF89E
:10790000004087688078E11B21F07F45ED1CB0B90D
:10791000DFF880804FF48030C8F84403C8F80403CF
:107920001120FEF79BFE1120FEF7A3FE4FF0010A87
:10793000C8F800A02F2001F0E9FF89F802A0B542A5
:1079400000D23546124BE8193C3320F07F401860D6
:10795000DBF800105A46091B21F07F41001B20F084
:107960007F40C91C81420FD9106818602F2001F098
:10797000CDFF00E004E0BDE8F05F1120FEF784BE1B
:10798000BDE8F05F02F098BEBDE8F09F385A0020D5
:10799000041501400010014073B58CB0064600206C
:1079A00000900D9880B100246D4621460DA800F08E
:1079B00046FD30B1009805EB400084800098401CE3
:1079C0000090641C142CF0D32C2269463046FEF73C
:1079D0001DFD0EB070BD0000F0B587B00746002059
:1079E0000490ADF810100590ADF8121001900290BF
:1079F00001AA04A9384690DF060022D001F02CFF2E
:107A0000114C0346012520883A4605EB00400F49FA
:107A100001F021FBBDF8042012B9BDF8060038B111
:107A20002088BDF8063005EB004009A101F013FBEA
:107A3000BDF808202AB12088154905EB004001F067
:107A400003FB07B03046F0BDF05A0020F0B302004F
:107A50005468652072657175657374656420545847
:107A60002F5258207061636B6574206C656E67746B
:107A70006820697320746F6F206C6F6E6720627965
:107A80002025752F2575206F63746574732E000093
:107A90003CB402004188034A02EB01120146104641
:107AA000FFF760BD7C5B00202DE9F843054690F8A8
:107AB000C6020F4600EB8001C1EB801005EB4006CB
:107AC00095F8C542914604EBC40006EB40013279BB
:107AD000601C0A31904226D16B460022284600F0F5
:107AE00059FA18B310E0401EA04201D1002004E072
:107AF00004EBC40006EB40001C30804602466B4697
:107B0000284600F047FA30B10020387069464846F0
:107B10009EDFBDE8F88395F8C5024146401C641C11
:107B200085F8C502E4B23079A042DCD80120387073
:107B30000020EEE72DE9F0470025DFF88C803CE0DF
:107B40006068002100EBC506012032789146FEF7FF
:107B500049FCD4E9062300EA020701EA030C57EACC
:107B60000C0728D082438B434846C4E9062301F022
:107B7000B3FF32788246914601200021FEF732FCA5
:107B8000D4E9042300EA020401EA03074A46504606
:107B90000021FEF727FC44404F403C430BD1707856
:107BA000012801D0012100E00021726881EA0A0168
:107BB0000AB1484690476D1CEDB298F80000444663
:107BC0008542BDD3BDE8F087185A00202DE9F04763
:107BD000894690F8C612904601EB8102C2EB8111F2
:107BE00000EB4107384602F04BFD06002FD0194C40
:107BF000A06806282BD2184D762205EBC010394616
:107C0000A0F80280001DFEF701FC0027B9F1000F6B
:107C100004D0A06805EBC010077004E0A168022042
:107C200005EBC1110870A06805EBC011401CCE67C0
:107C3000A060E16888420AD1002604E005EBC61086
:107C4000C16F8847761CE0688642F7D3A760BDE81D
:107C5000F0870000E0590020B85C002070B50E46A7
:107C600090F8C612154601EB8102C2EB8111A0B05B
:107C700000EB410002F004FD040009D07C2205491C
:107C80006846FEF7C3FBADF8025068460196A04770
:107C900020B070BD54B0020070B50E4604464FF4DB
:107CA0003371FEF7CCFB11480025A4F8CA62856049
:107CB00084F8C9520E4884F8C65284F8C552006848
:107CC00020602246012130469BDF0121112806D089
:107CD000002809D184F8C71284F8C85203E084F858
:107CE000C71284F8C812002070BD0000E0590020BF
:107CF000A05C002010B50021024800F0CCFB80F30E
:107D0000100010BD186800200E4910B50A784C7894
:107D10000023A24212D0521CD2B20A70022A00D111
:107D20000B70084A0B780C3252F8232002608868E6
:107D3000104420F07F408860012010BD03600020C7
:107D400010BD0000385A002030B50446006887B0E6
:107D50000D46806800281FD018216846FEF76FFB8B
:107D60000195A0680590207910B1012810D107E095
:107D700001208DF8000020690290E068039005E082
:107D800002208DF80000E068000302906069049012
:107D9000206881686846884707B030BD2DE9F0410A
:107DA0008046024601200021FEF71CFB1A4F0546C3
:107DB0000E467868FEF7E0FF00280CD1174CD4E996
:107DC000062110462A4001EA06031A4305D0A843BB
:107DD000B143C4E90601BDE8F081404601F07CFEF4
:107DE00030B1D4E9040128433143C4E9040105E07A
:107DF000D4E90410A943B043C4E90410D4E906014E
:107E000028433143C4E90601A1687868BDE8F04120
:107E10000022FEF76DBF000004B10200185A0020D6
:107E20002DE9FC5F0E008346DDE90C47C6F100003A
:107E300098469246814600D40846012503E000BFDB
:107E400090FBFAF06D1C5045FADAA84500D945467A
:107E500024B1002E01DB780700D5641EB80702D5D7
:107E6000B8F1000F0AD0F80708D13CB1A54205D2FD
:107E700020215846641EFFF769FCF6E7002E02DA5F
:107E80004E462D2102E0780703D52B215846FFF7F7
:107E90005DFC07F0030002280BD1B8F1000F08D1F8
:107EA0003CB1A54205D230215846641EFFF74EFC76
:107EB000F6E7CDE90047434652463146584603F0BF
:107EC00041F8BDE8FC9F000070B50D46044600680F
:107ED0004FF4887101F0E0FC4FF49071206801F0DC
:107EE000DBFC4FF49271206801F0D6FC4FF4A271D4
:107EF000206801F0D1FC20681249C0F80413206802
:107F00006907000B40B2090E002806DA00F00F00E6
:107F100000F1E02080F8141D03E000F1E02080F87B
:107F2000001420680121000B40B200F01F029140B4
:107F30004009800000F1E020C0F88012C0F8001174
:107F400070BD000010030200024600201268930773
:107F500002D0530702D47047500714D502F0030033
:107F6000012802D002280CD105E0C2F383100B686F
:107F7000801C184404E00223086803EB925210446A
:107F8000086001207047086800EB9253C2F3891023
:107F9000401CEEE710B509892AB1D088491C8142FE
:107FA00018D1002010BD90F8C62202EB8204C4EB69
:107FB000821200EB420212899142F2D0491C1980D0
:107FC00090F8C61201EB8102C2EB811100EB410077
:107FD000008902E01980D088401E5880012010BD21
:107FE00070B5054617480C460A7803210088012A17
:107FF00001EB00400FD0022A23D12379628812A11D
:1080000001F029F8207900284FF0020015D0BDE8D2
:108010007040FFF71FBB628817A101F015F8FEF74B
:1080200093FD08B1FEF71CFE2846FFF7D3F90028A0
:1080300007D0BDE87040FEF713BEBDE87040FFF703
:1080400001BB70BD205B00204C696E6B2030782531
:10805000782C20427574746F6E207374617465207F
:108060006368616E676564206F6E2070656572205D
:10807000746F2030782578004C4544204275747424
:108080006F6E207365727669636520646973636FD0
:108090007665726564206F6E20636F6E6E5F6861D7
:1080A0006E646C652030782578000000172101800F
:1080B00041800021017141711B218171C1717047A3
:1080C0002DE9F047394E002780463D46DFF8E09025
:1080D000D6F804A057E003D00446D0F81C8035E061
:1080E00099F8002002EB4201521CD2B289F800201C
:1080F00009EBC10199F80230091D9A4201D189F8B2
:10810000005048680A780446012A12D0022A02D098
:10811000032A3BD108E002F0D9FC00B10127257405
:1081200034E00574C06900E070680028F9D170601F
:108130002CE0207C50BB88686060C868A06008693B
:10814000E0604869A061F07800B165606268B1687C
:10815000184B501A20F07F40984202D2A168084480
:1081600006E0881AA16820F07F40814202D9081AEF
:10817000206000E0256065600120A5602074204635
:10818000E56102F085FCB8F10000A4D199F8001077
:1081900099F801008142A3D117B97168514502D005
:1081A0000120BDE8F0870020FBE70000385A0020DE
:1081B00038610020FFFF7F002DE9FF4100262348A2
:1081C00000F055F92148001F074600F050F9204CF7
:1081D00060680090A56800E000986946284004EBBC
:1081E00080000C30FFF7B0FE0028F5D101AA0099FD
:1081F00001EA050304EB8303491CDB6842F82030E5
:10820000401C00910228F2D3019800F003000128DD
:108210000BD0022810D10198032101EB9050009956
:10822000BDF80A6001EB900005E00198BDF80A6016
:10823000C0F3831008440090384600F015F908B1E7
:108240000098606004B03046BDE8F08114680020FA
:10825000FC63002008B54FF40041002000F05AFFF5
:1082600008B1FEF7FDFC00F0CDFDFEF717FD08B1EB
:10827000FEF7F6FC0120FFF7BBF940F26662012130
:108280002848FEF773FC08B1FEF7EAFC01F060F83D
:1082900008B1FEF7E5FC01F00FFA08B1FEF7E0FCCB
:1082A000002000906946012001F092F808B1FEF725
:1082B000D7FC684601F012F908B1FEF7D1FC0021A5
:1082C000194800F05DF908B1FEF7CAFC1748FEF73F
:1082D0009DFE08B1FEF7C4FC134D154800244C3533
:1082E000CDF8000005EB04106946FFF7ABF808B1C4
:1082F000FEF7B6FC641C082CF4D3FEF765FE0D48AF
:108300000321008801EB00400BA100F099FE02F070
:1083100021FA00BF00F084FD0028FBD101F02CF809
:10832000F8E7000070430020305B0020957A0200DF
:10833000E17F0200205B00204D756C74696C696EF2
:108340006B206578616D706C652073746172746503
:10835000642E00002DE9F047C7880446181D164614
:108360008946B0FBF7F1B0FBF7F207FB12009A1950
:108370003A44D21CB2FBF7F2DDF820A001E02468F9
:10838000491E0029FBD13D1A8846B54216D818E08F
:10839000BAF1000F05D0211809EB08002A46091D83
:1083A00004E0204409EB08012A46001DFEF72EF8E0
:1083B00000202468761BA844B74201D9354600E066
:1083C0003D46002EE4D1BDE8F087000030B50246FE
:1083D00059B100F0CBFE0021074C09E004EB81030A
:1083E00015685B88AB4202D11160002030BD491C8A
:1083F0008142F3D3052030BDEC5A002010B50A8825
:1084000049888A4203D1FDF747FF012010BD0020B3
:1084100010BD70B50C460546FDF721FF002802D0BF
:1084200061882868084470BD01F01F0301229A404A
:10843000D243490900EB8100114600F021B84A09F6
:1084400050F8220001F01F0201219140084000D0A5
:108450000120704701F01F0301229A40490900EBF7
:108460008100114600F01CB8002100F00FB8012176
:1084700000F016B808B56A46FDF763FF009808BD1E
:1084800008B56A46FDF743FF009808BD08B56A467F
:10849000FDF73DFF08BD08B56A46FDF71FFF08BDA3
:1084A00008B56A46FDF726FF009808BD08B56A467C
:1084B000FDF754FF009808BD38B5044600258DF837
:1084C00000506846FEF768FC2168626808689042C0
:1084D0000ED9401E08600178A38AE26801FB0325DB
:1084E000227A2168101AC0B20A79824200D2087139
:1084F0009DF80000FEF774FC284638BD38B50546E7
:1085000000208DF800000C466846FEF745FCE86840
:10851000A98A201AB0FBF1F12A681068431C136085
:1085200001709DF80000FEF75BFC38BD10B530B15E
:10853000017A42680368891AC9B21A6006E00E20FF
:1085400010BD03681A68541C1C601170491EC9B222
:10855000F7D2006800210171084610BDC20800F082
:1085600007030120895C98400840704710B5C20895
:1085700000F00703885C01249C402043885410BD10
:1085800070B5040010D01720A164208060801B20EB
:108590002071002504EBC500801DFFF787FD6D1CD1
:1085A000082DF7D3002070BD0E2070BD2DE9F041DD
:1085B00085888EB00C46082D7ED20188464E4FF03D
:1085C0000008242940D006DC102909D011290CD03C
:1085D00023295FD154E03A290DD055295AD12EE0F4
:1085E0000146204601F0D6FD54E004EBC500801D95
:1085F000FFF75CFD4EE0294604EBC107408937F8E0
:10860000062F824200D810467880172800D2172003
:108610007880A06C70B1787960B1D6E90002CDE9BC
:108620000002ADF802107888ADF80400A26C204674
:108630006946904787F8058087F804802AE001465C
:10864000204601F06FFE25E0011D2C226846FDF753
:10865000DDFEBDF80000BDF8042004EBC0014A7344
:10866000A26CBAB1D6E90423CDE90B23ADF82E00F4
:10867000487B8DF83000A26C20460BA9904709E09A
:1086800004EBC503017A187B884200D201462846D4
:10869000FFF7A2F904EBC504A07A002818D0E188FE
:1086A0002846A5DF012580B1112811D001F0D4F8AA
:1086B00002460A48008800E00AE00EB005EB0040E0
:1086C000BDE8F04106A100F0BFBC84F80A80E57265
:1086D0000EB0BDE8F0810000D0B00200F05A0020DA
:1086E00073645F626C655F67617474635F65786310
:1086F00068616E67655F6D74755F726571756573CE
:108700007428292072657475726E65642025732E35
:108710000000000000F180400068002800D0012027
:10872000704708B500F180400021016000680090AA
:1087300008BD000070B50B4C207808B185250FE00E
:108740000020A06060602061E060074801F0C0F890
:10875000054601F00BF808B901F0A4F801202070DB
:10876000284670BD58600020D178020038B5002539
:108770008DF800506846FEF70FFB074CE068401E7E
:10878000E060E06810B901F0B3F8A5709DF8000052
:10879000FEF726FB38BD000058600020F0B5054606
:1087A0000478154889B0164640F82420124A086912
:1087B000121DA2F1080742F82400487F38552022F4
:1087C0006846FDF723FE04942878385C48B10EB162
:1087D0000A4A00E000226946281D01F02DFB09B07D
:1087E000F0BD0EB1064A00E00022694605F10C001A
:1087F00001F0F4F9F3E70000FC59002021AE02007B
:108800006DAC02000FB408B50399002904D004AA86
:1088100000926A4600F00FF801B05DF814FB10B545
:1088200082680446002A05D0D4E9040321689847E9
:108830000020A06010BD2DE9FC4791460C00804649
:1088400076D014F8011B39B125290ED04046FEF729
:108850007DFF20780028F4D198F80C00002867D01C
:108860004046BDE8FC47FFF7DABF0020012221782F
:108870002B291BD02D2902D0302908D102E040F04D
:10888000010001E040F00200641C002AEFD1002545
:108890002A290ED02178A1F130020A2A11D205EB43
:1088A000850201EB4205641C303DF1E740F0040015
:1088B000EAE7D9F800100B1DC9F800300968641CFC
:1088C0000D44217800232E290BD114F8011FA1F1AA
:1088D00030020A2A05D203EB830201EB4203303B4C
:1088E000F3E76C290DD068290BD0692921D00BDC66
:1088F000252918D0582931D063290ED0642915D1E3
:1089000017E014F8011FECE7702969D0732932D001
:1089100075291BD0782909D120E0D9F80000011D64
:10892000C9F8001001784046FEF710FF641C90E77C
:108930006CE0D9F800100A1DC9F800200968CDE9DB
:1089400000500A224046FFF76BFAEFE7D9F8001013
:108950000A1DC9F8002009680A2206E0D9F80010AB
:108960000A1DC9F8002009681022CDE900504046D0
:1089700002F0E8FADAE7D9F8001000270A1DC9F872
:1089800000200E68C00705D112E04046761C7F1C0F
:10899000FEF7DCFE31780029F7D104E020214046C3
:1089A0006D1EFEF7D3FEBD42C0D9002DF6D1BDE746
:1089B0004EB13046FDF74EFD074604E0202140460B
:1089C0006D1EFEF7C3FEBD4206D9002DF6D103E0B1
:1089D0004046761CFEF7BAFE31780029F8D1A5E7AB
:1089E000D9F80000011DC9F8001005683021404683
:1089F000FEF7ACFE78214046FEF7A8FE08200021D5
:108A0000CDE90001034610222946B0E7BDE8FC8706
:108A1000044801214174007A08B100207047012008
:108A200070470000DC620020012801D0032808D133
:108A30000449002201284A7400D00020087401F083
:108A4000CFBD7047DC62002070B50246022801D01D
:108A5000032A45D1234C207A002841D0012833D065
:108A6000022831D120480023022A006802D0032ABC
:108A70002AD11BE0E360017911B1012924D10DE075
:108A8000D0E90565711B4FF48056B14200D33146E1
:108A9000294481614569A9420ED015E00169491C4C
:108AA0000161426991420FD1237213E0E168491CD0
:108AB000E160082908D9E3602372022A0AD00D2157
:108AC000FFF742F901F082FD607C28B1BDE87040FB
:108AD00000F052BE0021F3E7BDE8704001F080BD18
:108AE00070BD0000DC620020605A002070B541EAD1
:108AF0004201DDE904564FF0A04441EA830141EA16
:108B0000052104EB800041EA0641C0F8001770BD62
:108B100070B541EA4201DDE904564FF0A04441EA54
:108B2000830141EA052104EB800041EA0641C0F8D7
:108B3000001770BD70B541EA4201DDE904564FF0FF
:108B4000A04441EA830141EA052104EB800041EAA7
:108B50000641C0F8001770BD70B541EA4201DDE979
:108B600004564FF0A04441EA830141EA052104EB99
:108B7000800041EA0641C0F8001770BD1CB5002115
:108B800000910B4601220191FFF7D4FF1CBD1CB5DB
:108B9000002100910B4601220191FFF7DDFF1CBD72
:108BA0001CB500220B46009211460192FFF7C2FF4E
:108BB0001CBD1CB500220B46009211460192FFF726
:108BC000CBFF1CBD1CB5002100910B460122019179
:108BD0001146FFF7AFFF1CBD1CB5002100910B46ED
:108BE000012201911146FFF7B7FF1CBD4FF0A042D3
:108BF00002EB8000D0F8002722F44032C0F80027B2
:108C0000D0F8002742EA0141C0F80017704701225E
:108C10004FF0A043824011B1C3F808257047C3F854
:108C20000C25704718B5084B6C4601441B6800932F
:108C300006E000BF54F82030D3F81035401C08C2BD
:108C40008142F7D818BD0000F8B00200034908B50A
:108C50000844002101600068009008BD00600040E9
:108C600002494058012800D00020704700600040B1
:108C700030B5124B01460020D3F81044224609E0DB
:108C8000157A854205D1401C0A28F7DB4FF0FF30EA
:108C900030BD5268002AF3D1421CF9D00872D3F8D3
:108CA00010242AB152684A60D3F81024516030BDB4
:108CB0000022C3F810144A6030BD0000FC6300209D
:108CC000F0B595B01C4615460F4608461A9E00F0B2
:108CD0001DFB182109A8FDF7B2FB0E96CDE909543A
:108CE0000023082203A9384600F025FB05980690CA
:108CF000BDF81000ADF81C00BDF81200ADF81E0064
:108D000000208DF821000398082600F003000128B8
:108D100002D0022818D032E003983346850AC0F307
:108D2000C2008DF8200003980FA9C0F38314A2009D
:108D3000384600F000FB09A8009006AB22460FA9B8
:108D4000284600F03FFA1AE00398840DC0F3C200F1
:108D50008DF82000082C01D2254600E00825334676
:108D60002A460FA9384600F0E6FA2E44641B09ABE8
:108D700006AA29460FA800F077F9002CEAD1384658
:108D800000F0CAFA15B0F0BD7047012001F08CBFA9
:108D9000084810B50178084A515C19B1001D01F06E
:108DA000D7F802E00C3000F0E5FFBDE810400020ED
:108DB00001F07ABF745A0020F859002008B5034A20
:108DC00000924023024AFFF77BFF08BDA5A80200DE
:108DD000FC6200200A4A012902EBC00007D00229E8
:108DE00007D0032907D0042907D0002070470220AC
:108DF0007047042070470079704740797047000041
:108E000048BB020010B5FFF7C0FF04210348FFF77D
:108E10002FFF02490120487210BD0000885A00202F
:108E20002DE9F04F8DB0FEF7A1FC18B100200DB078
:108E3000BDE8F08F7A4C4FF0000BC4F818B4BFF3C4
:108E40004F8F60680290A568D846284004EB8000E8
:108E500008E021680298814201D86160E6E7284075
:108E600004EB80000C3002A9FFF76EF80028F0D167
:108E700005AA029901EA050304EB8303491CDB6898
:108E800042F82030401C02910228F2D3059800F0ED
:108E90000300022802D001284ED0A9E005985022F4
:108EA000810D8946B2EB905F00D850210E4666F3E3
:108EB0009F50059008315B4800F0DFF9070079D03A
:108EC00000F024FA4346082205A9384600F039FA92
:108ED000029908F1080A2940681A8000001D86429C
:108EE00023D94F4D0C3530B1C2B204EB8101301A99
:108EF00090460C3104E02946F2B2002590462846FF
:108F0000C6B25346384600F01CFA0AEB08032DB1EE
:108F1000324629464FEA070000F013FA029909F198
:108F2000030001EB900002903BE004EB810153460B
:108F3000324638460C31EFE70598C0F38310062817
:108F400000D30620059960F38911C1F38310801CBA
:108F500005918100334800F090F9070048D000F0F7
:108F6000D5F94346082205A9384600F0EAF908F188
:108F7000080800260FE00298434600EA0501401C5D
:108F800004EB81010290042238460C3100F0D9F93B
:108F900008F10408761C0598C0F38310B042EAD8A3
:108FA00047B1D4F81054D4F8180468B1384600F02A
:108FB000B3F92FE01CE0687A012804D12A6828461A
:108FC0003946126890476D68002DF4D1384600F09C
:108FD000A3F98DF800B06846FDF7DEFED4F818045A
:108FE00008B9029860609DF80000FDF7F9FE11E0F5
:108FF000D4F8104404E021682046896888476468F2
:10900000002CF8D108480221008801EB004007A19C
:1090100000F016F8FEF7AAFB80F0010007E7000059
:10902000FC630020D0BB0200205B00204261636B28
:10903000656E647320666C7573686564000000007B
:1090400000231A4601F09EBC08B5012300926A462F
:1090500001F098FC08BD1CB5CDE9002302236A4647
:1090600001F090FC1CBD00002DE9F0470E46804643
:109070001C46924608293ED894F80C900020207394
:109080001946104601F04AFA0025B54206D218F8F2
:1090900005201AA12046FFF7B5FB03E019A12046E1
:1090A000FFF7B0FB6D1C082DEFD317A12046FFF78B
:1090B000A9FB0025B54210D218F80570FDF7A2F9FA
:1090C0000068C05D10F03E0F01D03A4600E02E224D
:1090D0000EA12046FFF796FB03E00DA12046FFF707
:1090E00091FB6D1C082DE5D301222146504601F06D
:1090F000F7F984F80C90BDE8F087000020253032A5
:1091000078000000202020007C0000002563000083
:1091100020000000104810B5FF218160002101608F
:109120004160C0F81814C0F8141480F820140B48DB
:1091300000F0F0F800280DD109480A490A4B401AFE
:10914000C108002003E000BF23F82000401C884233
:10915000FAD3002010BD0000FC630020D0BB020049
:10916000D0BB020048BB0200EC5A00200248034971
:10917000401AC00870470000D0BB020048BB020084
:1091800013B56846FFF722F908B100201CBD02485C
:10919000009950F831001CBD48BB020070B508486A
:1091A0000125D0F8104480F8205405E0657221684C
:1091B0002046496888476468002CF7D170BD0000DC
:1091C000FC6300202DE9FF4781460C9D00200C46E2
:1091D0002F7B2873984616462946184601F09EF9BB
:1091E000072E42D2DFE806F004090F161F2A3600C8
:1091F00049462846FFF706FB37E0494628462268DD
:10920000FFF700FB31E0D4E9002349462846FFF789
:10921000F9FA2AE0A0680090D4E9002349462846DC
:10922000FFF7F0FA21E0D4E90201CDE90001D4E929
:10923000002349462846FFF7E5FA16E004F1080046
:1092400007C88DE80700D4E9002349462846FFF700
:10925000D9FA0AE004F108000FC88DE80F00D4E93C
:10926000002349462846FFF7CDFA0022294640460A
:1092700001F036F92F73BDE8FF872DE9F041858AAB
:1092800080462D1F4819C01CB0FBF5F0C6B2404601
:10929000FFF712F9040019D000202071012060713D
:1092A000E58000272546761EC4F800800BE0404686
:1092B000FFF702F960B16179491C617128600546C8
:1092C0007F1CC0F80080B742F1D32046BDE8F08192
:1092D000204600F002F80020F8E72DE9F04145793A
:1092E00001466B1E002201E00968521C9A42FBD322
:1092F0000F680146002605E038460C68FFF7FEF8C7
:109300002146761CAE42F7D3BDE8F0810121001D55
:10931000FFF7B0B8FFF70AB910B504460121001DE8
:10932000FFF7C4F810F0FF0F04D12046BDE810404D
:10933000FFF7D3BF10BD38B501240094FFF70AF83A
:1093400038BD38B500240094FFF704F838BD00009C
:10935000064910B500204870091D0860BFF35F8FF3
:109360000349044800F034FA002010BD685A002078
:1093700050B10200F062002008B500208DF8000016
:109380006846FDF709FDF1EE100A20F09F00E1EEBE
:10939000100ABFF35F8F08494020C1F880029DF892
:1093A0000000FDF71DFD00F0E1F908B141DF08BD47
:1093B00020BF40BF20BF08BD04E000E020B103494A
:1093C00009680160002070470E2070473CB302001E
:1093D0002DE9FE4302460E460846FFF7EFFF002840
:1093E0006ED100240094019406208DF800204FF0E7
:1093F0000808ADF8040002948DF802806946202028
:10940000326869DF2F4F012540B100F025FA02468E
:1094100038882D4905EB0040FFF716FE00948DF8C3
:1094200001408DF80280019402948DF80350694642
:109430004020326869DF40B100F00EFA02463888F9
:10944000224905EB0040FFF7FFFD009401940294D0
:109450008DF8005069460120326869DF48B100F09C
:10946000FBF93988024605EB014319491846FFF715
:10947000EBFD4FF4B0600090019402946946A12086
:10948000326869DF40B100F0E7F9024638881149D7
:1094900005EB0040FFF7D8FD0094019402948DF88D
:1094A00000406946A020326869DF40B100F0D4F97D
:1094B00002463888084905EB0040FFF7C5FD00204B
:1094C000BDE8FE83285B0020DCB9020024BA02005C
:1094D0003CB9020088B90200E8B802002DE9F04169
:1094E0000446D0F8008060DF2168194D07464145E9
:1094F0001CD92888022606EB004016A1FFF7A0FD24
:109500002888424606EB00401EA12368FFF7A3FD12
:10951000F006D0F80C012168800200F10050421AD8
:10952000288825A106EB0040FFF78EFD012467B1D6
:10953000384600F091F9024628882AA104EB004041
:10954000FFF782FD3846BDE8F0812E480470F9E748
:10955000285B0020496E73756666696369656E7481
:109560002052414D20616C6C6F63617465642066AC
:109570006F722074686520536F6674446576696302
:10958000652E00004368616E67652074686520522F
:10959000414D207374617274206C6F636174696FE4
:1095A0006E2066726F6D203078257820746F2030C1
:1095B0007825782E000000004D6178696D756D206A
:1095C00052414D2073697A6520666F722061707018
:1095D0006C69636174696F6E2069732030782578D7
:1095E0002E00000073645F626C655F656E61626C83
:1095F0006528292072657475726E65642025732E46
:1096000000000000E75A002030B5144891B00078FF
:10961000002820D05FF03405ADF8405010A903A811
:1096200061DF30B1052816D011B0BDE83040FDF73C
:1096300017BB03AC0A49684600F0CAF807E000BF50
:10964000D0E9002120469047684600F0D8F80298FB
:109650000028E1D0F4E711B030BD0000E75A002047
:1096600040B30200F8B5134C2078C0B10120A070BF
:1096700001F0EAF8112814D0022001F0FDF80025CD
:109680008DF800506846FDF787FB11DF0646257010
:109690009DF80000FDF7A4FB2EB13046F8BD082070
:1096A000F8BD0020F8BDA57001F028F9032001F0F5
:1096B000E3F8F6E7E45A00207CB5204C207808B1A6
:1096C00008207CBD0120A070002001F0BDF8112809
:1096D00019D0002001F0D0F8194800260068019048
:1096E0008DF800606846FDF757FB164901A810DFAA
:1096F00005000AD0002020709DF80000FDF770FBE7
:109700002DB128467CBD00207CBD0120F3E7A6706A
:1097100066700721162001F04DF808B1FDF7A0FA98
:109720000721152001F046F808B1FDF799FA01F07C
:1097300001F9012001F0A0F8E5E70000E45A00205B
:10974000D4B20200E56B02000EB50749684600F08E
:109750003FF805E0D0E900108847684600F04FF870
:1097600002980028F6D10EBDF0B202000148007840
:1097700070470000E45A00200548817819B100784C
:1097800018B1FFF76FBF08207047FFF795BF0000C3
:10979000E45A00201FB568464BDF30B1052814D0CD
:1097A00004B0BDE81040FDF75BBA084901A800F01D
:1097B0000FF806E0D0E900210098904701A800F0DA
:1097C0001EF803980028E6D0F4E71FBD5CB3020042
:1097D000016009684160AFF3008010B5D0E9002155
:1097E0005368994201D1002104E0D1E90034A34239
:1097F00002D01946816010BD08314160F0E78168F0
:1098000000290BD0026892680A44826041684B6864
:109810009A4203D108314160FFF7DFBF7047000073
:109820000C4A10B502F594730EE0991AC91001EBB9
:10983000D171491002EBC1010C68844201D90B4679
:1098400002E005D201F108029A42EED3002010BDD9
:10985000486810BD70B1020000B5FFF7E1FF0028B5
:1098600000D1014800BD00005CB102004058002852
:1098700000D00120704708B50022425040580090A7
:1098800008BDD0F80403084000D0012070474058BC
:10989000002800D00120704708B5002242504058EF
:1098A000009008BD08480068012110F0010F08D1A0
:1098B0004FF0E020E02280F80024C0F88012C0F8C9
:1098C000001102480160704700E100E01805004007
:1098D0000649024600200B790BB1852070470A60CB
:1098E00001220A7100224A7170470000045A0020C8
:1098F00004490120086004480168C1F300410029BF
:10990000FAD170470C00004018040040002802D033
:10991000014980010847704711B1020010B50446A3
:1099200000F0C6FD28B12046BDE810400021FFF739
:109930005DB9204600F0C8FD00280FD02046FDF795
:1099400089FF074A02EB8001D1F8103523F00103AB
:10995000C1F8103501218140C2F8081310BD000084
:10996000006000402DE9F0418846054600F0A0FD6A
:10997000234E002828461AD0FDF76CFF304490F89B
:1099800048008009032802D001280ED007E04FF0DC
:10999000A040D0F81005E84010F0010F05D00321D9
:1099A0002846BDE8F041FFF721B90221F8E700F0B1
:1099B0008BFD002822D02846FDF74CFF04464FF4CB
:1099C000807000EB84000F4F81B207EB8400D0F869
:1099D000102542F00102C0F810250846FFF736F9BD
:1099E000B8F1000F0AD02846FDF734FF56F82000E2
:1099F000002803D00120A040C7F80403BDE8F0818F
:109A00006C600020006000402DE9FC41DFF8BC8064
:109A1000044608EB0400002790F930001346C017F5
:109A20000E46401C01D008274CE0B0781946C0F320
:109A300040022046FDF7EAFE0546401C41D0B078C2
:109A4000410719D4C0070AD04FF0A04000EB8401B1
:109A5000D1F8000720F00200C1F8000707E000215C
:109A60007378204600910A460191FFF751F8174993
:109A700020465431FEF77AFDB078800718D5144897
:109A8000317800EB8500D0F81025124B1A40C0F851
:109A900010254FF4F8524FF4403302EA042203EA4F
:109AA00001410A43D0F810150A43C0F8102509E017
:109AB00008EB0500327810F8481F41EA8211017066
:109AC00000E004273846BDE8FC8100006C600020FF
:109AD00000600040FFE0FCFF4FF0A041D1F81015FE
:109AE000C14011F0010000D00120704770B5184D41
:109AF00095F8580008B1082070BD0020411E2A18B2
:109B0000401CC0B282F830102028F8D30024204630
:109B1000FDF76EFE641CE4B20C2CF8D300240D4952
:109B2000E0206C6581F8000401264020891FC1F8FF
:109B30008002C1F800014FF4BE70FFF787F80649B4
:109B4000F007C1F8040385F85860204670BD000096
:109B50006C60002006E000E000600040034890F8E0
:109B60005800002800D00120704700006C600020E1
:109B70000121B1EB507F01D10120704700207047D7
:109B800038B50D4600F016FD040014D000208DF805
:109B900000006846FDF700F9207928B19DF8000023
:109BA000FDF71EF9112038BD0120256020719DF8B8
:109BB0000000FDF715F9002038BD10B500F0FAFCE3
:109BC000002802D000210160017110BD0149024846
:109BD00001F092B8C8600020002000402DE9F0415B
:109BE0000546007916460F4600EB40012D4A01EB71
:109BF000C00102EB810494F82A1011B10820BDE8DD
:109C0000F081294951F820102868FFF7B9FF08B101
:109C10001120F4E739462846FDF7FCF866603869FC
:109C2000206030004FF001062FD03F7F4FF48E713F
:109C30002868FFF720FE4FF4A2712868FFF71BFE8B
:109C400028681A49C0F8041328684FEA4711000B26
:109C500040B2002806DA00F00F0000F1E02080F8A2
:109C6000141D03E000F1E02080F800142868000BC8
:109C700040B200F01F0206FA02F14009800000F134
:109C8000E020C0F88012C0F8001128680421C0F854
:109C900000150020A061E06184F8290044F8140F49
:109CA000A675ACE7C8600020FCB00200800002008E
:109CB0002DE9F047054600790B4600EB400101EB2A
:109CC000C000234901EB8004284600F043F810B19E
:109CD0001120BDE8F0874FF00008C4F82080A36091
:109CE000626184F828804FF48E76474631462868B2
:109CF000FFF7C1FD28684FF00109C0F80890214620
:109D0000286800F095FF606800BBD5F800A00EE061
:109D100094F8280008B10F2716E031465046FFF7A7
:109D2000A5FD0028F4D02146504600F081FF216AAD
:109D300060698142F1D331462868FFF797FD00281A
:109D4000F9D02868C0F80C90C4F814803846C0E7F1
:109D5000C8600020007900EB400101EBC00004491D
:109D600001EB80004069002800D00120704700000E
:109D7000C86000202DE9F047044600794FF0000943
:109D800000EB400101EBC000254901EB8007206892
:109D9000C0F80095786880B120682249C0F808139F
:109DA00020680121000B40B200F01F0291404009E1
:109DB000800000F1E020C0F880112068D0F80C2568
:109DC000D0F81485D0F80865D0F810554FF0FF3161
:109DD000C0F81415C0F80C152068C0F80815C0F8B4
:109DE0001015501C02D01046FEF7C8FEB8F1FF3F18
:109DF00002D04046FEF7C2FE681C02D02846FEF79D
:109E0000BDFE701C02D03046FEF7B8FE2068FFF79A
:109E1000D4FE87F82A90C7F80490BDE8F0870000C8
:109E2000C8600020840202000149024801F010B815
:109E3000F4600020002000402DE9F0410546164660
:109E400000790F46154A00EBC00102EB810494F83B
:109E5000201011B10820BDE8F081114951F82010FF
:109E60002868FFF78DFE08B11120F4E7394628462F
:109E7000FDF714F86660386920601EB1397F284606
:109E8000FEF722F828680821C0F800150020A0611C
:109E9000E0610121606184F82010DCE7F4600020BB
:109EA00000B102002DE9F04704460E460079204932
:109EB00000EBC00001EB800517463046FFF758FE67
:109EC00030B1204600F036F820B11120BDE8F0870F
:109ED0001020FBE76F61AE604FF4907600273146AB
:109EE0002068FFF7D9FC4FF4AC7841462068FFF7B3
:109EF000D3FC2068AA686969C0F84425C0F84815F1
:109F0000206801218160686878B9B14649462068B7
:109F1000FFF7BDFC064641462068FFF7B8FC064344
:109F2000F4D000B10F27002068613846CEE700006A
:109F3000F46000200079054900EBC00001EB8000CF
:109F40004069002800D0012070470000F460002024
:109F50002DE9F04704460079274900EBC00001EBEA
:109F6000800720684FF00009C0F80095786880B13C
:109F700020682249C0F8081320680121000B40B274
:109F800000F01F0291404009800000F1E020C0F87D
:109F900080112068D0F80C25D0F81485D0F8086519
:109FA000D0F810554FF0FF31C0F80C15C0F814155B
:109FB0002068C0F80815C0F81015501C02D01046D3
:109FC000FEF7E5FDB8F1FF3F02D04046FEF7DFFDAA
:109FD000681C02D02846FEF7DAFD701C02D030461D
:109FE000FEF7D5FD2068FFF7E8FD87F82090C7F859
:109FF0000490BDE8F0870000F46000201003020028
:10A0000010B50446818B8069104AFCF791FF90B12E
:10A010000E4A0123083A02F11601A01C8CDF02004F
:10A0200012D00B4801210088BDE8104001EB004030
:10A0300008A1FFF709B8114900208ADF002803D0E2
:10A04000BDE81040FCF70CBE10BD000030B00200AF
:10A05000205B0020436F6E6E656374696F6E2052E3
:10A06000657175657374204661696C65642C207236
:10A070006561736F6E202564000000006843002056
:10A080002DE9F84F05460C460888B5F8CA128842F3
:10A0900059D195F8C602DFF8F8A000EB8001C1EBBA
:10A0A000801005EB400160884FF003094FF0000875
:10A0B000F0BBE6880879A21DF3B250FA86F6062EA8
:10A0C00001D8034400E006230B7100261CE000BF0A
:10A0D00000EBC00306EB860702EB470701EB4303E7
:10A0E000D7F802C0C3F80AC0D7F806C0C3F80EC03C
:10A0F0007F895F82A3F81480A3F81680A3F81880E4
:10A10000401CA3F81A80761C0B798342E0D895F89E
:10A11000C62200EBC00002EB8203C3EB821205EB08
:10A12000420231F81000128990420ED2087900E004
:10A130000BE0062809D085F8C50221882846FDF7DE
:10A1400091FB01000AD1BDE8F88F85F8C58222880D
:10A1500069462846FDF7A8FC01000BD085F8C782A8
:10A1600022882846FDF77AFD8AF800902188AAF80F
:10A170000210E8E79DF800000028E4D022880121C1
:10A180002846FDF723FD2188284600F053F9DAE739
:10A19000B85C002070B58D88027900EBC50422738D
:10A1A000C97BA41D012902D0022904D101E0008845
:10A1B00000E0408820802188608881420FD92846AD
:10A1C000A5DF0126A0B1112814D0FFF745FB0246F8
:10A1D0000A480BA1008806EB0040FEF735FFA17985
:10A1E000E079814208D92846BDE87040FDF7F4BB0C
:10A1F0006671F4E72671F2E770BD0000F05A0020A6
:10A2000073645F626C655F67617474635F657863D4
:10A2100068616E67655F6D74755F72657175657392
:10A220007428292072657475726E65642025732EFA
:10A2300000000000F8B505460C460888B5F8CA12BB
:10A2400088425DD195F8C602A61D00EB8001C1EBE6
:10A25000801005EB400395F8C502618800EBC00053
:10A2600003EB40000A3039B329E000BF01EB4102A3
:10A2700006EB42029788B7F5245F0CD06FF4245C9C
:10A2800017EB0C070AD0012F02D0072F0BD108E0E3
:10A290005288428107E05288828104E05288C2815C
:10A2A00001E05288028242892AB182891AB1C289A8
:10A2B0000AB1028A1AB9491C32888A42D6D80026C5
:10A2C0008DF8006095F8C5021979401C884203D1C9
:10A2D00001208DF8000018E085F8C5022288694643
:10A2E0002846FDF7E1FB01000BD085F8C762228804
:10A2F0002846FDF7B3FC0A480321017021884180FC
:10A30000F8BD9DF800000028FAD0228801212846D7
:10A31000FDF75CFC2188284600F08CF8F8BD0000B1
:10A32000B85C00207CB506468D88C88806EBC5045D
:10A33000A41D172800D217202188814200D8084682
:10A3400060800020207121882846B5DF50B1FFF7DA
:10A3500083FA02460E480121008801EB00400DA15E
:10A36000FEF772FE6079002810D1B06C00280DD085
:10A370001449D1E90201CDE90001ADF8025060882D
:10A38000ADF80400B26C6946304690477CBD0000D1
:10A39000F05A002073645F626C655F676174747368
:10A3A0005F65786368616E67655F6D74755F726520
:10A3B000706C7928292072657475726E6564202529
:10A3C000732E0000D0B0020070B505460C4690F820
:10A3D000C602228800EB8001C1EB801005EB400132
:10A3E000B5F8CA02824222D1608848B100212846CD
:10A3F000FDF7ECFB21882846BDE8704000F01AB854
:10A40000A2680A60E068C1F8060021882846FDF7C6
:10A4100029FA01000BD0002085F8C70222882846BF
:10A42000FDF71CFC0248032101702188418070BDAA
:10A43000B85C00202DE9F041044690F8C9020E46B0
:10A44000401C1949C0B284F8C902C9680327174DD6
:10A450004FF0000E884224D284F8C5E294F8C60278
:10A46000401CC0B200EB8001C1EB801104EB410243
:10A4700084F8C602A5F1180101EB800001210068F3
:10A48000106082F804E030469BDF010007D084F8BA
:10A49000C7E232462046FDF7E1FB2F706E80BDE833
:10A4A000F08184F8C7E2F8E7E0590020B85C0020AA
:10A4B0000449084490F93000082801DB0120704766
:10A4C000002070476C6000200449084490F9300077
:10A4D000082801D201207047002070476C600020DE
:10A4E00010B50C46017A052908D0407A38B10848E1
:10A4F00008A102682046FEF785F900E01AB106A11E
:10A500002046FEF77FF92046BDE81040FEF787B9E8
:10A51000C05A0020257300000D0A000038B5C3881A
:10A520000D46044633B114A0009015A216A128468A
:10A53000FEF768F9217A05291CD0607A48B1A08815
:10A54000FEF748FC164951F8202016A12846FEF7D0
:10A5500059F9A0880021FEF713FE03461049207A1E
:10A56000143951F8202001B02846BDE830400EA132
:10A57000FEF748B938BD00001B5B306D00000000DD
:10A580001B5B313B33316D0025734C6F6773206467
:10A59000726F70706564202825642925730D0A0088
:10A5A000C05A0020257300003C25733E2025733AD5
:10A5B000200000000349884201D103487047002071
:10A5C00070470000002000400C5A00200348024958
:10A5D0000068FDF713BF0000645A002028B1020094
:10A5E0002DE9F041234C0025234E207A012730B974
:10A5F0002248311D0068FDF70CFF306038B10220A1
:10A6000020723168087928B101281ED116E06560F2
:10A61000BDE8F081D1E90503C01A4FF480529042A1
:10A6200000D31046B7EB900F01D2820800E0012260
:10A630000869C9681844194429DF03E0D1E9030116
:10A64000084428DF58B1112812D003213068FDF7E3
:10A650007BFB25726560BDE8F041FFF7B7BF207C4A
:10A660000028D5D1BDE8F04100210220FEF7ECB969
:10A670002772CDE7DC620020605A002028B102007A
:10A6800070B50C4B00210A4ADC680DE002EB810535
:10A690008678AD78B54206D132F821500688B542A9
:10A6A00001D1586870BD491CA142EFD3002070BD94
:10A6B000A05C0020E059002070B5012670044FF026
:10A6C000E0210025C1F88001084C4010C4F848037F
:10A6D000C4F8080366602F20FFF718F9A660044C41
:10A6E0002F20A560FFF712F9A57070BD0010014082
:10A6F000385A002070B5054688690C4600284FF48A
:10A70000847128460AD0FFF7B6F8D5F81805626AB2
:10A71000E1688854606A401C606270BDFFF7ABF866
:10A72000D5F8180570BD1FB501238DF80030CDE9AF
:10A730000121D0E90012684690471FBD1FB50123D3
:10A740008DF800308DF808100192D0E900126846AB
:10A7500090471FBD10B58BDF0A4803210A4A0088C5
:10A7600001EB004009A1FEF76FFC074810490E30CD
:10A770008ADF08B1FCF774FABDE810400020FCF74E
:10A7800069BF0000205B002030B00200537461728A
:10A7900074207363616E6E696E6720666F722064E9
:10A7A0006576696365206E616D652025732E0000F6
:10A7B0006843002070B50D460446FCF767F970B198
:10A7C0002846FCF775F968B16807000E002C0CDA12
:10A7D00004F00F0101F1E02181F8140D09E042F2CB
:10A7E000010070BD42F2020070BD04F1E02484F863
:10A7F0000004002070BD000038B50021012548B1DB
:10A8000001280CD0032809D1FFF74CF8BDE83840E7
:10A81000FDF7ACBF4FF0E020C0F8805138BD8DF897
:10A8200000106846FCF7B8FA064C207808B9FDF726
:10A8300081FFE068401CE060A5709DF80000FCF717
:10A84000CFFA38BD586000203EB504460949684635
:10A85000FEF7BEFF08E000BFD0E900212046904788
:10A8600030B16846FEF7CBFF02980028F4D13EBD18
:10A8700011203EBDD8B202003EB5044608496846E4
:10A88000FEF7A6FF07E000BFD0E900212046904771
:10A890006846FEF7B4FF02980028F5D13EBD0000DF
:10A8A000E4B2020070B50D4C0020D2B22070201D21
:10A8B0000B4D0378EB5C1BB1001DFFF7F3FA02E0D0
:10A8C0000C30FFF7F5F908B1FCF7CAF960780028F9
:10A8D00002D021780029FAD070BD0000705A002003
:10A8E000F8590020002805D10349012048700020B4
:10A8F000FCF7DABF704700005860002010B5162042
:10A90000FCF7C4F848B10A4882684FF4800152B19C
:10A91000016821F48001016010BDBDE8104042F2E1
:10A920000100FCF79DB94FF0E020C0F8801110BD88
:10A930004462002010B51620FCF7A8F880B10F483B
:10A9400090F800044009FCF7B3F860B10C48826845
:10A950004FF480016AB1016841F48001016010BDCB
:10A9600042F2010001E042F20200BDE81040FCF7B3
:10A9700077B94FF0E020C0F8001110BD16E000E0FC
:10A98000446200202DE9F84F204D92468946064644
:10A990009846012269461846AF68FCF78FFE58B307
:10A9A000009800210446801C09E000BF00EA07036C
:10A9B0005AF8212005EB8303401C491CDA6041450D
:10A9C000F4D34FEA164AFDF795F94AEA0041601CB4
:10A9D000384005EB80003C4005EB8402C160D06844
:10A9E00066F3C50068F3891069F39F2020F0030027
:10A9F000401C20F00400D06095F8200402E000BF65
:10AA0000FEF70EFA0028FBD1BDE8F88FFC630020AA
:10AA10002DE9F84F1D4C00256846D4E901A6FDF745
:10AA200073F9002738B30023009A61681CE0D1F85D
:10AA300000C00846944503D9ACEB02020A6015E059
:10AA4000A2EB0C0263440760D0F80CC0C1698146D8
:10AA5000BCF1000F08D006EB030828F07F48C0E9DE
:10AA6000018CC9F81C5005460029E0D128466160D8
:10AA7000FDF726FB03E02846FDF722FB10B1504608
:10AA8000FCF734FFE770BDE8F88F0000385A00206B
:10AA90000D4B10B5596831B102680C68A24204D858
:10AAA000A21A0A60C161586010BD0B4603E00B4654
:10AAB000C969121B21B10C689442F8D3A41A0C6026
:10AAC0000260C161D86110BD385A00202DE9F04103
:10AAD000144E77683D462C4603E0844204D0254658
:10AAE000E469002CF9D11BE0D4B1A5420BD1F8697F
:10AAF000706040B90C49012088600021B160F0709D
:10AB00002F20FEF703FF2168E069E86110B10268B9
:10AB1000114401607068874202D00120BDE8F081D5
:10AB20000020FBE7385A0020001001407CB50646A3
:10AB300000240D468DF800406846FCF72DF901A869
:10AB400000F05AFA70B10570094946609DF804009A
:10AB500048709DF80000FCF743F91420FBF794FDC2
:10AB600020467CBD04249DF80000FCF739F9F7E786
:10AB7000386100202DE9F041194D6C68002C2CD073
:10AB8000184800270068A968B846401A20F07F4698
:10AB90002068B0420CD82146361A0744E469087C84
:10ABA00020B181F81080886949698847002CEFD16D
:10ABB00029786878814206D1401CC0B268700228AA
:10ABC00001D185F80180064869780C3040F8217081
:10ABD000BDE8F0411420FBF757BDBDE8F08100004F
:10ABE000385A00200415014010B50F4CD4E900106C
:10ABF000884211D000EB80020C4800EB82018B7878
:10AC00005BB130F822000831A3DF002804D120799D
:10AC1000401C00F00700606010BD30F822008988F9
:10AC20000022A1DFF1E70000F0590020B85F00200A
:10AC300070B50C4605464FF48E71FEF71CFE216A76
:10AC4000A068415C206A401C2062C5F81C1570BDDC
:10AC50001FB500228DF800200291816801914261A8
:10AC6000D0E90012684690471FBD00001FB50A4694
:10AC700001788DF8001041680191017A8DF8081073
:10AC8000C0680390044850F82210001F50F822209A
:10AC9000684690471FBD0000005A0020014901206E
:10ACA00008707047705A002010B588B00446202202
:10ACB0000E496846FBF7AAFB06200090C01F0190D2
:10ACC000029003904FF0EB7006900CB1084A00E040
:10ACD000002269460748FDF761FD08B1FBF7C0FF98
:10ACE0000448001F447008B010BD0000A4B2020068
:10ACF0009DAC0200745A00202DE9FF470C46054622
:10AD00004FF40071FEF7BDFD01274FF401780026D6
:10AD100018B34FF4927949462846FEF7A7FDE0B1F3
:10AD200049462846FEF7A7FDC5F8088394F8290090
:10AD300000B96F6002208DF80000D5F88004C5F8D6
:10AD400080040390A0690290E0680190A661E6612A
:10AD5000D4E900126846904728E004212846FEF70F
:10AD600090FD18B34FF484712846FEF77FFDE8B1DB
:10AD700021462846FFF7BEFC616AA069884215D1CA
:10AD8000E06938B1E268616AA0612069E6616662E3
:10AD9000E06008E094F8290000B96F60C5F8088306
:10ADA000A661E268616A2046FFF7BDFC4FF48E7829
:10ADB00041462846FEF75AFD78B1206A616988420B
:10ADC00002D294F8280020B341462846FEF753FDEE
:10ADD000616911B12046FFF73BFF4FF4A27841466D
:10ADE0002846FEF743FD002818D041462846FEF7C6
:10ADF00042FD94F8290000B12F60A06900280DD011
:10AE0000A661E268616A04B02046BDE8F047FFF73A
:10AE10008ABC21462846FFF70BFFDEE7BDE8FF8727
:10AE20001FB50A4601788DF8001041680191017A3A
:10AE30008DF80810C0680390044850F82210001FD5
:10AE400050F82220684690471FBD0000005A00209D
:10AE50002DE9FF410C464FF4927705463946FEF73F
:10AE600016FD0026C0B139462846FEF715FD022022
:10AE70008DF80000D5F88004C5F880040390D5F85B
:10AE80003C058DF80800E0680190A661E661D4E910
:10AE900000126846904723E04FF4887739462846E9
:10AEA000FEF7F5FCE0B139462846FEF7F5FCD5F88B
:10AEB0003C15A069884213D1E06960B1E268D5F819
:10AEC000000220F02000C5F80002E069A0612069BE
:10AED000E661E06001E0A661E2682046FFF72EFC33
:10AEE0004FF4A27739462846FEF7D1FC60B13946C7
:10AEF0002846FEF7D1FCA06930B1A661D5F83C1513
:10AF00002046E268FFF71AFC4FF49077394628464E
:10AF1000FEF7BDFC002813D039462846FEF7BCFCDE
:10AF2000606900280CD0D5F84C058DF800608DF8CC
:10AF30000800A06801906661D4E900126846904755
:10AF4000BDE8FF812DE9F05F8346DDE90A4A9946B5
:10AF500090460D460846012703E000BFB0FBF8F01D
:10AF60007F1C4045FAD2B94500D94F465FEACA7006
:10AF700012D18CB15FEA8A7002D5B9F1000F01D00D
:10AF8000202607E0302605E031465846641EFCF7CF
:10AF9000DDFB0CB1A742F7D35FF00106B9F1010F59
:10AFA00002D9A9F1010903E0B5FBF6F0404502D34F
:10AFB00006FB08F6F2E7DFF83C9000BFB5FBF6F0C1
:10AFC00000FB165519F800105846FCF7BFFBB6FBFE
:10AFD000F8F6002EF2D15FEACA7009D0002C07D033
:10AFE000A74205D220215846641EFCF7AFFBF5E7C7
:10AFF000BDE8F09F16B102000A494A788B78521CCE
:10B00000D2B2934200D100220B78934201D10020AA
:10B0100070470270487800EB400001EBC000001D53
:10B020007047000038610020060018000000900101
:10B030004E6F726469635F426C696E6B79000001E8
:10B04000A0005000000000000000000011121314C6
:10B050000D0E0F10010000000000000000000000B5
:10B0600000000000000000000000000000000000E0
:10B0700000000000000000000000000000000000D0
:10B0800000000000000000000000000000000000C0
:10B0900000000000000000000000000000000000B0
:10B0A00000000000000000000000000000000000A0
:10B0B0000000000000000000000000000000000090
:10B0C0000000000000000000000000000000000080
:10B0D000770A000000000000770A0000000000006E
:10B0E0007ADA00000000000023D1BCEA5F78231563
:10B0F000DEEF12120000000000000050CD9B0200A5
:10B10000299E0200030000001861002000000000DA
:10B110000338FDD87047303132333435363738395B
:10B1200041424344454600004C5A002000100000B4
:10B13000040000000100000000000000000000000A
:10B1400000000000000000000000000000000000FF
:10B1500038B1020050B1020004000000556E6B6E61
:10B160006F776E206572726F7220636F6465000086
:10B17000000000000CB8020001000000B8B6020098
:10B1800002000000ACB40200030000002CB7020073
:10B190000400000080B702000500000060B6020055
:10B1A00006000000FCB502000700000068B70200BE
:10B1B0000800000074B6020009000000D8B60200C2
:10B1C0000A000000F4B702000B00000094B4020073
:10B1D0000C0000008CB602000D0000005CB80200FC
:10B1E0000E00000058B702000F00000094B70200E4
:10B1F00010000000C8B702001100000070B8020083
:10B200001200000044B8020013000000E0B7020082
:10B210008000000014B602008100000050B502005A
:10B220008200000010B5020083000000F0B40200AC
:10B23000840000002CB502008500000038B6020032
:10B240008600000040B7020090000000DCB502005C
:10B2500091000000D0B4020092000000A0B60200ED
:10B2600000820000A8B7020001820000F4B60200CC
:10B270000282000010B70200008400006CB50200DA
:10B280000184000018B8020002840000B4B5020076
:10B290000384000090B50200BD8D0200918D020074
:10B2A000898D0200FFFFFFFFFFFFFFFFFFFFFFFF92
:10B2B000FFFFFFFF00000000000000000000D601BB
:10B2C0000701000088BC020090BC020000000000E2
:10B2D0000000000001000007C4B20200D4B2020066
:10B2E00008000000FCB202000CB3020008000000DD
:10B2F0000CB302001CB3020008000000B0BC020046
:10B30000C0BC02000000000000000000A0BC020061
:10B31000B0BC02000000000000000000E8BB02001A
:10B32000F0BB0200F0BB020040BC020040BC0200C7
:10B3300080BC020080BC020088BC02006843002080
:10B340001CB302003CB302000800000090BC0200E5
:10B35000A0BC020000000000000000004CB302008E
:10B360005CB3020008000000004040404040404004
:10B3700040404141414141404040404040404040C8
:10B38000404040404040404040050202020202026C
:10B3900002020202020202020220202020202020BB
:10B3A00020202002020202020202909090909090CF
:10B3B000101010101010101010101010101010108D
:10B3C0001010101002020202020288888888888801
:10B3D00008080808080808080808080808080808ED
:10B3E00008080808020202024000000069B30200D7
:10B3F00073645F626C655F6761705F646174615FF5
:10B400006C656E6774685F75706461746528292067
:10B41000287265717565737429206F6E20636F6E75
:10B420006E656374696F6E2030782578207265745C
:10B4300075726E65642025732E00000054686520C7
:10B4400072657175657374656420636F6D62696E92
:10B450006174696F6E206F6620545820616E64209D
:10B460005258207061636B6574206C656E677468F8
:10B470007320697320746F6F206C6F6E6720627920
:10B48000202575206D6963726F7365636F6E6473D9
:10B490002E0000004E52465F4552524F525F494EB9
:10B4A00056414C49445F4441544100004E52465F6E
:10B4B0004552524F525F534F4654444556494345B7
:10B4C0005F4E4F545F454E41424C454400000000E2
:10B4D0004E52465F4552524F525F46454154555277
:10B4E000455F4E4F545F454E41424C45440000007D
:10B4F0004E52465F4552524F525F4D555445585F2C
:10B50000554E4C4F434B5F4641494C45440000006B
:10B510004E52465F4552524F525F4D555445585F0B
:10B520004C4F434B5F4641494C4544004E52465FA9
:10B530004552524F525F4D555445585F434F4E440C
:10B540005F494E49545F4641494C45440000000064
:10B550004E52465F4552524F525F4D555445585FCB
:10B56000494E49545F4641494C4544004E52465F5E
:10B570004552524F525F424C455F495053505F52C3
:10B58000585F504B545F5452554E4341544544000C
:10B590004E52465F4552524F525F424C455F4950B2
:10B5A00053505F504545525F52454A4543544544C8
:10B5B000000000004E52465F4552524F525F424CCF
:10B5C000455F495053505F4C494E4B5F444953438C
:10B5D0004F4E4E4543544544000000004E52465FD6
:10B5E0004552524F525F4150495F4E4F545F494D53
:10B5F000504C454D454E5445440000004E52465F68
:10B600004552524F525F4E4F545F535550504F5218
:10B61000544544004E52465F4552524F525F4D4F83
:10B6200044554C455F4E4F545F494E495449414C37
:10B63000495A4544000000004E52465F4552524F61
:10B64000525F4D4F44554C455F414C524541445922
:10B650005F494E495449414C495A45440000000055
:10B660004E52465F4552524F525F4E4F545F464FC7
:10B67000554E44004E52465F4552524F525F494E1E
:10B6800056414C49445F5354415445004E52465F25
:10B690004552524F525F444154415F53495A45000D
:10B6A0004E52465F4552524F525F494F5F50454E92
:10B6B00044494E47000000004E52465F4552524FEB
:10B6C000525F5356435F48414E444C45525F4D498B
:10B6D0005353494E470000004E52465F4552524F69
:10B6E000525F494E56414C49445F4C454E47544881
:10B6F000000000004E52465F4552524F525F445286
:10B70000565F5457495F4552525F414E41434B008B
:10B710004E52465F4552524F525F4452565F545705
:10B72000495F4552525F444E41434B004E52465F83
:10B730004552524F525F494E5445524E414C0000C3
:10B740004E52465F4552524F525F53544F524147FB
:10B75000455F46554C4C00004E52465F4552524F95
:10B76000525F4E554C4C00004E52465F4552524F70
:10B77000525F494E56414C49445F504152414D0041
:10B780004E52465F4552524F525F4E4F5F4D454DB0
:10B79000000000004E52465F4552524F525F464FE6
:10B7A0005242494444454E004E52465F4552524F24
:10B7B000525F4452565F5457495F4552525F4F564D
:10B7C000455252554E0000004E52465F4552524F70
:10B7D000525F494E56414C49445F41444452000037
:10B7E0004E52465F4552524F525F5245534F55524B
:10B7F000434553004E52465F4552524F525F494EA9
:10B8000056414C49445F464C414753004E52465FB7
:10B8100053554343455353004E52465F4552524F92
:10B82000525F424C455F495053505F4348414E4E32
:10B83000454C5F414C52454144595F45584953542A
:10B84000530000004E52465F4552524F525F434FE5
:10B850004E4E5F434F554E54000000004E52465F1F
:10B860004552524F525F54494D454F5554000000C8
:10B870004E52465F4552524F525F42555359000057
:10B880007761726E696E67006465627567000000BB
:10B890001B5B313B33306D001B5B306D00000000E3
:10B8A0001B5B313B33316D001B5B313B33326D0031
:10B8B0001B5B313B33336D001B5B313B33346D001D
:10B8C0001B5B313B33356D001B5B313B33366D0009
:10B8D0001B5B313B33376D00696E666F0000000003
:10B8E0006572726F7200000073645F626C655F6303
:10B8F00066675F73657428292072657475726E655A
:10B9000064202573207768656E20617474656D709E
:10B9100074696E6720746F2073657420424C455FB4
:10B9200047415454535F4346475F5345525649433A
:10B93000455F4348414E4745442E000073645F62B3
:10B940006C655F6366675F73657428292072657430
:10B9500075726E6564202573207768656E2061744A
:10B9600074656D7074696E6720746F2073657420E0
:10B97000424C455F434F4D4D4F4E5F4346475F56E8
:10B98000535F555549442E0073645F626C655F6375
:10B9900066675F73657428292072657475726E65B9
:10B9A00064202573207768656E20617474656D70FE
:10B9B00074696E6720746F2073657420424C455F14
:10B9C00047415454535F4346475F415454525F5478
:10B9D00041425F53495A452E0000000073645F6284
:10B9E0006C655F6366675F73657428292072657490
:10B9F00075726E6564202573207768656E206174AA
:10BA000074656D7074696E6720746F20736574203F
:10BA1000424C455F434F4E4E5F4346475F47415060
:10BA20002E00000073645F626C655F6366675F731E
:10BA3000657428292072657475726E65642025739B
:10BA4000207768656E20617474656D7074696E67C7
:10BA500020746F2073657420424C455F4741505FEE
:10BA60004346475F524F4C455F434F554E542E005F
:10BA7000626C655F64625F64697363006E72665FC7
:10BA8000626C655F6761747400000000626C655FE2
:10BA90006C62735F63000000636C6F636B00000097
:10BAA000434C4F434B0000004750494F5445000062
:10BAB0005052530055415254000000005541525419
:10BAC000450000006E72665F6673746F7261676531
:10BAD0000000000061746669666F2E6D5F666966BE
